{
  "_format": "hh-sol-artifact-1",
  "contractName": "EduCatalystMilestone",
  "sourceName": "contracts/EduCatalystMilestone.sol",
  "abi": [
    {
      "inputs": [
        {
          "internalType": "address",
          "name": "_coreAddress",
          "type": "address"
        },
        {
          "internalType": "address",
          "name": "_fundingAddress",
          "type": "address"
        }
      ],
      "stateMutability": "nonpayable",
      "type": "constructor"
    },
    {
      "anonymous": false,
      "inputs": [
        {
          "indexed": true,
          "internalType": "uint256",
          "name": "requestId",
          "type": "uint256"
        },
        {
          "indexed": true,
          "internalType": "address",
          "name": "orgAddress",
          "type": "address"
        },
        {
          "indexed": false,
          "internalType": "uint256",
          "name": "amount",
          "type": "uint256"
        }
      ],
      "name": "FundsReleased",
      "type": "event"
    },
    {
      "anonymous": false,
      "inputs": [
        {
          "indexed": true,
          "internalType": "uint256",
          "name": "requestId",
          "type": "uint256"
        },
        {
          "indexed": false,
          "internalType": "uint256",
          "name": "milestoneIndex",
          "type": "uint256"
        }
      ],
      "name": "MilestoneApproved",
      "type": "event"
    },
    {
      "anonymous": false,
      "inputs": [
        {
          "indexed": true,
          "internalType": "uint256",
          "name": "requestId",
          "type": "uint256"
        },
        {
          "indexed": false,
          "internalType": "uint256",
          "name": "milestoneIndex",
          "type": "uint256"
        },
        {
          "indexed": false,
          "internalType": "string",
          "name": "description",
          "type": "string"
        },
        {
          "indexed": false,
          "internalType": "uint256",
          "name": "percentage",
          "type": "uint256"
        }
      ],
      "name": "MilestoneCreated",
      "type": "event"
    },
    {
      "anonymous": false,
      "inputs": [
        {
          "indexed": true,
          "internalType": "uint256",
          "name": "requestId",
          "type": "uint256"
        },
        {
          "indexed": true,
          "internalType": "address",
          "name": "sponsor",
          "type": "address"
        },
        {
          "indexed": false,
          "internalType": "uint256",
          "name": "amount",
          "type": "uint256"
        }
      ],
      "name": "RefundIssued",
      "type": "event"
    },
    {
      "anonymous": false,
      "inputs": [
        {
          "indexed": true,
          "internalType": "uint256",
          "name": "requestId",
          "type": "uint256"
        },
        {
          "indexed": false,
          "internalType": "bool",
          "name": "returnedToSponsors",
          "type": "bool"
        }
      ],
      "name": "RemainingFundsProcessed",
      "type": "event"
    },
    {
      "inputs": [
        {
          "internalType": "uint256",
          "name": "_requestId",
          "type": "uint256"
        },
        {
          "internalType": "uint256",
          "name": "_milestoneIndex",
          "type": "uint256"
        }
      ],
      "name": "approveMilestone",
      "outputs": [],
      "stateMutability": "nonpayable",
      "type": "function"
    },
    {
      "inputs": [],
      "name": "core",
      "outputs": [
        {
          "internalType": "contract EduCatalystCore",
          "name": "",
          "type": "address"
        }
      ],
      "stateMutability": "view",
      "type": "function"
    },
    {
      "inputs": [
        {
          "internalType": "uint256",
          "name": "_requestId",
          "type": "uint256"
        },
        {
          "internalType": "string[]",
          "name": "_descriptions",
          "type": "string[]"
        },
        {
          "internalType": "uint256[]",
          "name": "_percentages",
          "type": "uint256[]"
        }
      ],
      "name": "createMilestones",
      "outputs": [],
      "stateMutability": "nonpayable",
      "type": "function"
    },
    {
      "inputs": [],
      "name": "fundingContract",
      "outputs": [
        {
          "internalType": "contract EduCatalystFunding",
          "name": "",
          "type": "address"
        }
      ],
      "stateMutability": "view",
      "type": "function"
    },
    {
      "inputs": [
        {
          "internalType": "uint256",
          "name": "_requestId",
          "type": "uint256"
        }
      ],
      "name": "getMilestones",
      "outputs": [
        {
          "components": [
            {
              "internalType": "uint256",
              "name": "requestId",
              "type": "uint256"
            },
            {
              "internalType": "string",
              "name": "description",
              "type": "string"
            },
            {
              "internalType": "uint256",
              "name": "percentage",
              "type": "uint256"
            },
            {
              "internalType": "bool",
              "name": "released",
              "type": "bool"
            },
            {
              "internalType": "bool",
              "name": "approved",
              "type": "bool"
            }
          ],
          "internalType": "struct EduCatalystMilestone.Milestone[]",
          "name": "",
          "type": "tuple[]"
        }
      ],
      "stateMutability": "view",
      "type": "function"
    },
    {
      "inputs": [
        {
          "internalType": "uint256",
          "name": "",
          "type": "uint256"
        },
        {
          "internalType": "uint256",
          "name": "",
          "type": "uint256"
        }
      ],
      "name": "milestones",
      "outputs": [
        {
          "internalType": "uint256",
          "name": "requestId",
          "type": "uint256"
        },
        {
          "internalType": "string",
          "name": "description",
          "type": "string"
        },
        {
          "internalType": "uint256",
          "name": "percentage",
          "type": "uint256"
        },
        {
          "internalType": "bool",
          "name": "released",
          "type": "bool"
        },
        {
          "internalType": "bool",
          "name": "approved",
          "type": "bool"
        }
      ],
      "stateMutability": "view",
      "type": "function"
    },
    {
      "inputs": [
        {
          "internalType": "uint256",
          "name": "_requestId",
          "type": "uint256"
        }
      ],
      "name": "processRemainingFunds",
      "outputs": [],
      "stateMutability": "nonpayable",
      "type": "function"
    },
    {
      "inputs": [
        {
          "internalType": "uint256",
          "name": "_requestId",
          "type": "uint256"
        },
        {
          "internalType": "uint256",
          "name": "_milestoneIndex",
          "type": "uint256"
        }
      ],
      "name": "releaseMilestoneFunds",
      "outputs": [],
      "stateMutability": "nonpayable",
      "type": "function"
    }
  ],
  "bytecode": "0x6080604052348015600f57600080fd5b50604051611de9380380611de9833981016040819052602c916077565b600080546001600160a01b039384166001600160a01b0319918216179091556001805492909316911617905560a5565b80516001600160a01b0381168114607257600080fd5b919050565b60008060408385031215608957600080fd5b609083605c565b9150609c60208401605c565b90509250929050565b611d35806100b46000396000f3fe608060405234801561001057600080fd5b50600436106100885760003560e01c806357170ff01161005b57806357170ff014610102578063995df76c14610115578063b358042c14610140578063f2f4eb261461015357600080fd5b80631c376c631461008d57806320913da5146100ba5780633de1bb15146100cf57806342c549c0146100e2575b600080fd5b6100a061009b3660046114fd565b610166565b6040516100b195949392919061156f565b60405180910390f35b6100cd6100c83660046114fd565b610248565b005b6100cd6100dd3660046114fd565b61053c565b6100f56100f03660046115a7565b610af8565b6040516100b191906115c0565b6100cd6101103660046115a7565b610c35565b600154610128906001600160a01b031681565b6040516001600160a01b0390911681526020016100b1565b6100cd61014e36600461175e565b611132565b600054610128906001600160a01b031681565b6002602052816000526040600020818154811061018257600080fd5b9060005260206000209060040201600091509150508060000154908060010180546101ac9061188d565b80601f01602080910402602001604051908101604052809291908181526020018280546101d89061188d565b80156102255780601f106101fa57610100808354040283529160200191610225565b820191906000526020600020905b81548152906001019060200180831161020857829003601f168201915b50505050600283015460039093015491929160ff80821692506101009091041685565b60008054906101000a90046001600160a01b03166001600160a01b0316638da5cb5b6040518163ffffffff1660e01b8152600401602060405180830381865afa158015610299573d6000803e3d6000fd5b505050506040513d601f19601f820116820180604052508101906102bd91906118e3565b6001600160a01b0316336001600160a01b03161461032c5760405162461bcd60e51b815260206004820152602160248201527f4f6e6c79206f776e65722063616e2063616c6c20746869732066756e6374696f6044820152603760f91b60648201526084015b60405180910390fd5b600154604051630646a9d360e51b81526004810184905283916000916001600160a01b039091169063c8d53a6090602401600060405180830381865afa15801561037a573d6000803e3d6000fd5b505050506040513d6000823e601f3d908101601f191682016040526103a29190810190611971565b509950600198506103b7975050505050505050565b8160048111156103c9576103c9611a6d565b14806103e6575060028160048111156103e4576103e4611a6d565b145b6104025760405162461bcd60e51b815260040161032390611a83565b60008481526002602052604090205483106104595760405162461bcd60e51b8152602060048201526017602482015276092dcecc2d8d2c840dad2d8cae6e8dedcca40d2dcc8caf604b1b6044820152606401610323565b600084815260026020526040812080548590811061047957610479611ab2565b906000526020600020906004020190508060030160019054906101000a900460ff16156104e85760405162461bcd60e51b815260206004820152601a60248201527f4d696c6573746f6e6520616c726561647920617070726f7665640000000000006044820152606401610323565b60038101805461ff00191661010017905560405185907f939da3b627c123c81fe5aacebf925163337a0d4f8a03724640618078cad248949061052d9087815260200190565b60405180910390a25050505050565b600154604051630646a9d360e51b81526004810184905283916000916001600160a01b039091169063c8d53a6090602401600060405180830381865afa15801561058a573d6000803e3d6000fd5b505050506040513d6000823e601f3d908101601f191682016040526105b29190810190611971565b509950600198506105c7975050505050505050565b8160048111156105d9576105d9611a6d565b14806105f6575060028160048111156105f4576105f4611a6d565b145b6106125760405162461bcd60e51b815260040161032390611a83565b600154604051630646a9d360e51b81526004810186905260009182916001600160a01b039091169063c8d53a6090602401600060405180830381865afa158015610660573d6000803e3d6000fd5b505050506040513d6000823e601f3d908101601f191682016040526106889190810190611971565b50505050509550505050509150816001600160a01b0316336001600160a01b0316146106c65760405162461bcd60e51b815260040161032390611ac8565b600086815260026020526040902054851061071d5760405162461bcd60e51b8152602060048201526017602482015276092dcecc2d8d2c840dad2d8cae6e8dedcca40d2dcc8caf604b1b6044820152606401610323565b600086815260026020526040812080548790811061073d5761073d611ab2565b906000526020600020906004020190508060030160019054906101000a900460ff166107ab5760405162461bcd60e51b815260206004820152601a60248201527f4d696c6573746f6e65206e6f7420617070726f766564207965740000000000006044820152606401610323565b600381015460ff16156108125760405162461bcd60e51b815260206004820152602960248201527f46756e647320616c72656164792072656c656173656420666f722074686973206044820152686d696c6573746f6e6560b81b6064820152608401610323565b60006127108260020154846108279190611b4a565b6108319190611b67565b9050600061271060008054906101000a90046001600160a01b03166001600160a01b0316638c639a856040518163ffffffff1660e01b8152600401602060405180830381865afa158015610889573d6000803e3d6000fd5b505050506040513d601f19601f820116820180604052508101906108ad9190611b89565b6108b79084611b4a565b6108c19190611b67565b905060006108cf8284611ba2565b60038501805460ff191660011790556040519091506000906001600160a01b0388169083908381818185875af1925050503d806000811461092c576040519150601f19603f3d011682016040523d82523d6000602084013e610931565b606091505b505090508061098e5760405162461bcd60e51b8152602060048201526024808201527f4661696c656420746f2073656e642066756e647320746f206f7267616e697a616044820152633a34b7b760e11b6064820152608401610323565b60008060009054906101000a90046001600160a01b03166001600160a01b0316638da5cb5b6040518163ffffffff1660e01b8152600401602060405180830381865afa1580156109e2573d6000803e3d6000fd5b505050506040513d601f19601f82011682018060405250810190610a0691906118e3565b6001600160a01b03168460405160006040518083038185875af1925050503d8060008114610a50576040519150601f19603f3d011682016040523d82523d6000602084013e610a55565b606091505b5050905080610aa65760405162461bcd60e51b815260206004820152601b60248201527f4661696c656420746f2073656e6420706c6174666f726d2066656500000000006044820152606401610323565b876001600160a01b03168c7f6e3c6096795c8298a218b2cfb8bde42726ff7c9a3d27b4d3ba41ab7f74feb5fb85604051610ae291815260200190565b60405180910390a3505050505050505050505050565b606060026000838152602001908152602001600020805480602002602001604051908101604052809291908181526020016000905b82821015610c2a57838290600052602060002090600402016040518060a001604052908160008201548152602001600182018054610b6a9061188d565b80601f0160208091040260200160405190810160405280929190818152602001828054610b969061188d565b8015610be35780601f10610bb857610100808354040283529160200191610be3565b820191906000526020600020905b815481529060010190602001808311610bc657829003601f168201915b5050509183525050600282015460208083019190915260039092015460ff808216151560408401526101009091041615156060909101529082526001929092019101610b2d565b505050509050919050565b600154604051630646a9d360e51b81526004810183905282916000916001600160a01b039091169063c8d53a6090602401600060405180830381865afa158015610c83573d6000803e3d6000fd5b505050506040513d6000823e601f3d908101601f19168201604052610cab9190810190611971565b50995060019850610cc0975050505050505050565b816004811115610cd257610cd2611a6d565b1480610cef57506002816004811115610ced57610ced611a6d565b145b610d0b5760405162461bcd60e51b815260040161032390611a83565b600154604051630646a9d360e51b815260048101859052600091829182916001600160a01b03169063c8d53a6090602401600060405180830381865afa158015610d59573d6000803e3d6000fd5b505050506040513d6000823e601f3d908101601f19168201604052610d819190810190611971565b9a5050505050965050505050925080610ddc5760405162461bcd60e51b815260206004820152601d60248201527f4576656e74206e6f74206d61726b656420617320636f6d706c657465640000006044820152606401610323565b60008054906101000a90046001600160a01b03166001600160a01b0316638da5cb5b6040518163ffffffff1660e01b8152600401602060405180830381865afa158015610e2d573d6000803e3d6000fd5b505050506040513d601f19601f82011682018060405250810190610e5191906118e3565b6001600160a01b0316336001600160a01b03161480610e785750336001600160a01b038416145b610ee35760405162461bcd60e51b815260206004820152603660248201527f4f6e6c79206f776e6572206f72206f7267616e697a6174696f6e2063616e2070604482015275726f636573732072656d61696e696e672066756e647360501b6064820152608401610323565b600082815b600089815260026020526040902054811015610f9b576000898152600260205260409020805482908110610f1e57610f1e611ab2565b600091825260209091206003600490920201015460ff1615610f935760008981526002602052604090208054612710919083908110610f5f57610f5f611ab2565b90600052602060002090600402016002015483610f7c9190611b4a565b610f869190611b67565b610f909084611bb5565b92505b600101610ee8565b506000610fa88383611ba2565b905080156111275760008060009054906101000a90046001600160a01b03166001600160a01b0316638da5cb5b6040518163ffffffff1660e01b8152600401602060405180830381865afa158015611004573d6000803e3d6000fd5b505050506040513d601f19601f8201168201806040525081019061102891906118e3565b6001600160a01b0316336001600160a01b031614905080156110e957600080546040516001600160a01b039091169084908381818185875af1925050503d8060008114611091576040519150601f19603f3d011682016040523d82523d6000602084013e611096565b606091505b50509050806110e75760405162461bcd60e51b815260206004820152601e60248201527f4661696c656420746f2073656e642072656d61696e696e672066756e647300006044820152606401610323565b505b897f44d6bc28a22861f3e2375c0b7f244fac349c8106e123d6e745c675b1acd282ed8260405161111d911515815260200190565b60405180910390a2505b505050505050505050565b600154604051630646a9d360e51b81526004810185905260009182916001600160a01b039091169063c8d53a6090602401600060405180830381865afa158015611180573d6000803e3d6000fd5b505050506040513d6000823e601f3d908101601f191682016040526111a89190810190611971565b50995050505050505050509150816001600160a01b0316336001600160a01b0316146111e65760405162461bcd60e51b815260040161032390611ac8565b60018160048111156111fa576111fa611a6d565b14806112175750600281600481111561121557611215611a6d565b145b6112335760405162461bcd60e51b815260040161032390611a83565b82518451146112845760405162461bcd60e51b815260206004820152601b60248201527f417272617973206d757374206d6174636820696e206c656e67746800000000006044820152606401610323565b600085815260026020526040902054156112f25760405162461bcd60e51b815260206004820152602960248201527f4d696c6573746f6e657320616c726561647920657869737420666f72207468696044820152681cc81c995c5d595cdd60ba1b6064820152608401610323565b6000805b845181101561132e5784818151811061131157611311611ab2565b6020026020010151826113249190611bb5565b91506001016112f6565b50806127101461138e5760405162461bcd60e51b815260206004820152602560248201527f4d696c6573746f6e652070657263656e7461676573206d75737420746f74616c604482015264203130302560d81b6064820152608401610323565b60005b85518110156114f457600260008881526020019081526020016000206040518060a001604052808981526020018884815181106113d0576113d0611ab2565b602002602001015181526020018784815181106113ef576113ef611ab2565b602090810291909101810151825260008282018190526040909201829052835460018181018655948352918190208351600490930201918255820151919290919082019061143d9082611c17565b506040820151600282015560608201516003909101805460809093015115156101000261ff00199215159290921661ffff1990931692909217179055855187907f3d198c5d9c28f50bf234c9c1a9a84f7ed3a20d152833a06c844a8e897261abd29083908990829081106114b3576114b3611ab2565b60200260200101518885815181106114cd576114cd611ab2565b60200260200101516040516114e493929190611cd6565b60405180910390a2600101611391565b50505050505050565b6000806040838503121561151057600080fd5b50508035926020909101359150565b60005b8381101561153a578181015183820152602001611522565b50506000910152565b6000815180845261155b81602086016020860161151f565b601f01601f19169290920160200192915050565b85815260a06020820152600061158860a0830187611543565b6040830195909552509115156060830152151560809091015292915050565b6000602082840312156115b957600080fd5b5035919050565b6000602082016020835280845180835260408501915060408160051b86010192506020860160005b8281101561165257603f19878603018452815180518652602081015160a0602088015261161860a0880182611543565b60408381015190890152606080840151151590890152608092830151151592909701919091525060209384019391909101906001016115e8565b50929695505050505050565b634e487b7160e01b600052604160045260246000fd5b604051601f8201601f1916810167ffffffffffffffff8111828210171561169d5761169d61165e565b604052919050565b600067ffffffffffffffff8211156116bf576116bf61165e565b5060051b60200190565b600067ffffffffffffffff8211156116e3576116e361165e565b50601f01601f191660200190565b600082601f83011261170257600080fd5b8135611715611710826116a5565b611674565b8082825260208201915060208360051b86010192508583111561173757600080fd5b602085015b8381101561175457803583526020928301920161173c565b5095945050505050565b60008060006060848603121561177357600080fd5b83359250602084013567ffffffffffffffff81111561179157600080fd5b8401601f810186136117a257600080fd5b80356117b0611710826116a5565b8082825260208201915060208360051b8501019250888311156117d257600080fd5b602084015b8381101561185757803567ffffffffffffffff8111156117f657600080fd5b8501603f81018b1361180757600080fd5b6020810135611818611710826116c9565b8181526040838301018d101561182d57600080fd5b816040840160208301376000602083830101528086525050506020830192506020810190506117d7565b509450505050604084013567ffffffffffffffff81111561187757600080fd5b611883868287016116f1565b9150509250925092565b600181811c908216806118a157607f821691505b6020821081036118c157634e487b7160e01b600052602260045260246000fd5b50919050565b80516001600160a01b03811681146118de57600080fd5b919050565b6000602082840312156118f557600080fd5b6118fe826118c7565b9392505050565b600082601f83011261191657600080fd5b8151611924611710826116c9565b81815284602083860101111561193957600080fd5b61194a82602083016020870161151f565b949350505050565b8051600581106118de57600080fd5b805180151581146118de57600080fd5b60008060008060008060008060008060006101608c8e03121561199357600080fd5b61199c8c6118c7565b9a5060208c015167ffffffffffffffff8111156119b857600080fd5b6119c48e828f01611905565b9a505060408c015167ffffffffffffffff8111156119e157600080fd5b6119ed8e828f01611905565b995050600060608d0151905080985050600060808d0151905080975050600060a08d0151905080965050600060c08d0151905080955050600060e08d015190508094505060006101008d0151905080935050611a4c6101208d01611952565b9150611a5b6101408d01611961565b90509295989b509295989b9093969950565b634e487b7160e01b600052602160045260246000fd5b60208082526015908201527414995c5d595cdd081a5cc81b9bdd08199d5b991959605a1b604082015260600190565b634e487b7160e01b600052603260045260246000fd5b60208082526046908201527f4f6e6c7920746865206f7267616e697a6174696f6e207468617420637265617460408201527f6564207468697320726571756573742063616e2063616c6c20746869732066756060820152653731ba34b7b760d11b608082015260a00190565b634e487b7160e01b600052601160045260246000fd5b8082028115828204841417611b6157611b61611b34565b92915050565b600082611b8457634e487b7160e01b600052601260045260246000fd5b500490565b600060208284031215611b9b57600080fd5b5051919050565b81810381811115611b6157611b61611b34565b80820180821115611b6157611b61611b34565b601f821115611c1257806000526020600020601f840160051c81016020851015611bef5750805b601f840160051c820191505b81811015611c0f5760008155600101611bfb565b50505b505050565b815167ffffffffffffffff811115611c3157611c3161165e565b611c4581611c3f845461188d565b84611bc8565b6020601f821160018114611c795760008315611c615750848201515b600019600385901b1c1916600184901b178455611c0f565b600084815260208120601f198516915b82811015611ca95787850151825560209485019460019092019101611c89565b5084821015611cc75786840151600019600387901b60f8161c191681555b50505050600190811b01905550565b838152606060208201526000611cef6060830185611543565b905082604083015294935050505056fea2646970667358221220317542279c55560db0d85d10a01d55fa23d3e2c84bf87e6cff0af724a7b7b3c164736f6c634300081c0033",
  "linkReferences": {},
  "deployedLinkReferences": {}
}