{
  "contracts/Educatalyst.sol": {
    "EduCatalyst": {
      "abi": [
        {
          "inputs": [
            {
              "internalType": "uint256",
              "name": "_platformFeePercent",
              "type": "uint256"
            }
          ],
          "stateMutability": "nonpayable",
          "type": "constructor"
        },
        {
          "anonymous": false,
          "inputs": [
            {
              "indexed": true,
              "internalType": "uint256",
              "name": "requestId",
              "type": "uint256"
            },
            {
              "indexed": true,
              "internalType": "address",
              "name": "sponsor",
              "type": "address"
            },
            {
              "indexed": false,
              "internalType": "uint256",
              "name": "amount",
              "type": "uint256"
            }
          ],
          "name": "ContributionMade",
          "type": "event"
        },
        {
          "anonymous": false,
          "inputs": [
            {
              "indexed": true,
              "internalType": "uint256",
              "name": "requestId",
              "type": "uint256"
            },
            {
              "indexed": false,
              "internalType": "uint256",
              "name": "timestamp",
              "type": "uint256"
            }
          ],
          "name": "EventCompleted",
          "type": "event"
        },
        {
          "anonymous": false,
          "inputs": [
            {
              "indexed": true,
              "internalType": "uint256",
              "name": "requestId",
              "type": "uint256"
            },
            {
              "indexed": false,
              "internalType": "bool",
              "name": "success",
              "type": "bool"
            }
          ],
          "name": "EventVerified",
          "type": "event"
        },
        {
          "anonymous": false,
          "inputs": [
            {
              "indexed": true,
              "internalType": "uint256",
              "name": "requestId",
              "type": "uint256"
            },
            {
              "indexed": false,
              "internalType": "bool",
              "name": "proceedWithEvent",
              "type": "bool"
            }
          ],
          "name": "FundingDecisionMade",
          "type": "event"
        },
        {
          "anonymous": false,
          "inputs": [
            {
              "indexed": true,
              "internalType": "uint256",
              "name": "requestId",
              "type": "uint256"
            },
            {
              "indexed": false,
              "internalType": "uint256",
              "name": "currentAmount",
              "type": "uint256"
            },
            {
              "indexed": false,
              "internalType": "uint256",
              "name": "fundingGoal",
              "type": "uint256"
            }
          ],
          "name": "FundingDecisionRequired",
          "type": "event"
        },
        {
          "anonymous": false,
          "inputs": [
            {
              "indexed": true,
              "internalType": "uint256",
              "name": "requestId",
              "type": "uint256"
            }
          ],
          "name": "FundingGoalReached",
          "type": "event"
        },
        {
          "anonymous": false,
          "inputs": [
            {
              "indexed": true,
              "internalType": "uint256",
              "name": "requestId",
              "type": "uint256"
            }
          ],
          "name": "FundingRequestCanceled",
          "type": "event"
        },
        {
          "anonymous": false,
          "inputs": [
            {
              "indexed": true,
              "internalType": "uint256",
              "name": "requestId",
              "type": "uint256"
            },
            {
              "indexed": true,
              "internalType": "address",
              "name": "orgAddress",
              "type": "address"
            },
            {
              "indexed": false,
              "internalType": "uint256",
              "name": "fundingGoal",
              "type": "uint256"
            },
            {
              "indexed": false,
              "internalType": "uint256",
              "name": "deadline",
              "type": "uint256"
            }
          ],
          "name": "FundingRequestCreated",
          "type": "event"
        },
        {
          "anonymous": false,
          "inputs": [
            {
              "indexed": true,
              "internalType": "uint256",
              "name": "requestId",
              "type": "uint256"
            },
            {
              "indexed": true,
              "internalType": "address",
              "name": "orgAddress",
              "type": "address"
            },
            {
              "indexed": false,
              "internalType": "uint256",
              "name": "amount",
              "type": "uint256"
            }
          ],
          "name": "FundsReleased",
          "type": "event"
        },
        {
          "anonymous": false,
          "inputs": [
            {
              "indexed": true,
              "internalType": "uint256",
              "name": "requestId",
              "type": "uint256"
            },
            {
              "indexed": false,
              "internalType": "uint256",
              "name": "milestoneIndex",
              "type": "uint256"
            }
          ],
          "name": "MilestoneApproved",
          "type": "event"
        },
        {
          "anonymous": false,
          "inputs": [
            {
              "indexed": true,
              "internalType": "address",
              "name": "orgAddress",
              "type": "address"
            },
            {
              "indexed": false,
              "internalType": "string",
              "name": "name",
              "type": "string"
            }
          ],
          "name": "OrganizationRegistered",
          "type": "event"
        },
        {
          "anonymous": false,
          "inputs": [
            {
              "indexed": true,
              "internalType": "address",
              "name": "orgAddress",
              "type": "address"
            },
            {
              "indexed": false,
              "internalType": "enum EduCatalyst.OrganizationStatus",
              "name": "status",
              "type": "uint8"
            }
          ],
          "name": "OrganizationVerified",
          "type": "event"
        },
        {
          "anonymous": false,
          "inputs": [
            {
              "indexed": true,
              "internalType": "uint256",
              "name": "requestId",
              "type": "uint256"
            },
            {
              "indexed": false,
              "internalType": "uint256",
              "name": "amount",
              "type": "uint256"
            }
          ],
          "name": "PartialFundingAccepted",
          "type": "event"
        },
        {
          "anonymous": false,
          "inputs": [
            {
              "indexed": true,
              "internalType": "uint256",
              "name": "requestId",
              "type": "uint256"
            },
            {
              "indexed": true,
              "internalType": "address",
              "name": "sponsor",
              "type": "address"
            },
            {
              "indexed": false,
              "internalType": "uint256",
              "name": "amount",
              "type": "uint256"
            }
          ],
          "name": "RefundIssued",
          "type": "event"
        },
        {
          "anonymous": false,
          "inputs": [
            {
              "indexed": true,
              "internalType": "uint256",
              "name": "requestId",
              "type": "uint256"
            },
            {
              "indexed": false,
              "internalType": "bool",
              "name": "returnedToSponsors",
              "type": "bool"
            }
          ],
          "name": "RemainingFundsProcessed",
          "type": "event"
        },
        {
          "inputs": [],
          "name": "MAX_FEE",
          "outputs": [
            {
              "internalType": "uint256",
              "name": "",
              "type": "uint256"
            }
          ],
          "stateMutability": "view",
          "type": "function"
        },
        {
          "inputs": [
            {
              "internalType": "uint256",
              "name": "_requestId",
              "type": "uint256"
            },
            {
              "internalType": "uint256",
              "name": "_milestoneIndex",
              "type": "uint256"
            }
          ],
          "name": "approveMilestone",
          "outputs": [],
          "stateMutability": "nonpayable",
          "type": "function"
        },
        {
          "inputs": [
            {
              "internalType": "uint256",
              "name": "_requestId",
              "type": "uint256"
            }
          ],
          "name": "autoProcessExpiredFunding",
          "outputs": [],
          "stateMutability": "nonpayable",
          "type": "function"
        },
        {
          "inputs": [
            {
              "internalType": "uint256",
              "name": "_requestId",
              "type": "uint256"
            }
          ],
          "name": "cancelFundingRequest",
          "outputs": [],
          "stateMutability": "nonpayable",
          "type": "function"
        },
        {
          "inputs": [
            {
              "internalType": "uint256",
              "name": "_requestId",
              "type": "uint256"
            }
          ],
          "name": "checkFundingDecisionRequired",
          "outputs": [],
          "stateMutability": "nonpayable",
          "type": "function"
        },
        {
          "inputs": [
            {
              "internalType": "uint256",
              "name": "_requestId",
              "type": "uint256"
            }
          ],
          "name": "contribute",
          "outputs": [],
          "stateMutability": "payable",
          "type": "function"
        },
        {
          "inputs": [
            {
              "internalType": "string",
              "name": "_title",
              "type": "string"
            },
            {
              "internalType": "string",
              "name": "_description",
              "type": "string"
            },
            {
              "internalType": "uint256",
              "name": "_fundingGoal",
              "type": "uint256"
            },
            {
              "internalType": "uint256",
              "name": "_minimumThreshold",
              "type": "uint256"
            },
            {
              "internalType": "uint256",
              "name": "_deadline",
              "type": "uint256"
            },
            {
              "internalType": "uint256",
              "name": "_eventStart",
              "type": "uint256"
            },
            {
              "internalType": "uint256",
              "name": "_eventEnd",
              "type": "uint256"
            },
            {
              "internalType": "string[]",
              "name": "_milestoneDescriptions",
              "type": "string[]"
            },
            {
              "internalType": "uint256[]",
              "name": "_milestonePercentages",
              "type": "uint256[]"
            }
          ],
          "name": "createFundingRequest",
          "outputs": [],
          "stateMutability": "nonpayable",
          "type": "function"
        },
        {
          "inputs": [
            {
              "internalType": "uint256",
              "name": "",
              "type": "uint256"
            }
          ],
          "name": "fundingRequests",
          "outputs": [
            {
              "internalType": "uint256",
              "name": "id",
              "type": "uint256"
            },
            {
              "internalType": "address payable",
              "name": "orgAddress",
              "type": "address"
            },
            {
              "internalType": "string",
              "name": "title",
              "type": "string"
            },
            {
              "internalType": "string",
              "name": "description",
              "type": "string"
            },
            {
              "internalType": "uint256",
              "name": "fundingGoal",
              "type": "uint256"
            },
            {
              "internalType": "uint256",
              "name": "minimumThreshold",
              "type": "uint256"
            },
            {
              "internalType": "uint256",
              "name": "currentAmount",
              "type": "uint256"
            },
            {
              "internalType": "uint256",
              "name": "deadline",
              "type": "uint256"
            },
            {
              "internalType": "uint256",
              "name": "eventStart",
              "type": "uint256"
            },
            {
              "internalType": "uint256",
              "name": "eventEnd",
              "type": "uint256"
            },
            {
              "internalType": "enum EduCatalyst.FundingStatus",
              "name": "status",
              "type": "uint8"
            },
            {
              "internalType": "bool",
              "name": "eventCompleted",
              "type": "bool"
            },
            {
              "internalType": "bool",
              "name": "exists",
              "type": "bool"
            }
          ],
          "stateMutability": "view",
          "type": "function"
        },
        {
          "inputs": [],
          "name": "getAllOrganizations",
          "outputs": [
            {
              "internalType": "address[]",
              "name": "",
              "type": "address[]"
            }
          ],
          "stateMutability": "view",
          "type": "function"
        },
        {
          "inputs": [
            {
              "internalType": "uint256",
              "name": "_requestId",
              "type": "uint256"
            },
            {
              "internalType": "address",
              "name": "_sponsor",
              "type": "address"
            }
          ],
          "name": "getContribution",
          "outputs": [
            {
              "internalType": "uint256",
              "name": "",
              "type": "uint256"
            }
          ],
          "stateMutability": "view",
          "type": "function"
        },
        {
          "inputs": [
            {
              "internalType": "uint256",
              "name": "_requestId",
              "type": "uint256"
            }
          ],
          "name": "getMilestones",
          "outputs": [
            {
              "components": [
                {
                  "internalType": "string",
                  "name": "description",
                  "type": "string"
                },
                {
                  "internalType": "uint256",
                  "name": "percentage",
                  "type": "uint256"
                },
                {
                  "internalType": "bool",
                  "name": "released",
                  "type": "bool"
                },
                {
                  "internalType": "bool",
                  "name": "approved",
                  "type": "bool"
                }
              ],
              "internalType": "struct EduCatalyst.Milestone[]",
              "name": "",
              "type": "tuple[]"
            }
          ],
          "stateMutability": "view",
          "type": "function"
        },
        {
          "inputs": [],
          "name": "getMyRequestIds",
          "outputs": [
            {
              "internalType": "uint256[]",
              "name": "",
              "type": "uint256[]"
            }
          ],
          "stateMutability": "view",
          "type": "function"
        },
        {
          "inputs": [
            {
              "internalType": "uint256",
              "name": "_requestId",
              "type": "uint256"
            }
          ],
          "name": "getSponsors",
          "outputs": [
            {
              "internalType": "address[]",
              "name": "",
              "type": "address[]"
            }
          ],
          "stateMutability": "view",
          "type": "function"
        },
        {
          "inputs": [
            {
              "internalType": "uint256",
              "name": "_requestId",
              "type": "uint256"
            }
          ],
          "name": "isEventOverdue",
          "outputs": [
            {
              "internalType": "bool",
              "name": "",
              "type": "bool"
            }
          ],
          "stateMutability": "view",
          "type": "function"
        },
        {
          "inputs": [
            {
              "internalType": "uint256",
              "name": "_requestId",
              "type": "uint256"
            },
            {
              "internalType": "bool",
              "name": "_proceedWithEvent",
              "type": "bool"
            }
          ],
          "name": "makeFundingDecision",
          "outputs": [],
          "stateMutability": "nonpayable",
          "type": "function"
        },
        {
          "inputs": [
            {
              "internalType": "uint256",
              "name": "_requestId",
              "type": "uint256"
            },
            {
              "internalType": "bool",
              "name": "_success",
              "type": "bool"
            },
            {
              "internalType": "string",
              "name": "_evidenceUri",
              "type": "string"
            }
          ],
          "name": "markEventCompleted",
          "outputs": [],
          "stateMutability": "nonpayable",
          "type": "function"
        },
        {
          "inputs": [
            {
              "internalType": "address",
              "name": "",
              "type": "address"
            }
          ],
          "name": "organizations",
          "outputs": [
            {
              "internalType": "address payable",
              "name": "orgAddress",
              "type": "address"
            },
            {
              "internalType": "string",
              "name": "name",
              "type": "string"
            },
            {
              "internalType": "string",
              "name": "description",
              "type": "string"
            },
            {
              "internalType": "string",
              "name": "website",
              "type": "string"
            },
            {
              "internalType": "string",
              "name": "socialMedia",
              "type": "string"
            },
            {
              "internalType": "enum EduCatalyst.OrganizationStatus",
              "name": "verificationStatus",
              "type": "uint8"
            },
            {
              "internalType": "bool",
              "name": "exists",
              "type": "bool"
            }
          ],
          "stateMutability": "view",
          "type": "function"
        },
        {
          "inputs": [],
          "name": "owner",
          "outputs": [
            {
              "internalType": "address",
              "name": "",
              "type": "address"
            }
          ],
          "stateMutability": "view",
          "type": "function"
        },
        {
          "inputs": [],
          "name": "platformFeePercent",
          "outputs": [
            {
              "internalType": "uint256",
              "name": "",
              "type": "uint256"
            }
          ],
          "stateMutability": "view",
          "type": "function"
        },
        {
          "inputs": [
            {
              "internalType": "uint256",
              "name": "_requestId",
              "type": "uint256"
            }
          ],
          "name": "processRemainingFunds",
          "outputs": [],
          "stateMutability": "nonpayable",
          "type": "function"
        },
        {
          "inputs": [
            {
              "internalType": "string",
              "name": "_name",
              "type": "string"
            },
            {
              "internalType": "string",
              "name": "_description",
              "type": "string"
            },
            {
              "internalType": "string",
              "name": "_website",
              "type": "string"
            },
            {
              "internalType": "string",
              "name": "_socialMedia",
              "type": "string"
            }
          ],
          "name": "registerOrganization",
          "outputs": [],
          "stateMutability": "nonpayable",
          "type": "function"
        },
        {
          "inputs": [
            {
              "internalType": "uint256",
              "name": "",
              "type": "uint256"
            }
          ],
          "name": "registeredOrgs",
          "outputs": [
            {
              "internalType": "address",
              "name": "",
              "type": "address"
            }
          ],
          "stateMutability": "view",
          "type": "function"
        },
        {
          "inputs": [
            {
              "internalType": "uint256",
              "name": "_requestId",
              "type": "uint256"
            },
            {
              "internalType": "uint256",
              "name": "_milestoneIndex",
              "type": "uint256"
            }
          ],
          "name": "releaseMilestoneFunds",
          "outputs": [],
          "stateMutability": "nonpayable",
          "type": "function"
        },
        {
          "inputs": [],
          "name": "requestCount",
          "outputs": [
            {
              "internalType": "uint256",
              "name": "",
              "type": "uint256"
            }
          ],
          "stateMutability": "view",
          "type": "function"
        },
        {
          "inputs": [
            {
              "internalType": "address",
              "name": "_orgAddress",
              "type": "address"
            },
            {
              "internalType": "enum EduCatalyst.OrganizationStatus",
              "name": "_status",
              "type": "uint8"
            }
          ],
          "name": "updateOrganizationStatus",
          "outputs": [],
          "stateMutability": "nonpayable",
          "type": "function"
        },
        {
          "inputs": [
            {
              "internalType": "uint256",
              "name": "_newFeePercent",
              "type": "uint256"
            }
          ],
          "name": "updatePlatformFee",
          "outputs": [],
          "stateMutability": "nonpayable",
          "type": "function"
        }
      ],
      "evm": {
        "bytecode": {
          "linkReferences": {},
          "object": "6080604052348015600f57600080fd5b50604051613b63380380613b63833981016040819052602c91608f565b6101f481111560705760405162461bcd60e51b815260206004820152600c60248201526b08ccaca40e8dede40d0d2ced60a31b604482015260640160405180910390fd5b600080546001600160a01b0319163317815560019190915560055560a7565b60006020828403121560a057600080fd5b5051919050565b613aad806100b66000396000f3fe6080604052600436106101815760003560e01c80637af2055a116100d1578063ba5614861161008a578063d251990411610064578063d251990414610497578063d9de9901146104b7578063e081dbf9146104d7578063fb2efc01146104f757600080fd5b8063ba56148614610435578063bc063e1a1461046e578063c1cbbca71461048457600080fd5b80637af2055a1461037f5780637b333ed11461039f5780638c639a85146103bf5780638da5cb5b146103d5578063aa0b5988146103f5578063ba450ab41461041557600080fd5b806348a838d91161013e578063575f9df011610118578063575f9df0146102d85780635a1f7406146102f85780635badbe4c1461032b57806367e9668d1461034f57600080fd5b806348a838d914610278578063545c68d31461029857806357170ff0146102b857600080fd5b8063086ed9381461018657806320913da5146101b157806323707bc6146101d35780633de1bb151461020b578063408e20241461022b57806342c549c01461024b575b600080fd5b34801561019257600080fd5b5061019b610519565b6040516101a89190612fb0565b60405180910390f35b3480156101bd57600080fd5b506101d16101cc366004612ffc565b61057b565b005b3480156101df57600080fd5b506101f36101ee36600461301e565b61079e565b6040516001600160a01b0390911681526020016101a8565b34801561021757600080fd5b506101d1610226366004612ffc565b6107c8565b34801561023757600080fd5b506101d161024636600461301e565b610c11565b34801561025757600080fd5b5061026b61026636600461301e565b610cfa565b6040516101a8919061307d565b34801561028457600080fd5b506101d161029336600461301e565b610e61565b3480156102a457600080fd5b506101d16102b336600461301e565b6110b2565b3480156102c457600080fd5b506101d16102d336600461301e565b61132f565b3480156102e457600080fd5b506101d16102f336600461312c565b61176e565b34801561030457600080fd5b50610318610313366004613167565b61188f565b6040516101a897969594939291906131b3565b34801561033757600080fd5b5061034160055481565b6040519081526020016101a8565b34801561035b57600080fd5b5061036f61036a36600461301e565b611afa565b60405190151581526020016101a8565b34801561038b57600080fd5b506101d161039a3660046132fa565b611ba6565b3480156103ab57600080fd5b506101d16103ba366004613462565b611e18565b3480156103cb57600080fd5b5061034160015481565b3480156103e157600080fd5b506000546101f3906001600160a01b031681565b34801561040157600080fd5b506101d161041036600461301e565b61229d565b34801561042157600080fd5b5061019b61043036600461301e565b61230d565b34801561044157600080fd5b5061045561045036600461301e565b6123b6565b6040516101a89d9c9b9a9998979695949392919061354f565b34801561047a57600080fd5b506103416101f481565b6101d161049236600461301e565b61253c565b3480156104a357600080fd5b506101d16104b23660046135f6565b612796565b3480156104c357600080fd5b506101d16104d23660046136b2565b612981565b3480156104e357600080fd5b506103416104f23660046136de565b612dd7565b34801561050357600080fd5b5061050c612e3d565b6040516101a89190613701565b6060600480548060200260200160405190810160405280929190818152602001828054801561057157602002820191906000526020600020905b81546001600160a01b03168152600190910190602001808311610553575b5050505050905090565b6000546001600160a01b031633146105ae5760405162461bcd60e51b81526004016105a590613739565b60405180910390fd5b6000828152600360205260409020600e01548290610100900460ff166105e65760405162461bcd60e51b81526004016105a59061377a565b60008381526003602052604090206001600a82015460ff16600481111561060f5761060f613189565b148061063357506002600a82015460ff16600481111561063157610631613189565b145b6106775760405162461bcd60e51b815260206004820152601560248201527414995c5d595cdd081a5cc81b9bdd08199d5b991959605a1b60448201526064016105a5565b600b81015483106106c45760405162461bcd60e51b8152602060048201526017602482015276092dcecc2d8d2c840dad2d8cae6e8dedcca40d2dcc8caf604b1b60448201526064016105a5565b600081600b0184815481106106db576106db6137b1565b906000526020600020906003020190508060020160019054906101000a900460ff161561074a5760405162461bcd60e51b815260206004820152601a60248201527f4d696c6573746f6e6520616c726561647920617070726f76656400000000000060448201526064016105a5565b60028101805461ff00191661010017905560405185907f939da3b627c123c81fe5aacebf925163337a0d4f8a03724640618078cad248949061078f9087815260200190565b60405180910390a25050505050565b600481815481106107ae57600080fd5b6000918252602090912001546001600160a01b0316905081565b6000828152600360205260409020600e01548290610100900460ff166108005760405162461bcd60e51b81526004016105a59061377a565b60008381526003602052604090206001015483906001600160a01b0316331461083b5760405162461bcd60e51b81526004016105a5906137c7565b60008481526003602052604090206001600a82015460ff16600481111561086457610864613189565b148061088857506002600a82015460ff16600481111561088657610886613189565b145b6108cc5760405162461bcd60e51b815260206004820152601560248201527414995c5d595cdd081a5cc81b9bdd08199d5b991959605a1b60448201526064016105a5565b600b81015484106109195760405162461bcd60e51b8152602060048201526017602482015276092dcecc2d8d2c840dad2d8cae6e8dedcca40d2dcc8caf604b1b60448201526064016105a5565b600081600b018581548110610930576109306137b1565b906000526020600020906003020190508060020160019054906101000a900460ff1661099e5760405162461bcd60e51b815260206004820152601a60248201527f4d696c6573746f6e65206e6f7420617070726f7665642079657400000000000060448201526064016105a5565b600281015460ff1615610a055760405162461bcd60e51b815260206004820152602960248201527f46756e647320616c72656164792072656c656173656420666f722074686973206044820152686d696c6573746f6e6560b81b60648201526084016105a5565b600061271082600101548460060154610a1e9190613849565b610a289190613866565b9050600061271060015483610a3d9190613849565b610a479190613866565b90506000610a558284613888565b60028501805460ff191660019081179091558601546040519192506000916001600160a01b039091169083908381818185875af1925050503d8060008114610ab9576040519150601f19603f3d011682016040523d82523d6000602084013e610abe565b606091505b5050905080610b1b5760405162461bcd60e51b8152602060048201526024808201527f4661696c656420746f2073656e642066756e647320746f206f7267616e697a616044820152633a34b7b760e11b60648201526084016105a5565b600080546040516001600160a01b039091169085908381818185875af1925050503d8060008114610b68576040519150601f19603f3d011682016040523d82523d6000602084013e610b6d565b606091505b5050905080610bbe5760405162461bcd60e51b815260206004820152601b60248201527f4661696c656420746f2073656e6420706c6174666f726d20666565000000000060448201526064016105a5565b60018701546040518481526001600160a01b03909116908c907f6e3c6096795c8298a218b2cfb8bde42726ff7c9a3d27b4d3ba41ab7f74feb5fb9060200160405180910390a35050505050505050505050565b6000818152600360205260409020600e01548190610100900460ff16610c495760405162461bcd60e51b81526004016105a59061377a565b600082815260036020526040812090600a82015460ff166004811115610c7157610c71613189565b148015610c82575080600701544210155b8015610c915750806008015442105b8015610ca4575080600401548160060154105b15610cf557827f8a91e46d786d8f538629e214b62e7ed67786c45dbcde2488ecfe1de11e85b07782600601548360040154604051610cec929190918252602082015260400190565b60405180910390a25b505050565b6000818152600360205260409020600e01546060908290610100900460ff16610d355760405162461bcd60e51b81526004016105a59061377a565b6000838152600360209081526040808320600b0180548251818502810185019093528083529193909284015b82821015610e545783829060005260206000209060030201604051806080016040529081600082018054610d949061389b565b80601f0160208091040260200160405190810160405280929190818152602001828054610dc09061389b565b8015610e0d5780601f10610de257610100808354040283529160200191610e0d565b820191906000526020600020905b815481529060010190602001808311610df057829003601f168201915b505050918352505060018281015460208084019190915260029093015460ff8082161515604085015261010090910416151560609092019190915291835292019101610d61565b5050505091505b50919050565b6000818152600360205260409020600e01548190610100900460ff16610e995760405162461bcd60e51b81526004016105a59061377a565b60008281526003602052604090206001015482906001600160a01b03163314610ed45760405162461bcd60e51b81526004016105a5906137c7565b600083815260036020526040812090600a82015460ff166004811115610efc57610efc613189565b14610f5b5760405162461bcd60e51b815260206004820152602960248201527f43616e6e6f742063616e63656c2061207265717565737420746861742069736e60448201526827742061637469766560b81b60648201526084016105a5565b600a8101805460ff1916600417905560005b600c82015481101561108057600082600c018281548110610f9057610f906137b1565b60009182526020808320909101546001600160a01b0316808352600d86019091526040909120549091508015611076576001600160a01b0382166000818152600d860160205260408082208290555190919083908381818185875af1925050503d806000811461101c576040519150601f19603f3d011682016040523d82523d6000602084013e611021565b606091505b50509050806110425760405162461bcd60e51b81526004016105a5906138cf565b826001600160a01b031688600080516020613a588339815191528460405161106c91815260200190565b60405180910390a3505b5050600101610f6d565b5060405184907fb5b43989547011da0897c8feeacdf8746eacbc72c701dbcdd9a88ba4491e73c690600090a250505050565b6000818152600360205260409020600e01548190610100900460ff166110ea5760405162461bcd60e51b81526004016105a59061377a565b600082815260036020526040812090600a82015460ff16600481111561111257611112613189565b146111575760405162461bcd60e51b815260206004820152601560248201527452657175657374206973206e6f742061637469766560581b60448201526064016105a5565b80600801544210156111ab5760405162461bcd60e51b815260206004820152601960248201527f4576656e7420686173206e6f742073746172746564207965740000000000000060448201526064016105a5565b600a8101805460ff1916600417905560005b600c8201548110156112d057600082600c0182815481106111e0576111e06137b1565b60009182526020808320909101546001600160a01b0316808352600d860190915260409091205490915080156112c6576001600160a01b0382166000818152600d860160205260408082208290555190919083908381818185875af1925050503d806000811461126c576040519150601f19603f3d011682016040523d82523d6000602084013e611271565b606091505b50509050806112925760405162461bcd60e51b81526004016105a5906138cf565b826001600160a01b031687600080516020613a58833981519152846040516112bc91815260200190565b60405180910390a3505b50506001016111bd565b5060405183907fb5b43989547011da0897c8feeacdf8746eacbc72c701dbcdd9a88ba4491e73c690600090a26040516000815283907fcbe070ab725b0b5bdacb047035ffe5246a56f9c6de4da610652dec0333311e7990602001610cec565b6000818152600360205260409020600e01548190610100900460ff166113675760405162461bcd60e51b81526004016105a59061377a565b6000828152600360205260409020600e81015460ff1680611398575060098101546113959062278d006138fe565b42115b6113fe5760405162461bcd60e51b815260206004820152603160248201527f4576656e74206973206e6f7420636f6d706c65746564206f72206772616365206044820152701c195c9a5bd9081b9bdd081c185cdcd959607a1b60648201526084016105a5565b6001600a82015460ff16600481111561141957611419613189565b148061143d57506002600a82015460ff16600481111561143b5761143b613189565b145b6114825760405162461bcd60e51b815260206004820152601660248201527514995c5d595cdd081b5d5cdd08189948199d5b99195960521b60448201526064016105a5565b6000546001600160a01b03163314806114a7575060018101546001600160a01b031633145b6115125760405162461bcd60e51b815260206004820152603660248201527f4f6e6c79206f776e6572206f72206f7267616e697a6174696f6e2063616e2070604482015275726f636573732072656d61696e696e672066756e647360501b60648201526084016105a5565b6006810154600090815b600b8401548110156115ad5783600b01818154811061153d5761153d6137b1565b600091825260209091206002600390920201015460ff16156115a55761271084600b018281548110611571576115716137b1565b9060005260206000209060030201600101548361158e9190613849565b6115989190613866565b6115a290846138fe565b92505b60010161151c565b5060006115ba8383613888565b905080156117665760008460090154624f1a006115d791906138fe565b4211806115fd5750600e85015460ff1680156115fd57506000546001600160a01b031633145b905080156117285760005b600c86015481101561172657600086600c01828154811061162b5761162b6137b1565b60009182526020808320909101546001600160a01b0316808352600d8a01909152604090912054909150801561171c576000866116688388613849565b6116729190613866565b90506000836001600160a01b03168260405160006040518083038185875af1925050503d80600081146116c1576040519150601f19603f3d011682016040523d82523d6000602084013e6116c6565b606091505b50509050806116e75760405162461bcd60e51b81526004016105a5906138cf565b836001600160a01b03168c600080516020613a588339815191528460405161171191815260200190565b60405180910390a350505b5050600101611608565b505b867f44d6bc28a22861f3e2375c0b7f244fac349c8106e123d6e745c675b1acd282ed8260405161175c911515815260200190565b60405180910390a2505b505050505050565b6000546001600160a01b031633146117985760405162461bcd60e51b81526004016105a590613739565b6001600160a01b038216600090815260026020526040902060050154610100900460ff166118085760405162461bcd60e51b815260206004820152601b60248201527f4f7267616e697a6174696f6e20646f6573206e6f74206578697374000000000060448201526064016105a5565b6001600160a01b03821660009081526002602081905260409091206005018054839260ff1990911690600190849081111561184557611845613189565b0217905550816001600160a01b03167f9071f59203b36b863cb1a67a26002404be3e8cf68aa85b8b1f5fce694a87c8b2826040516118839190613911565b60405180910390a25050565b600260205260009081526040902080546001820180546001600160a01b0390921692916118bb9061389b565b80601f01602080910402602001604051908101604052809291908181526020018280546118e79061389b565b80156119345780601f1061190957610100808354040283529160200191611934565b820191906000526020600020905b81548152906001019060200180831161191757829003601f168201915b5050505050908060020180546119499061389b565b80601f01602080910402602001604051908101604052809291908181526020018280546119759061389b565b80156119c25780601f10611997576101008083540402835291602001916119c2565b820191906000526020600020905b8154815290600101906020018083116119a557829003601f168201915b5050505050908060030180546119d79061389b565b80601f0160208091040260200160405190810160405280929190818152602001828054611a039061389b565b8015611a505780601f10611a2557610100808354040283529160200191611a50565b820191906000526020600020905b815481529060010190602001808311611a3357829003601f168201915b505050505090806004018054611a659061389b565b80601f0160208091040260200160405190810160405280929190818152602001828054611a919061389b565b8015611ade5780601f10611ab357610100808354040283529160200191611ade565b820191906000526020600020905b815481529060010190602001808311611ac157829003601f168201915b5050506005909301549192505060ff8082169161010090041687565b6000818152600360205260408120600e01548290610100900460ff16611b325760405162461bcd60e51b81526004016105a59061377a565b6000838152600360205260409020600981015442118015611b585750600e81015460ff16155b8015611b9e57506001600a82015460ff166004811115611b7a57611b7a613189565b1480611b9e57506002600a82015460ff166004811115611b9c57611b9c613189565b145b949350505050565b6000838152600360205260409020600e01548390610100900460ff16611bde5760405162461bcd60e51b81526004016105a59061377a565b60008481526003602052604090206001015484906001600160a01b03163314611c195760405162461bcd60e51b81526004016105a5906137c7565b60008581526003602052604090206009810154421015611c855760405162461bcd60e51b815260206004820152602160248201527f4576656e7420656e64206461746520686173206e6f74207061737365642079656044820152601d60fa1b60648201526084016105a5565b600e81015460ff1615611ce45760405162461bcd60e51b815260206004820152602160248201527f4576656e7420616c7265616479206d61726b656420617320636f6d706c6574656044820152601960fa1b60648201526084016105a5565b6001600a82015460ff166004811115611cff57611cff613189565b1480611d2357506002600a82015460ff166004811115611d2157611d21613189565b145b611d835760405162461bcd60e51b815260206004820152602b60248201527f52657175657374206d7573742062652066756e64656420746f206d61726b206160448201526a1cc818dbdb5c1b195d195960aa1b60648201526084016105a5565b600e8101805460ff1916600117905560405186907fd0c6226532d32cb132032f6291291b0fbcbed8d78826dc075335925a1e82e9fb90611dc69042815260200190565b60405180910390a2857f3e7974cb8c7814ba32cbb7925a9e23ccf2a3eee3c6ece5eba091c524651d150386604051611e02911515815260200190565b60405180910390a284611766576117668661132f565b33600090815260026020526040902060050154610100900460ff16611e9c5760405162461bcd60e51b815260206004820152603460248201527f4f6e6c792072656769737465726564206f7267616e697a6174696f6e73206361604482015273371031b0b636103a3434b990333ab731ba34b7b760611b60648201526084016105a5565b612710861115611eee5760405162461bcd60e51b815260206004820152601c60248201527f5468726573686f6c642063616e6e6f742065786365656420313030250000000060448201526064016105a5565b428511611f3d5760405162461bcd60e51b815260206004820152601e60248201527f446561646c696e65206d75737420626520696e2074686520667574757265000060448201526064016105a5565b84841015611f9d5760405162461bcd60e51b815260206004820152602760248201527f4576656e74206d7573742073746172742061667465722066756e64696e6720646044820152666561646c696e6560c81b60648201526084016105a5565b838311611fec5760405162461bcd60e51b815260206004820152601d60248201527f4576656e7420656e64206d75737420626520616674657220737461727400000060448201526064016105a5565b805182511461203d5760405162461bcd60e51b815260206004820152601b60248201527f4d696c6573746f6e6520617272617973206d757374206d61746368000000000060448201526064016105a5565b6000805b82518110156120795782818151811061205c5761205c6137b1565b60200260200101518261206f91906138fe565b9150600101612041565b5080612710146120d95760405162461bcd60e51b815260206004820152602560248201527f4d696c6573746f6e652070657263656e7461676573206d75737420746f74616c604482015264203130302560d81b60648201526084016105a5565b600580549060006120e98361391f565b909155505060055460008181526003602052604090208181556001810180546001600160a01b03191633179055600281016121248d82613986565b50600381016121338c82613986565b50600481018a905560058101899055600060068201819055600782018990556008820188905560098201879055600a8201805460ff19169055600e8201805461ffff19166101001790555b85518110156122515781600b0160405180608001604052808884815181106121a8576121a86137b1565b602002602001015181526020018784815181106121c7576121c76137b1565b6020908102919091018101518252600082820181905260409092018290528354600181018555938252902081519192600302019081906122079082613986565b50602082015160018083019190915560408301516002909201805460609094015115156101000261ff00199315159390931661ffff1990941693909317919091179091550161217e565b50604080518b8152602081018a9052339184917fa995a99cd81d7f81abd4cb347b21641d59900a55f92298fc46ee911c3b89023e910160405180910390a3505050505050505050505050565b6000546001600160a01b031633146122c75760405162461bcd60e51b81526004016105a590613739565b6101f48111156123085760405162461bcd60e51b815260206004820152600c60248201526b08ccaca40e8dede40d0d2ced60a31b60448201526064016105a5565b600155565b6000818152600360205260409020600e01546060908290610100900460ff166123485760405162461bcd60e51b81526004016105a59061377a565b600083815260036020908152604091829020600c01805483518184028101840190945280845290918301828280156123a957602002820191906000526020600020905b81546001600160a01b0316815260019091019060200180831161238b575b5050505050915050919050565b60036020526000908152604090208054600182015460028301805492936001600160a01b03909216926123e89061389b565b80601f01602080910402602001604051908101604052809291908181526020018280546124149061389b565b80156124615780601f1061243657610100808354040283529160200191612461565b820191906000526020600020905b81548152906001019060200180831161244457829003601f168201915b5050505050908060030180546124769061389b565b80601f01602080910402602001604051908101604052809291908181526020018280546124a29061389b565b80156124ef5780601f106124c4576101008083540402835291602001916124ef565b820191906000526020600020905b8154815290600101906020018083116124d257829003601f168201915b505050600484015460058501546006860154600787015460088801546009890154600a8a0154600e909a0154989995989497509295509093909260ff91821691818116916101009004168d565b6000818152600360205260409020600e01548190610100900460ff166125745760405162461bcd60e51b81526004016105a59061377a565b600082815260036020526040812090600a82015460ff16600481111561259c5761259c613189565b146125e15760405162461bcd60e51b815260206004820152601560248201527446756e64696e67206973206e6f742061637469766560581b60448201526064016105a5565b806007015442106126345760405162461bcd60e51b815260206004820152601b60248201527f46756e64696e6720646561646c696e652068617320706173736564000000000060448201526064016105a5565b600034116126905760405162461bcd60e51b815260206004820152602360248201527f436f6e747269627574696f6e206d75737420626520677265617465722074686160448201526206e20360ec1b60648201526084016105a5565b336000908152600d8201602052604081205490036126d057600c81018054600181018255600091825260209091200180546001600160a01b031916331790555b336000908152600d82016020526040812080543492906126f19084906138fe565b925050819055503481600601600082825461270c91906138fe565b9091555050604051348152339084907f0a4a91237423e0a1766a761c7cb029311d8b95d6b1b81db1b949a70c98b4e08e9060200160405180910390a38060040154816006015410610cf557600a8101805460ff1916600117905560405183907fbdf8e8154212732e32053db049accdd4ff27639d7028ecf127e2353161b994bf90600090a2505050565b33600090815260026020526040902060050154610100900460ff16156127fe5760405162461bcd60e51b815260206004820152601f60248201527f4f7267616e697a6174696f6e20616c726561647920726567697374657265640060448201526064016105a5565b6040805160e08101825233815260208101869052908101849052606081018390526080810182905260a0810160008152600160209182018190523360009081526002835260409020835181546001600160a01b0319166001600160a01b0390911617815591830151908201906128749082613986565b50604082015160028201906128899082613986565b506060820151600382019061289e9082613986565b50608082015160048201906128b39082613986565b5060a082015160058201805460ff191660018360028111156128d7576128d7613189565b021790555060c09190910151600590910180549115156101000261ff0019909216919091179055600480546001810182556000919091527f8a35acfbc15ff81a39ae7d344fd709f28e8600b4aa8c65c6b64bfe7fe36bd19b0180546001600160a01b031916339081179091556040517f783e607e94efcb9adce3489c806008ddc378d784ae22a1f801458720054325a290612973908790613a44565b60405180910390a250505050565b6000828152600360205260409020600e01548290610100900460ff166129b95760405162461bcd60e51b81526004016105a59061377a565b60008381526003602052604090206001015483906001600160a01b031633146129f45760405162461bcd60e51b81526004016105a5906137c7565b600084815260036020526040812090600a82015460ff166004811115612a1c57612a1c613189565b14612a615760405162461bcd60e51b815260206004820152601560248201527452657175657374206973206e6f742061637469766560581b60448201526064016105a5565b8060070154421015612ac15760405162461bcd60e51b815260206004820152602360248201527f46756e64696e6720646561646c696e6520686173206e6f7420706173736564206044820152621e595d60ea1b60648201526084016105a5565b80600801544210612b145760405162461bcd60e51b815260206004820152601960248201527f4576656e742068617320616c726561647920737461727465640000000000000060448201526064016105a5565b8060040154816006015410612b6b5760405162461bcd60e51b815260206004820152601860248201527f46756e64696e6720676f616c20616c7265616479206d6574000000000000000060448201526064016105a5565b8315612c5157600081600401548260060154612710612b8a9190613849565b612b949190613866565b90508160050154811015612c025760405162461bcd60e51b815260206004820152602f60248201527f43757272656e742066756e64696e6720646f6573206e6f74206d656574206d6960448201526e1b9a5b5d5b481d1a1c995cda1bdb19608a1b60648201526084016105a5565b600a8201805460ff19166002179055600682015460405190815286907f8eccb522dda8c3ea7180ed6b8d995dbbefbe35fbadd88001ea5ffc9f5841d37a9060200160405180910390a250612da3565b600a8101805460ff1916600417905560005b600c820154811015612d7657600082600c018281548110612c8657612c866137b1565b60009182526020808320909101546001600160a01b0316808352600d86019091526040909120549091508015612d6c576001600160a01b0382166000818152600d860160205260408082208290555190919083908381818185875af1925050503d8060008114612d12576040519150601f19603f3d011682016040523d82523d6000602084013e612d17565b606091505b5050905080612d385760405162461bcd60e51b81526004016105a5906138cf565b826001600160a01b031689600080516020613a5883398151915284604051612d6291815260200190565b60405180910390a3505b5050600101612c63565b5060405185907fb5b43989547011da0897c8feeacdf8746eacbc72c701dbcdd9a88ba4491e73c690600090a25b847fcbe070ab725b0b5bdacb047035ffe5246a56f9c6de4da610652dec0333311e798560405161078f911515815260200190565b6000828152600360205260408120600e01548390610100900460ff16612e0f5760405162461bcd60e51b81526004016105a59061377a565b505060009182526003602090815260408084206001600160a01b03939093168452600d909201905290205490565b606060006005546001600160401b03811115612e5b57612e5b613245565b604051908082528060200260200182016040528015612e84578160200160208202803683370190505b509050600060015b6005548111612f17576000818152600360205260409020600e0154610100900460ff168015612ed457506000818152600360205260409020600101546001600160a01b031633145b15612f055780838381518110612eec57612eec6137b1565b602090810291909101015281612f018161391f565b9250505b80612f0f8161391f565b915050612e8c565b506000816001600160401b03811115612f3257612f32613245565b604051908082528060200260200182016040528015612f5b578160200160208202803683370190505b50905060005b82811015612fa857838181518110612f7b57612f7b6137b1565b6020026020010151828281518110612f9557612f956137b1565b6020908102919091010152600101612f61565b509392505050565b602080825282518282018190526000918401906040840190835b81811015612ff15783516001600160a01b0316835260209384019390920191600101612fca565b509095945050505050565b6000806040838503121561300f57600080fd5b50508035926020909101359150565b60006020828403121561303057600080fd5b5035919050565b6000815180845260005b8181101561305d57602081850181015186830182015201613041565b506000602082860101526020601f19601f83011685010191505092915050565b6000602082016020835280845180835260408501915060408160051b86010192506020860160005b8281101561310457603f1987860301845281518051608087526130cb6080880182613037565b602083810151898201526040808501511515908a01526060938401511515939098019290925250949384019391909101906001016130a5565b50929695505050505050565b80356001600160a01b038116811461312757600080fd5b919050565b6000806040838503121561313f57600080fd5b61314883613110565b915060208301356003811061315c57600080fd5b809150509250929050565b60006020828403121561317957600080fd5b61318282613110565b9392505050565b634e487b7160e01b600052602160045260246000fd5b600381106131af576131af613189565b9052565b6001600160a01b038816815260e0602082018190526000906131d790830189613037565b82810360408401526131e98189613037565b905082810360608401526131fd8188613037565b905082810360808401526132118187613037565b91505061322160a083018561319f565b82151560c083015298975050505050505050565b8035801515811461312757600080fd5b634e487b7160e01b600052604160045260246000fd5b604051601f8201601f191681016001600160401b038111828210171561328357613283613245565b604052919050565b600082601f83011261329c57600080fd5b81356001600160401b038111156132b5576132b5613245565b6132c8601f8201601f191660200161325b565b8181528460208386010111156132dd57600080fd5b816020850160208301376000918101602001919091529392505050565b60008060006060848603121561330f57600080fd5b8335925061331f60208501613235565b915060408401356001600160401b0381111561333a57600080fd5b6133468682870161328b565b9150509250925092565b60006001600160401b0382111561336957613369613245565b5060051b60200190565b600082601f83011261338457600080fd5b813561339761339282613350565b61325b565b8082825260208201915060208360051b8601019250858311156133b957600080fd5b602085015b838110156133fa5780356001600160401b038111156133dc57600080fd5b6133eb886020838a010161328b565b845250602092830192016133be565b5095945050505050565b600082601f83011261341557600080fd5b813561342361339282613350565b8082825260208201915060208360051b86010192508583111561344557600080fd5b602085015b838110156133fa57803583526020928301920161344a565b60008060008060008060008060006101208a8c03121561348157600080fd5b89356001600160401b0381111561349757600080fd5b6134a38c828d0161328b565b99505060208a01356001600160401b038111156134bf57600080fd5b6134cb8c828d0161328b565b98505060408a0135965060608a0135955060808a0135945060a08a0135935060c08a0135925060e08a01356001600160401b0381111561350a57600080fd5b6135168c828d01613373565b9250506101008a01356001600160401b0381111561353357600080fd5b61353f8c828d01613404565b9150509295985092959850929598565b8d81526001600160a01b038d1660208201526101a06040820181905260009061357a9083018e613037565b828103606084015261358c818e613037565b9150508a60808301528960a08301528860c08301528760e08301528661010083015285610120830152600585106135c5576135c5613189565b846101408301526135db61016083018515159052565b8215156101808301529e9d5050505050505050505050505050565b6000806000806080858703121561360c57600080fd5b84356001600160401b0381111561362257600080fd5b61362e8782880161328b565b94505060208501356001600160401b0381111561364a57600080fd5b6136568782880161328b565b93505060408501356001600160401b0381111561367257600080fd5b61367e8782880161328b565b92505060608501356001600160401b0381111561369a57600080fd5b6136a68782880161328b565b91505092959194509250565b600080604083850312156136c557600080fd5b823591506136d560208401613235565b90509250929050565b600080604083850312156136f157600080fd5b823591506136d560208401613110565b602080825282518282018190526000918401906040840190835b81811015612ff157835183526020938401939092019160010161371b565b60208082526021908201527f4f6e6c79206f776e65722063616e2063616c6c20746869732066756e6374696f6040820152603760f91b606082015260800190565b6020808252601e908201527f46756e64696e67207265717565737420646f6573206e6f742065786973740000604082015260600190565b634e487b7160e01b600052603260045260246000fd5b60208082526046908201527f4f6e6c7920746865206f7267616e697a6174696f6e207468617420637265617460408201527f6564207468697320726571756573742063616e2063616c6c20746869732066756060820152653731ba34b7b760d11b608082015260a00190565b634e487b7160e01b600052601160045260246000fd5b808202811582820484141761386057613860613833565b92915050565b60008261388357634e487b7160e01b600052601260045260246000fd5b500490565b8181038181111561386057613860613833565b600181811c908216806138af57607f821691505b602082108103610e5b57634e487b7160e01b600052602260045260246000fd5b60208082526015908201527411985a5b1959081d1bc81cd95b99081c99599d5b99605a1b604082015260600190565b8082018082111561386057613860613833565b60208101613860828461319f565b60006001820161393157613931613833565b5060010190565b601f821115610cf557806000526020600020601f840160051c8101602085101561395f5750805b601f840160051c820191505b8181101561397f576000815560010161396b565b5050505050565b81516001600160401b0381111561399f5761399f613245565b6139b3816139ad845461389b565b84613938565b6020601f8211600181146139e757600083156139cf5750848201515b600019600385901b1c1916600184901b17845561397f565b600084815260208120601f198516915b82811015613a1757878501518255602094850194600190920191016139f7565b5084821015613a355786840151600019600387901b60f8161c191681555b50505050600190811b01905550565b602081526000613182602083018461303756fe7a482fdeb6bc9a1376f597068a214a7a39472bb2eff1b8cad21ba04f49ddca1ba2646970667358221220eda23a209a992266dccca9f3581847f59c16028c547560245f8bc3e436fb96bd64736f6c634300081c0033",
          "opcodes": "PUSH1 0x80 PUSH1 0x40 MSTORE CALLVALUE DUP1 ISZERO PUSH1 0xF JUMPI PUSH1 0x0 DUP1 REVERT JUMPDEST POP PUSH1 0x40 MLOAD PUSH2 0x3B63 CODESIZE SUB DUP1 PUSH2 0x3B63 DUP4 CODECOPY DUP2 ADD PUSH1 0x40 DUP2 SWAP1 MSTORE PUSH1 0x2C SWAP2 PUSH1 0x8F JUMP JUMPDEST PUSH2 0x1F4 DUP2 GT ISZERO PUSH1 0x70 JUMPI PUSH1 0x40 MLOAD PUSH3 0x461BCD PUSH1 0xE5 SHL DUP2 MSTORE PUSH1 0x20 PUSH1 0x4 DUP3 ADD MSTORE PUSH1 0xC PUSH1 0x24 DUP3 ADD MSTORE PUSH12 0x8CCACA40E8DEDE40D0D2CED PUSH1 0xA3 SHL PUSH1 0x44 DUP3 ADD MSTORE PUSH1 0x64 ADD PUSH1 0x40 MLOAD DUP1 SWAP2 SUB SWAP1 REVERT JUMPDEST PUSH1 0x0 DUP1 SLOAD PUSH1 0x1 PUSH1 0x1 PUSH1 0xA0 SHL SUB NOT AND CALLER OR DUP2 SSTORE PUSH1 0x1 SWAP2 SWAP1 SWAP2 SSTORE PUSH1 0x5 SSTORE PUSH1 0xA7 JUMP JUMPDEST PUSH1 0x0 PUSH1 0x20 DUP3 DUP5 SUB SLT ISZERO PUSH1 0xA0 JUMPI PUSH1 0x0 DUP1 REVERT JUMPDEST POP MLOAD SWAP2 SWAP1 POP JUMP JUMPDEST PUSH2 0x3AAD DUP1 PUSH2 0xB6 PUSH1 0x0 CODECOPY PUSH1 0x0 RETURN INVALID PUSH1 0x80 PUSH1 0x40 MSTORE PUSH1 0x4 CALLDATASIZE LT PUSH2 0x181 JUMPI PUSH1 0x0 CALLDATALOAD PUSH1 0xE0 SHR DUP1 PUSH4 0x7AF2055A GT PUSH2 0xD1 JUMPI DUP1 PUSH4 0xBA561486 GT PUSH2 0x8A JUMPI DUP1 PUSH4 0xD2519904 GT PUSH2 0x64 JUMPI DUP1 PUSH4 0xD2519904 EQ PUSH2 0x497 JUMPI DUP1 PUSH4 0xD9DE9901 EQ PUSH2 0x4B7 JUMPI DUP1 PUSH4 0xE081DBF9 EQ PUSH2 0x4D7 JUMPI DUP1 PUSH4 0xFB2EFC01 EQ PUSH2 0x4F7 JUMPI PUSH1 0x0 DUP1 REVERT JUMPDEST DUP1 PUSH4 0xBA561486 EQ PUSH2 0x435 JUMPI DUP1 PUSH4 0xBC063E1A EQ PUSH2 0x46E JUMPI DUP1 PUSH4 0xC1CBBCA7 EQ PUSH2 0x484 JUMPI PUSH1 0x0 DUP1 REVERT JUMPDEST DUP1 PUSH4 0x7AF2055A EQ PUSH2 0x37F JUMPI DUP1 PUSH4 0x7B333ED1 EQ PUSH2 0x39F JUMPI DUP1 PUSH4 0x8C639A85 EQ PUSH2 0x3BF JUMPI DUP1 PUSH4 0x8DA5CB5B EQ PUSH2 0x3D5 JUMPI DUP1 PUSH4 0xAA0B5988 EQ PUSH2 0x3F5 JUMPI DUP1 PUSH4 0xBA450AB4 EQ PUSH2 0x415 JUMPI PUSH1 0x0 DUP1 REVERT JUMPDEST DUP1 PUSH4 0x48A838D9 GT PUSH2 0x13E JUMPI DUP1 PUSH4 0x575F9DF0 GT PUSH2 0x118 JUMPI DUP1 PUSH4 0x575F9DF0 EQ PUSH2 0x2D8 JUMPI DUP1 PUSH4 0x5A1F7406 EQ PUSH2 0x2F8 JUMPI DUP1 PUSH4 0x5BADBE4C EQ PUSH2 0x32B JUMPI DUP1 PUSH4 0x67E9668D EQ PUSH2 0x34F JUMPI PUSH1 0x0 DUP1 REVERT JUMPDEST DUP1 PUSH4 0x48A838D9 EQ PUSH2 0x278 JUMPI DUP1 PUSH4 0x545C68D3 EQ PUSH2 0x298 JUMPI DUP1 PUSH4 0x57170FF0 EQ PUSH2 0x2B8 JUMPI PUSH1 0x0 DUP1 REVERT JUMPDEST DUP1 PUSH4 0x86ED938 EQ PUSH2 0x186 JUMPI DUP1 PUSH4 0x20913DA5 EQ PUSH2 0x1B1 JUMPI DUP1 PUSH4 0x23707BC6 EQ PUSH2 0x1D3 JUMPI DUP1 PUSH4 0x3DE1BB15 EQ PUSH2 0x20B JUMPI DUP1 PUSH4 0x408E2024 EQ PUSH2 0x22B JUMPI DUP1 PUSH4 0x42C549C0 EQ PUSH2 0x24B JUMPI JUMPDEST PUSH1 0x0 DUP1 REVERT JUMPDEST CALLVALUE DUP1 ISZERO PUSH2 0x192 JUMPI PUSH1 0x0 DUP1 REVERT JUMPDEST POP PUSH2 0x19B PUSH2 0x519 JUMP JUMPDEST PUSH1 0x40 MLOAD PUSH2 0x1A8 SWAP2 SWAP1 PUSH2 0x2FB0 JUMP JUMPDEST PUSH1 0x40 MLOAD DUP1 SWAP2 SUB SWAP1 RETURN JUMPDEST CALLVALUE DUP1 ISZERO PUSH2 0x1BD JUMPI PUSH1 0x0 DUP1 REVERT JUMPDEST POP PUSH2 0x1D1 PUSH2 0x1CC CALLDATASIZE PUSH1 0x4 PUSH2 0x2FFC JUMP JUMPDEST PUSH2 0x57B JUMP JUMPDEST STOP JUMPDEST CALLVALUE DUP1 ISZERO PUSH2 0x1DF JUMPI PUSH1 0x0 DUP1 REVERT JUMPDEST POP PUSH2 0x1F3 PUSH2 0x1EE CALLDATASIZE PUSH1 0x4 PUSH2 0x301E JUMP JUMPDEST PUSH2 0x79E JUMP JUMPDEST PUSH1 0x40 MLOAD PUSH1 0x1 PUSH1 0x1 PUSH1 0xA0 SHL SUB SWAP1 SWAP2 AND DUP2 MSTORE PUSH1 0x20 ADD PUSH2 0x1A8 JUMP JUMPDEST CALLVALUE DUP1 ISZERO PUSH2 0x217 JUMPI PUSH1 0x0 DUP1 REVERT JUMPDEST POP PUSH2 0x1D1 PUSH2 0x226 CALLDATASIZE PUSH1 0x4 PUSH2 0x2FFC JUMP JUMPDEST PUSH2 0x7C8 JUMP JUMPDEST CALLVALUE DUP1 ISZERO PUSH2 0x237 JUMPI PUSH1 0x0 DUP1 REVERT JUMPDEST POP PUSH2 0x1D1 PUSH2 0x246 CALLDATASIZE PUSH1 0x4 PUSH2 0x301E JUMP JUMPDEST PUSH2 0xC11 JUMP JUMPDEST CALLVALUE DUP1 ISZERO PUSH2 0x257 JUMPI PUSH1 0x0 DUP1 REVERT JUMPDEST POP PUSH2 0x26B PUSH2 0x266 CALLDATASIZE PUSH1 0x4 PUSH2 0x301E JUMP JUMPDEST PUSH2 0xCFA JUMP JUMPDEST PUSH1 0x40 MLOAD PUSH2 0x1A8 SWAP2 SWAP1 PUSH2 0x307D JUMP JUMPDEST CALLVALUE DUP1 ISZERO PUSH2 0x284 JUMPI PUSH1 0x0 DUP1 REVERT JUMPDEST POP PUSH2 0x1D1 PUSH2 0x293 CALLDATASIZE PUSH1 0x4 PUSH2 0x301E JUMP JUMPDEST PUSH2 0xE61 JUMP JUMPDEST CALLVALUE DUP1 ISZERO PUSH2 0x2A4 JUMPI PUSH1 0x0 DUP1 REVERT JUMPDEST POP PUSH2 0x1D1 PUSH2 0x2B3 CALLDATASIZE PUSH1 0x4 PUSH2 0x301E JUMP JUMPDEST PUSH2 0x10B2 JUMP JUMPDEST CALLVALUE DUP1 ISZERO PUSH2 0x2C4 JUMPI PUSH1 0x0 DUP1 REVERT JUMPDEST POP PUSH2 0x1D1 PUSH2 0x2D3 CALLDATASIZE PUSH1 0x4 PUSH2 0x301E JUMP JUMPDEST PUSH2 0x132F JUMP JUMPDEST CALLVALUE DUP1 ISZERO PUSH2 0x2E4 JUMPI PUSH1 0x0 DUP1 REVERT JUMPDEST POP PUSH2 0x1D1 PUSH2 0x2F3 CALLDATASIZE PUSH1 0x4 PUSH2 0x312C JUMP JUMPDEST PUSH2 0x176E JUMP JUMPDEST CALLVALUE DUP1 ISZERO PUSH2 0x304 JUMPI PUSH1 0x0 DUP1 REVERT JUMPDEST POP PUSH2 0x318 PUSH2 0x313 CALLDATASIZE PUSH1 0x4 PUSH2 0x3167 JUMP JUMPDEST PUSH2 0x188F JUMP JUMPDEST PUSH1 0x40 MLOAD PUSH2 0x1A8 SWAP8 SWAP7 SWAP6 SWAP5 SWAP4 SWAP3 SWAP2 SWAP1 PUSH2 0x31B3 JUMP JUMPDEST CALLVALUE DUP1 ISZERO PUSH2 0x337 JUMPI PUSH1 0x0 DUP1 REVERT JUMPDEST POP PUSH2 0x341 PUSH1 0x5 SLOAD DUP2 JUMP JUMPDEST PUSH1 0x40 MLOAD SWAP1 DUP2 MSTORE PUSH1 0x20 ADD PUSH2 0x1A8 JUMP JUMPDEST CALLVALUE DUP1 ISZERO PUSH2 0x35B JUMPI PUSH1 0x0 DUP1 REVERT JUMPDEST POP PUSH2 0x36F PUSH2 0x36A CALLDATASIZE PUSH1 0x4 PUSH2 0x301E JUMP JUMPDEST PUSH2 0x1AFA JUMP JUMPDEST PUSH1 0x40 MLOAD SWAP1 ISZERO ISZERO DUP2 MSTORE PUSH1 0x20 ADD PUSH2 0x1A8 JUMP JUMPDEST CALLVALUE DUP1 ISZERO PUSH2 0x38B JUMPI PUSH1 0x0 DUP1 REVERT JUMPDEST POP PUSH2 0x1D1 PUSH2 0x39A CALLDATASIZE PUSH1 0x4 PUSH2 0x32FA JUMP JUMPDEST PUSH2 0x1BA6 JUMP JUMPDEST CALLVALUE DUP1 ISZERO PUSH2 0x3AB JUMPI PUSH1 0x0 DUP1 REVERT JUMPDEST POP PUSH2 0x1D1 PUSH2 0x3BA CALLDATASIZE PUSH1 0x4 PUSH2 0x3462 JUMP JUMPDEST PUSH2 0x1E18 JUMP JUMPDEST CALLVALUE DUP1 ISZERO PUSH2 0x3CB JUMPI PUSH1 0x0 DUP1 REVERT JUMPDEST POP PUSH2 0x341 PUSH1 0x1 SLOAD DUP2 JUMP JUMPDEST CALLVALUE DUP1 ISZERO PUSH2 0x3E1 JUMPI PUSH1 0x0 DUP1 REVERT JUMPDEST POP PUSH1 0x0 SLOAD PUSH2 0x1F3 SWAP1 PUSH1 0x1 PUSH1 0x1 PUSH1 0xA0 SHL SUB AND DUP2 JUMP JUMPDEST CALLVALUE DUP1 ISZERO PUSH2 0x401 JUMPI PUSH1 0x0 DUP1 REVERT JUMPDEST POP PUSH2 0x1D1 PUSH2 0x410 CALLDATASIZE PUSH1 0x4 PUSH2 0x301E JUMP JUMPDEST PUSH2 0x229D JUMP JUMPDEST CALLVALUE DUP1 ISZERO PUSH2 0x421 JUMPI PUSH1 0x0 DUP1 REVERT JUMPDEST POP PUSH2 0x19B PUSH2 0x430 CALLDATASIZE PUSH1 0x4 PUSH2 0x301E JUMP JUMPDEST PUSH2 0x230D JUMP JUMPDEST CALLVALUE DUP1 ISZERO PUSH2 0x441 JUMPI PUSH1 0x0 DUP1 REVERT JUMPDEST POP PUSH2 0x455 PUSH2 0x450 CALLDATASIZE PUSH1 0x4 PUSH2 0x301E JUMP JUMPDEST PUSH2 0x23B6 JUMP JUMPDEST PUSH1 0x40 MLOAD PUSH2 0x1A8 SWAP14 SWAP13 SWAP12 SWAP11 SWAP10 SWAP9 SWAP8 SWAP7 SWAP6 SWAP5 SWAP4 SWAP3 SWAP2 SWAP1 PUSH2 0x354F JUMP JUMPDEST CALLVALUE DUP1 ISZERO PUSH2 0x47A JUMPI PUSH1 0x0 DUP1 REVERT JUMPDEST POP PUSH2 0x341 PUSH2 0x1F4 DUP2 JUMP JUMPDEST PUSH2 0x1D1 PUSH2 0x492 CALLDATASIZE PUSH1 0x4 PUSH2 0x301E JUMP JUMPDEST PUSH2 0x253C JUMP JUMPDEST CALLVALUE DUP1 ISZERO PUSH2 0x4A3 JUMPI PUSH1 0x0 DUP1 REVERT JUMPDEST POP PUSH2 0x1D1 PUSH2 0x4B2 CALLDATASIZE PUSH1 0x4 PUSH2 0x35F6 JUMP JUMPDEST PUSH2 0x2796 JUMP JUMPDEST CALLVALUE DUP1 ISZERO PUSH2 0x4C3 JUMPI PUSH1 0x0 DUP1 REVERT JUMPDEST POP PUSH2 0x1D1 PUSH2 0x4D2 CALLDATASIZE PUSH1 0x4 PUSH2 0x36B2 JUMP JUMPDEST PUSH2 0x2981 JUMP JUMPDEST CALLVALUE DUP1 ISZERO PUSH2 0x4E3 JUMPI PUSH1 0x0 DUP1 REVERT JUMPDEST POP PUSH2 0x341 PUSH2 0x4F2 CALLDATASIZE PUSH1 0x4 PUSH2 0x36DE JUMP JUMPDEST PUSH2 0x2DD7 JUMP JUMPDEST CALLVALUE DUP1 ISZERO PUSH2 0x503 JUMPI PUSH1 0x0 DUP1 REVERT JUMPDEST POP PUSH2 0x50C PUSH2 0x2E3D JUMP JUMPDEST PUSH1 0x40 MLOAD PUSH2 0x1A8 SWAP2 SWAP1 PUSH2 0x3701 JUMP JUMPDEST PUSH1 0x60 PUSH1 0x4 DUP1 SLOAD DUP1 PUSH1 0x20 MUL PUSH1 0x20 ADD PUSH1 0x40 MLOAD SWAP1 DUP2 ADD PUSH1 0x40 MSTORE DUP1 SWAP3 SWAP2 SWAP1 DUP2 DUP2 MSTORE PUSH1 0x20 ADD DUP3 DUP1 SLOAD DUP1 ISZERO PUSH2 0x571 JUMPI PUSH1 0x20 MUL DUP3 ADD SWAP2 SWAP1 PUSH1 0x0 MSTORE PUSH1 0x20 PUSH1 0x0 KECCAK256 SWAP1 JUMPDEST DUP2 SLOAD PUSH1 0x1 PUSH1 0x1 PUSH1 0xA0 SHL SUB AND DUP2 MSTORE PUSH1 0x1 SWAP1 SWAP2 ADD SWAP1 PUSH1 0x20 ADD DUP1 DUP4 GT PUSH2 0x553 JUMPI JUMPDEST POP POP POP POP POP SWAP1 POP SWAP1 JUMP JUMPDEST PUSH1 0x0 SLOAD PUSH1 0x1 PUSH1 0x1 PUSH1 0xA0 SHL SUB AND CALLER EQ PUSH2 0x5AE JUMPI PUSH1 0x40 MLOAD PUSH3 0x461BCD PUSH1 0xE5 SHL DUP2 MSTORE PUSH1 0x4 ADD PUSH2 0x5A5 SWAP1 PUSH2 0x3739 JUMP JUMPDEST PUSH1 0x40 MLOAD DUP1 SWAP2 SUB SWAP1 REVERT JUMPDEST PUSH1 0x0 DUP3 DUP2 MSTORE PUSH1 0x3 PUSH1 0x20 MSTORE PUSH1 0x40 SWAP1 KECCAK256 PUSH1 0xE ADD SLOAD DUP3 SWAP1 PUSH2 0x100 SWAP1 DIV PUSH1 0xFF AND PUSH2 0x5E6 JUMPI PUSH1 0x40 MLOAD PUSH3 0x461BCD PUSH1 0xE5 SHL DUP2 MSTORE PUSH1 0x4 ADD PUSH2 0x5A5 SWAP1 PUSH2 0x377A JUMP JUMPDEST PUSH1 0x0 DUP4 DUP2 MSTORE PUSH1 0x3 PUSH1 0x20 MSTORE PUSH1 0x40 SWAP1 KECCAK256 PUSH1 0x1 PUSH1 0xA DUP3 ADD SLOAD PUSH1 0xFF AND PUSH1 0x4 DUP2 GT ISZERO PUSH2 0x60F JUMPI PUSH2 0x60F PUSH2 0x3189 JUMP JUMPDEST EQ DUP1 PUSH2 0x633 JUMPI POP PUSH1 0x2 PUSH1 0xA DUP3 ADD SLOAD PUSH1 0xFF AND PUSH1 0x4 DUP2 GT ISZERO PUSH2 0x631 JUMPI PUSH2 0x631 PUSH2 0x3189 JUMP JUMPDEST EQ JUMPDEST PUSH2 0x677 JUMPI PUSH1 0x40 MLOAD PUSH3 0x461BCD PUSH1 0xE5 SHL DUP2 MSTORE PUSH1 0x20 PUSH1 0x4 DUP3 ADD MSTORE PUSH1 0x15 PUSH1 0x24 DUP3 ADD MSTORE PUSH21 0x14995C5D595CDD081A5CC81B9BDD08199D5B991959 PUSH1 0x5A SHL PUSH1 0x44 DUP3 ADD MSTORE PUSH1 0x64 ADD PUSH2 0x5A5 JUMP JUMPDEST PUSH1 0xB DUP2 ADD SLOAD DUP4 LT PUSH2 0x6C4 JUMPI PUSH1 0x40 MLOAD PUSH3 0x461BCD PUSH1 0xE5 SHL DUP2 MSTORE PUSH1 0x20 PUSH1 0x4 DUP3 ADD MSTORE PUSH1 0x17 PUSH1 0x24 DUP3 ADD MSTORE PUSH23 0x92DCECC2D8D2C840DAD2D8CAE6E8DEDCCA40D2DCC8CAF PUSH1 0x4B SHL PUSH1 0x44 DUP3 ADD MSTORE PUSH1 0x64 ADD PUSH2 0x5A5 JUMP JUMPDEST PUSH1 0x0 DUP2 PUSH1 0xB ADD DUP5 DUP2 SLOAD DUP2 LT PUSH2 0x6DB JUMPI PUSH2 0x6DB PUSH2 0x37B1 JUMP JUMPDEST SWAP1 PUSH1 0x0 MSTORE PUSH1 0x20 PUSH1 0x0 KECCAK256 SWAP1 PUSH1 0x3 MUL ADD SWAP1 POP DUP1 PUSH1 0x2 ADD PUSH1 0x1 SWAP1 SLOAD SWAP1 PUSH2 0x100 EXP SWAP1 DIV PUSH1 0xFF AND ISZERO PUSH2 0x74A JUMPI PUSH1 0x40 MLOAD PUSH3 0x461BCD PUSH1 0xE5 SHL DUP2 MSTORE PUSH1 0x20 PUSH1 0x4 DUP3 ADD MSTORE PUSH1 0x1A PUSH1 0x24 DUP3 ADD MSTORE PUSH32 0x4D696C6573746F6E6520616C726561647920617070726F766564000000000000 PUSH1 0x44 DUP3 ADD MSTORE PUSH1 0x64 ADD PUSH2 0x5A5 JUMP JUMPDEST PUSH1 0x2 DUP2 ADD DUP1 SLOAD PUSH2 0xFF00 NOT AND PUSH2 0x100 OR SWAP1 SSTORE PUSH1 0x40 MLOAD DUP6 SWAP1 PUSH32 0x939DA3B627C123C81FE5AACEBF925163337A0D4F8A03724640618078CAD24894 SWAP1 PUSH2 0x78F SWAP1 DUP8 DUP2 MSTORE PUSH1 0x20 ADD SWAP1 JUMP JUMPDEST PUSH1 0x40 MLOAD DUP1 SWAP2 SUB SWAP1 LOG2 POP POP POP POP POP JUMP JUMPDEST PUSH1 0x4 DUP2 DUP2 SLOAD DUP2 LT PUSH2 0x7AE JUMPI PUSH1 0x0 DUP1 REVERT JUMPDEST PUSH1 0x0 SWAP2 DUP3 MSTORE PUSH1 0x20 SWAP1 SWAP2 KECCAK256 ADD SLOAD PUSH1 0x1 PUSH1 0x1 PUSH1 0xA0 SHL SUB AND SWAP1 POP DUP2 JUMP JUMPDEST PUSH1 0x0 DUP3 DUP2 MSTORE PUSH1 0x3 PUSH1 0x20 MSTORE PUSH1 0x40 SWAP1 KECCAK256 PUSH1 0xE ADD SLOAD DUP3 SWAP1 PUSH2 0x100 SWAP1 DIV PUSH1 0xFF AND PUSH2 0x800 JUMPI PUSH1 0x40 MLOAD PUSH3 0x461BCD PUSH1 0xE5 SHL DUP2 MSTORE PUSH1 0x4 ADD PUSH2 0x5A5 SWAP1 PUSH2 0x377A JUMP JUMPDEST PUSH1 0x0 DUP4 DUP2 MSTORE PUSH1 0x3 PUSH1 0x20 MSTORE PUSH1 0x40 SWAP1 KECCAK256 PUSH1 0x1 ADD SLOAD DUP4 SWAP1 PUSH1 0x1 PUSH1 0x1 PUSH1 0xA0 SHL SUB AND CALLER EQ PUSH2 0x83B JUMPI PUSH1 0x40 MLOAD PUSH3 0x461BCD PUSH1 0xE5 SHL DUP2 MSTORE PUSH1 0x4 ADD PUSH2 0x5A5 SWAP1 PUSH2 0x37C7 JUMP JUMPDEST PUSH1 0x0 DUP5 DUP2 MSTORE PUSH1 0x3 PUSH1 0x20 MSTORE PUSH1 0x40 SWAP1 KECCAK256 PUSH1 0x1 PUSH1 0xA DUP3 ADD SLOAD PUSH1 0xFF AND PUSH1 0x4 DUP2 GT ISZERO PUSH2 0x864 JUMPI PUSH2 0x864 PUSH2 0x3189 JUMP JUMPDEST EQ DUP1 PUSH2 0x888 JUMPI POP PUSH1 0x2 PUSH1 0xA DUP3 ADD SLOAD PUSH1 0xFF AND PUSH1 0x4 DUP2 GT ISZERO PUSH2 0x886 JUMPI PUSH2 0x886 PUSH2 0x3189 JUMP JUMPDEST EQ JUMPDEST PUSH2 0x8CC JUMPI PUSH1 0x40 MLOAD PUSH3 0x461BCD PUSH1 0xE5 SHL DUP2 MSTORE PUSH1 0x20 PUSH1 0x4 DUP3 ADD MSTORE PUSH1 0x15 PUSH1 0x24 DUP3 ADD MSTORE PUSH21 0x14995C5D595CDD081A5CC81B9BDD08199D5B991959 PUSH1 0x5A SHL PUSH1 0x44 DUP3 ADD MSTORE PUSH1 0x64 ADD PUSH2 0x5A5 JUMP JUMPDEST PUSH1 0xB DUP2 ADD SLOAD DUP5 LT PUSH2 0x919 JUMPI PUSH1 0x40 MLOAD PUSH3 0x461BCD PUSH1 0xE5 SHL DUP2 MSTORE PUSH1 0x20 PUSH1 0x4 DUP3 ADD MSTORE PUSH1 0x17 PUSH1 0x24 DUP3 ADD MSTORE PUSH23 0x92DCECC2D8D2C840DAD2D8CAE6E8DEDCCA40D2DCC8CAF PUSH1 0x4B SHL PUSH1 0x44 DUP3 ADD MSTORE PUSH1 0x64 ADD PUSH2 0x5A5 JUMP JUMPDEST PUSH1 0x0 DUP2 PUSH1 0xB ADD DUP6 DUP2 SLOAD DUP2 LT PUSH2 0x930 JUMPI PUSH2 0x930 PUSH2 0x37B1 JUMP JUMPDEST SWAP1 PUSH1 0x0 MSTORE PUSH1 0x20 PUSH1 0x0 KECCAK256 SWAP1 PUSH1 0x3 MUL ADD SWAP1 POP DUP1 PUSH1 0x2 ADD PUSH1 0x1 SWAP1 SLOAD SWAP1 PUSH2 0x100 EXP SWAP1 DIV PUSH1 0xFF AND PUSH2 0x99E JUMPI PUSH1 0x40 MLOAD PUSH3 0x461BCD PUSH1 0xE5 SHL DUP2 MSTORE PUSH1 0x20 PUSH1 0x4 DUP3 ADD MSTORE PUSH1 0x1A PUSH1 0x24 DUP3 ADD MSTORE PUSH32 0x4D696C6573746F6E65206E6F7420617070726F76656420796574000000000000 PUSH1 0x44 DUP3 ADD MSTORE PUSH1 0x64 ADD PUSH2 0x5A5 JUMP JUMPDEST PUSH1 0x2 DUP2 ADD SLOAD PUSH1 0xFF AND ISZERO PUSH2 0xA05 JUMPI PUSH1 0x40 MLOAD PUSH3 0x461BCD PUSH1 0xE5 SHL DUP2 MSTORE PUSH1 0x20 PUSH1 0x4 DUP3 ADD MSTORE PUSH1 0x29 PUSH1 0x24 DUP3 ADD MSTORE PUSH32 0x46756E647320616C72656164792072656C656173656420666F72207468697320 PUSH1 0x44 DUP3 ADD MSTORE PUSH9 0x6D696C6573746F6E65 PUSH1 0xB8 SHL PUSH1 0x64 DUP3 ADD MSTORE PUSH1 0x84 ADD PUSH2 0x5A5 JUMP JUMPDEST PUSH1 0x0 PUSH2 0x2710 DUP3 PUSH1 0x1 ADD SLOAD DUP5 PUSH1 0x6 ADD SLOAD PUSH2 0xA1E SWAP2 SWAP1 PUSH2 0x3849 JUMP JUMPDEST PUSH2 0xA28 SWAP2 SWAP1 PUSH2 0x3866 JUMP JUMPDEST SWAP1 POP PUSH1 0x0 PUSH2 0x2710 PUSH1 0x1 SLOAD DUP4 PUSH2 0xA3D SWAP2 SWAP1 PUSH2 0x3849 JUMP JUMPDEST PUSH2 0xA47 SWAP2 SWAP1 PUSH2 0x3866 JUMP JUMPDEST SWAP1 POP PUSH1 0x0 PUSH2 0xA55 DUP3 DUP5 PUSH2 0x3888 JUMP JUMPDEST PUSH1 0x2 DUP6 ADD DUP1 SLOAD PUSH1 0xFF NOT AND PUSH1 0x1 SWAP1 DUP2 OR SWAP1 SWAP2 SSTORE DUP7 ADD SLOAD PUSH1 0x40 MLOAD SWAP2 SWAP3 POP PUSH1 0x0 SWAP2 PUSH1 0x1 PUSH1 0x1 PUSH1 0xA0 SHL SUB SWAP1 SWAP2 AND SWAP1 DUP4 SWAP1 DUP4 DUP2 DUP2 DUP2 DUP6 DUP8 GAS CALL SWAP3 POP POP POP RETURNDATASIZE DUP1 PUSH1 0x0 DUP2 EQ PUSH2 0xAB9 JUMPI PUSH1 0x40 MLOAD SWAP2 POP PUSH1 0x1F NOT PUSH1 0x3F RETURNDATASIZE ADD AND DUP3 ADD PUSH1 0x40 MSTORE RETURNDATASIZE DUP3 MSTORE RETURNDATASIZE PUSH1 0x0 PUSH1 0x20 DUP5 ADD RETURNDATACOPY PUSH2 0xABE JUMP JUMPDEST PUSH1 0x60 SWAP2 POP JUMPDEST POP POP SWAP1 POP DUP1 PUSH2 0xB1B JUMPI PUSH1 0x40 MLOAD PUSH3 0x461BCD PUSH1 0xE5 SHL DUP2 MSTORE PUSH1 0x20 PUSH1 0x4 DUP3 ADD MSTORE PUSH1 0x24 DUP1 DUP3 ADD MSTORE PUSH32 0x4661696C656420746F2073656E642066756E647320746F206F7267616E697A61 PUSH1 0x44 DUP3 ADD MSTORE PUSH4 0x3A34B7B7 PUSH1 0xE1 SHL PUSH1 0x64 DUP3 ADD MSTORE PUSH1 0x84 ADD PUSH2 0x5A5 JUMP JUMPDEST PUSH1 0x0 DUP1 SLOAD PUSH1 0x40 MLOAD PUSH1 0x1 PUSH1 0x1 PUSH1 0xA0 SHL SUB SWAP1 SWAP2 AND SWAP1 DUP6 SWAP1 DUP4 DUP2 DUP2 DUP2 DUP6 DUP8 GAS CALL SWAP3 POP POP POP RETURNDATASIZE DUP1 PUSH1 0x0 DUP2 EQ PUSH2 0xB68 JUMPI PUSH1 0x40 MLOAD SWAP2 POP PUSH1 0x1F NOT PUSH1 0x3F RETURNDATASIZE ADD AND DUP3 ADD PUSH1 0x40 MSTORE RETURNDATASIZE DUP3 MSTORE RETURNDATASIZE PUSH1 0x0 PUSH1 0x20 DUP5 ADD RETURNDATACOPY PUSH2 0xB6D JUMP JUMPDEST PUSH1 0x60 SWAP2 POP JUMPDEST POP POP SWAP1 POP DUP1 PUSH2 0xBBE JUMPI PUSH1 0x40 MLOAD PUSH3 0x461BCD PUSH1 0xE5 SHL DUP2 MSTORE PUSH1 0x20 PUSH1 0x4 DUP3 ADD MSTORE PUSH1 0x1B PUSH1 0x24 DUP3 ADD MSTORE PUSH32 0x4661696C656420746F2073656E6420706C6174666F726D206665650000000000 PUSH1 0x44 DUP3 ADD MSTORE PUSH1 0x64 ADD PUSH2 0x5A5 JUMP JUMPDEST PUSH1 0x1 DUP8 ADD SLOAD PUSH1 0x40 MLOAD DUP5 DUP2 MSTORE PUSH1 0x1 PUSH1 0x1 PUSH1 0xA0 SHL SUB SWAP1 SWAP2 AND SWAP1 DUP13 SWAP1 PUSH32 0x6E3C6096795C8298A218B2CFB8BDE42726FF7C9A3D27B4D3BA41AB7F74FEB5FB SWAP1 PUSH1 0x20 ADD PUSH1 0x40 MLOAD DUP1 SWAP2 SUB SWAP1 LOG3 POP POP POP POP POP POP POP POP POP POP POP JUMP JUMPDEST PUSH1 0x0 DUP2 DUP2 MSTORE PUSH1 0x3 PUSH1 0x20 MSTORE PUSH1 0x40 SWAP1 KECCAK256 PUSH1 0xE ADD SLOAD DUP2 SWAP1 PUSH2 0x100 SWAP1 DIV PUSH1 0xFF AND PUSH2 0xC49 JUMPI PUSH1 0x40 MLOAD PUSH3 0x461BCD PUSH1 0xE5 SHL DUP2 MSTORE PUSH1 0x4 ADD PUSH2 0x5A5 SWAP1 PUSH2 0x377A JUMP JUMPDEST PUSH1 0x0 DUP3 DUP2 MSTORE PUSH1 0x3 PUSH1 0x20 MSTORE PUSH1 0x40 DUP2 KECCAK256 SWAP1 PUSH1 0xA DUP3 ADD SLOAD PUSH1 0xFF AND PUSH1 0x4 DUP2 GT ISZERO PUSH2 0xC71 JUMPI PUSH2 0xC71 PUSH2 0x3189 JUMP JUMPDEST EQ DUP1 ISZERO PUSH2 0xC82 JUMPI POP DUP1 PUSH1 0x7 ADD SLOAD TIMESTAMP LT ISZERO JUMPDEST DUP1 ISZERO PUSH2 0xC91 JUMPI POP DUP1 PUSH1 0x8 ADD SLOAD TIMESTAMP LT JUMPDEST DUP1 ISZERO PUSH2 0xCA4 JUMPI POP DUP1 PUSH1 0x4 ADD SLOAD DUP2 PUSH1 0x6 ADD SLOAD LT JUMPDEST ISZERO PUSH2 0xCF5 JUMPI DUP3 PUSH32 0x8A91E46D786D8F538629E214B62E7ED67786C45DBCDE2488ECFE1DE11E85B077 DUP3 PUSH1 0x6 ADD SLOAD DUP4 PUSH1 0x4 ADD SLOAD PUSH1 0x40 MLOAD PUSH2 0xCEC SWAP3 SWAP2 SWAP1 SWAP2 DUP3 MSTORE PUSH1 0x20 DUP3 ADD MSTORE PUSH1 0x40 ADD SWAP1 JUMP JUMPDEST PUSH1 0x40 MLOAD DUP1 SWAP2 SUB SWAP1 LOG2 JUMPDEST POP POP POP JUMP JUMPDEST PUSH1 0x0 DUP2 DUP2 MSTORE PUSH1 0x3 PUSH1 0x20 MSTORE PUSH1 0x40 SWAP1 KECCAK256 PUSH1 0xE ADD SLOAD PUSH1 0x60 SWAP1 DUP3 SWAP1 PUSH2 0x100 SWAP1 DIV PUSH1 0xFF AND PUSH2 0xD35 JUMPI PUSH1 0x40 MLOAD PUSH3 0x461BCD PUSH1 0xE5 SHL DUP2 MSTORE PUSH1 0x4 ADD PUSH2 0x5A5 SWAP1 PUSH2 0x377A JUMP JUMPDEST PUSH1 0x0 DUP4 DUP2 MSTORE PUSH1 0x3 PUSH1 0x20 SWAP1 DUP2 MSTORE PUSH1 0x40 DUP1 DUP4 KECCAK256 PUSH1 0xB ADD DUP1 SLOAD DUP3 MLOAD DUP2 DUP6 MUL DUP2 ADD DUP6 ADD SWAP1 SWAP4 MSTORE DUP1 DUP4 MSTORE SWAP2 SWAP4 SWAP1 SWAP3 DUP5 ADD JUMPDEST DUP3 DUP3 LT ISZERO PUSH2 0xE54 JUMPI DUP4 DUP3 SWAP1 PUSH1 0x0 MSTORE PUSH1 0x20 PUSH1 0x0 KECCAK256 SWAP1 PUSH1 0x3 MUL ADD PUSH1 0x40 MLOAD DUP1 PUSH1 0x80 ADD PUSH1 0x40 MSTORE SWAP1 DUP2 PUSH1 0x0 DUP3 ADD DUP1 SLOAD PUSH2 0xD94 SWAP1 PUSH2 0x389B JUMP JUMPDEST DUP1 PUSH1 0x1F ADD PUSH1 0x20 DUP1 SWAP2 DIV MUL PUSH1 0x20 ADD PUSH1 0x40 MLOAD SWAP1 DUP2 ADD PUSH1 0x40 MSTORE DUP1 SWAP3 SWAP2 SWAP1 DUP2 DUP2 MSTORE PUSH1 0x20 ADD DUP3 DUP1 SLOAD PUSH2 0xDC0 SWAP1 PUSH2 0x389B JUMP JUMPDEST DUP1 ISZERO PUSH2 0xE0D JUMPI DUP1 PUSH1 0x1F LT PUSH2 0xDE2 JUMPI PUSH2 0x100 DUP1 DUP4 SLOAD DIV MUL DUP4 MSTORE SWAP2 PUSH1 0x20 ADD SWAP2 PUSH2 0xE0D JUMP JUMPDEST DUP3 ADD SWAP2 SWAP1 PUSH1 0x0 MSTORE PUSH1 0x20 PUSH1 0x0 KECCAK256 SWAP1 JUMPDEST DUP2 SLOAD DUP2 MSTORE SWAP1 PUSH1 0x1 ADD SWAP1 PUSH1 0x20 ADD DUP1 DUP4 GT PUSH2 0xDF0 JUMPI DUP3 SWAP1 SUB PUSH1 0x1F AND DUP3 ADD SWAP2 JUMPDEST POP POP POP SWAP2 DUP4 MSTORE POP POP PUSH1 0x1 DUP3 DUP2 ADD SLOAD PUSH1 0x20 DUP1 DUP5 ADD SWAP2 SWAP1 SWAP2 MSTORE PUSH1 0x2 SWAP1 SWAP4 ADD SLOAD PUSH1 0xFF DUP1 DUP3 AND ISZERO ISZERO PUSH1 0x40 DUP6 ADD MSTORE PUSH2 0x100 SWAP1 SWAP2 DIV AND ISZERO ISZERO PUSH1 0x60 SWAP1 SWAP3 ADD SWAP2 SWAP1 SWAP2 MSTORE SWAP2 DUP4 MSTORE SWAP3 ADD SWAP2 ADD PUSH2 0xD61 JUMP JUMPDEST POP POP POP POP SWAP2 POP JUMPDEST POP SWAP2 SWAP1 POP JUMP JUMPDEST PUSH1 0x0 DUP2 DUP2 MSTORE PUSH1 0x3 PUSH1 0x20 MSTORE PUSH1 0x40 SWAP1 KECCAK256 PUSH1 0xE ADD SLOAD DUP2 SWAP1 PUSH2 0x100 SWAP1 DIV PUSH1 0xFF AND PUSH2 0xE99 JUMPI PUSH1 0x40 MLOAD PUSH3 0x461BCD PUSH1 0xE5 SHL DUP2 MSTORE PUSH1 0x4 ADD PUSH2 0x5A5 SWAP1 PUSH2 0x377A JUMP JUMPDEST PUSH1 0x0 DUP3 DUP2 MSTORE PUSH1 0x3 PUSH1 0x20 MSTORE PUSH1 0x40 SWAP1 KECCAK256 PUSH1 0x1 ADD SLOAD DUP3 SWAP1 PUSH1 0x1 PUSH1 0x1 PUSH1 0xA0 SHL SUB AND CALLER EQ PUSH2 0xED4 JUMPI PUSH1 0x40 MLOAD PUSH3 0x461BCD PUSH1 0xE5 SHL DUP2 MSTORE PUSH1 0x4 ADD PUSH2 0x5A5 SWAP1 PUSH2 0x37C7 JUMP JUMPDEST PUSH1 0x0 DUP4 DUP2 MSTORE PUSH1 0x3 PUSH1 0x20 MSTORE PUSH1 0x40 DUP2 KECCAK256 SWAP1 PUSH1 0xA DUP3 ADD SLOAD PUSH1 0xFF AND PUSH1 0x4 DUP2 GT ISZERO PUSH2 0xEFC JUMPI PUSH2 0xEFC PUSH2 0x3189 JUMP JUMPDEST EQ PUSH2 0xF5B JUMPI PUSH1 0x40 MLOAD PUSH3 0x461BCD PUSH1 0xE5 SHL DUP2 MSTORE PUSH1 0x20 PUSH1 0x4 DUP3 ADD MSTORE PUSH1 0x29 PUSH1 0x24 DUP3 ADD MSTORE PUSH32 0x43616E6E6F742063616E63656C2061207265717565737420746861742069736E PUSH1 0x44 DUP3 ADD MSTORE PUSH9 0x277420616374697665 PUSH1 0xB8 SHL PUSH1 0x64 DUP3 ADD MSTORE PUSH1 0x84 ADD PUSH2 0x5A5 JUMP JUMPDEST PUSH1 0xA DUP2 ADD DUP1 SLOAD PUSH1 0xFF NOT AND PUSH1 0x4 OR SWAP1 SSTORE PUSH1 0x0 JUMPDEST PUSH1 0xC DUP3 ADD SLOAD DUP2 LT ISZERO PUSH2 0x1080 JUMPI PUSH1 0x0 DUP3 PUSH1 0xC ADD DUP3 DUP2 SLOAD DUP2 LT PUSH2 0xF90 JUMPI PUSH2 0xF90 PUSH2 0x37B1 JUMP JUMPDEST PUSH1 0x0 SWAP2 DUP3 MSTORE PUSH1 0x20 DUP1 DUP4 KECCAK256 SWAP1 SWAP2 ADD SLOAD PUSH1 0x1 PUSH1 0x1 PUSH1 0xA0 SHL SUB AND DUP1 DUP4 MSTORE PUSH1 0xD DUP7 ADD SWAP1 SWAP2 MSTORE PUSH1 0x40 SWAP1 SWAP2 KECCAK256 SLOAD SWAP1 SWAP2 POP DUP1 ISZERO PUSH2 0x1076 JUMPI PUSH1 0x1 PUSH1 0x1 PUSH1 0xA0 SHL SUB DUP3 AND PUSH1 0x0 DUP2 DUP2 MSTORE PUSH1 0xD DUP7 ADD PUSH1 0x20 MSTORE PUSH1 0x40 DUP1 DUP3 KECCAK256 DUP3 SWAP1 SSTORE MLOAD SWAP1 SWAP2 SWAP1 DUP4 SWAP1 DUP4 DUP2 DUP2 DUP2 DUP6 DUP8 GAS CALL SWAP3 POP POP POP RETURNDATASIZE DUP1 PUSH1 0x0 DUP2 EQ PUSH2 0x101C JUMPI PUSH1 0x40 MLOAD SWAP2 POP PUSH1 0x1F NOT PUSH1 0x3F RETURNDATASIZE ADD AND DUP3 ADD PUSH1 0x40 MSTORE RETURNDATASIZE DUP3 MSTORE RETURNDATASIZE PUSH1 0x0 PUSH1 0x20 DUP5 ADD RETURNDATACOPY PUSH2 0x1021 JUMP JUMPDEST PUSH1 0x60 SWAP2 POP JUMPDEST POP POP SWAP1 POP DUP1 PUSH2 0x1042 JUMPI PUSH1 0x40 MLOAD PUSH3 0x461BCD PUSH1 0xE5 SHL DUP2 MSTORE PUSH1 0x4 ADD PUSH2 0x5A5 SWAP1 PUSH2 0x38CF JUMP JUMPDEST DUP3 PUSH1 0x1 PUSH1 0x1 PUSH1 0xA0 SHL SUB AND DUP9 PUSH1 0x0 DUP1 MLOAD PUSH1 0x20 PUSH2 0x3A58 DUP4 CODECOPY DUP2 MLOAD SWAP2 MSTORE DUP5 PUSH1 0x40 MLOAD PUSH2 0x106C SWAP2 DUP2 MSTORE PUSH1 0x20 ADD SWAP1 JUMP JUMPDEST PUSH1 0x40 MLOAD DUP1 SWAP2 SUB SWAP1 LOG3 POP JUMPDEST POP POP PUSH1 0x1 ADD PUSH2 0xF6D JUMP JUMPDEST POP PUSH1 0x40 MLOAD DUP5 SWAP1 PUSH32 0xB5B43989547011DA0897C8FEEACDF8746EACBC72C701DBCDD9A88BA4491E73C6 SWAP1 PUSH1 0x0 SWAP1 LOG2 POP POP POP POP JUMP JUMPDEST PUSH1 0x0 DUP2 DUP2 MSTORE PUSH1 0x3 PUSH1 0x20 MSTORE PUSH1 0x40 SWAP1 KECCAK256 PUSH1 0xE ADD SLOAD DUP2 SWAP1 PUSH2 0x100 SWAP1 DIV PUSH1 0xFF AND PUSH2 0x10EA JUMPI PUSH1 0x40 MLOAD PUSH3 0x461BCD PUSH1 0xE5 SHL DUP2 MSTORE PUSH1 0x4 ADD PUSH2 0x5A5 SWAP1 PUSH2 0x377A JUMP JUMPDEST PUSH1 0x0 DUP3 DUP2 MSTORE PUSH1 0x3 PUSH1 0x20 MSTORE PUSH1 0x40 DUP2 KECCAK256 SWAP1 PUSH1 0xA DUP3 ADD SLOAD PUSH1 0xFF AND PUSH1 0x4 DUP2 GT ISZERO PUSH2 0x1112 JUMPI PUSH2 0x1112 PUSH2 0x3189 JUMP JUMPDEST EQ PUSH2 0x1157 JUMPI PUSH1 0x40 MLOAD PUSH3 0x461BCD PUSH1 0xE5 SHL DUP2 MSTORE PUSH1 0x20 PUSH1 0x4 DUP3 ADD MSTORE PUSH1 0x15 PUSH1 0x24 DUP3 ADD MSTORE PUSH21 0x52657175657374206973206E6F7420616374697665 PUSH1 0x58 SHL PUSH1 0x44 DUP3 ADD MSTORE PUSH1 0x64 ADD PUSH2 0x5A5 JUMP JUMPDEST DUP1 PUSH1 0x8 ADD SLOAD TIMESTAMP LT ISZERO PUSH2 0x11AB JUMPI PUSH1 0x40 MLOAD PUSH3 0x461BCD PUSH1 0xE5 SHL DUP2 MSTORE PUSH1 0x20 PUSH1 0x4 DUP3 ADD MSTORE PUSH1 0x19 PUSH1 0x24 DUP3 ADD MSTORE PUSH32 0x4576656E7420686173206E6F7420737461727465642079657400000000000000 PUSH1 0x44 DUP3 ADD MSTORE PUSH1 0x64 ADD PUSH2 0x5A5 JUMP JUMPDEST PUSH1 0xA DUP2 ADD DUP1 SLOAD PUSH1 0xFF NOT AND PUSH1 0x4 OR SWAP1 SSTORE PUSH1 0x0 JUMPDEST PUSH1 0xC DUP3 ADD SLOAD DUP2 LT ISZERO PUSH2 0x12D0 JUMPI PUSH1 0x0 DUP3 PUSH1 0xC ADD DUP3 DUP2 SLOAD DUP2 LT PUSH2 0x11E0 JUMPI PUSH2 0x11E0 PUSH2 0x37B1 JUMP JUMPDEST PUSH1 0x0 SWAP2 DUP3 MSTORE PUSH1 0x20 DUP1 DUP4 KECCAK256 SWAP1 SWAP2 ADD SLOAD PUSH1 0x1 PUSH1 0x1 PUSH1 0xA0 SHL SUB AND DUP1 DUP4 MSTORE PUSH1 0xD DUP7 ADD SWAP1 SWAP2 MSTORE PUSH1 0x40 SWAP1 SWAP2 KECCAK256 SLOAD SWAP1 SWAP2 POP DUP1 ISZERO PUSH2 0x12C6 JUMPI PUSH1 0x1 PUSH1 0x1 PUSH1 0xA0 SHL SUB DUP3 AND PUSH1 0x0 DUP2 DUP2 MSTORE PUSH1 0xD DUP7 ADD PUSH1 0x20 MSTORE PUSH1 0x40 DUP1 DUP3 KECCAK256 DUP3 SWAP1 SSTORE MLOAD SWAP1 SWAP2 SWAP1 DUP4 SWAP1 DUP4 DUP2 DUP2 DUP2 DUP6 DUP8 GAS CALL SWAP3 POP POP POP RETURNDATASIZE DUP1 PUSH1 0x0 DUP2 EQ PUSH2 0x126C JUMPI PUSH1 0x40 MLOAD SWAP2 POP PUSH1 0x1F NOT PUSH1 0x3F RETURNDATASIZE ADD AND DUP3 ADD PUSH1 0x40 MSTORE RETURNDATASIZE DUP3 MSTORE RETURNDATASIZE PUSH1 0x0 PUSH1 0x20 DUP5 ADD RETURNDATACOPY PUSH2 0x1271 JUMP JUMPDEST PUSH1 0x60 SWAP2 POP JUMPDEST POP POP SWAP1 POP DUP1 PUSH2 0x1292 JUMPI PUSH1 0x40 MLOAD PUSH3 0x461BCD PUSH1 0xE5 SHL DUP2 MSTORE PUSH1 0x4 ADD PUSH2 0x5A5 SWAP1 PUSH2 0x38CF JUMP JUMPDEST DUP3 PUSH1 0x1 PUSH1 0x1 PUSH1 0xA0 SHL SUB AND DUP8 PUSH1 0x0 DUP1 MLOAD PUSH1 0x20 PUSH2 0x3A58 DUP4 CODECOPY DUP2 MLOAD SWAP2 MSTORE DUP5 PUSH1 0x40 MLOAD PUSH2 0x12BC SWAP2 DUP2 MSTORE PUSH1 0x20 ADD SWAP1 JUMP JUMPDEST PUSH1 0x40 MLOAD DUP1 SWAP2 SUB SWAP1 LOG3 POP JUMPDEST POP POP PUSH1 0x1 ADD PUSH2 0x11BD JUMP JUMPDEST POP PUSH1 0x40 MLOAD DUP4 SWAP1 PUSH32 0xB5B43989547011DA0897C8FEEACDF8746EACBC72C701DBCDD9A88BA4491E73C6 SWAP1 PUSH1 0x0 SWAP1 LOG2 PUSH1 0x40 MLOAD PUSH1 0x0 DUP2 MSTORE DUP4 SWAP1 PUSH32 0xCBE070AB725B0B5BDACB047035FFE5246A56F9C6DE4DA610652DEC0333311E79 SWAP1 PUSH1 0x20 ADD PUSH2 0xCEC JUMP JUMPDEST PUSH1 0x0 DUP2 DUP2 MSTORE PUSH1 0x3 PUSH1 0x20 MSTORE PUSH1 0x40 SWAP1 KECCAK256 PUSH1 0xE ADD SLOAD DUP2 SWAP1 PUSH2 0x100 SWAP1 DIV PUSH1 0xFF AND PUSH2 0x1367 JUMPI PUSH1 0x40 MLOAD PUSH3 0x461BCD PUSH1 0xE5 SHL DUP2 MSTORE PUSH1 0x4 ADD PUSH2 0x5A5 SWAP1 PUSH2 0x377A JUMP JUMPDEST PUSH1 0x0 DUP3 DUP2 MSTORE PUSH1 0x3 PUSH1 0x20 MSTORE PUSH1 0x40 SWAP1 KECCAK256 PUSH1 0xE DUP2 ADD SLOAD PUSH1 0xFF AND DUP1 PUSH2 0x1398 JUMPI POP PUSH1 0x9 DUP2 ADD SLOAD PUSH2 0x1395 SWAP1 PUSH3 0x278D00 PUSH2 0x38FE JUMP JUMPDEST TIMESTAMP GT JUMPDEST PUSH2 0x13FE JUMPI PUSH1 0x40 MLOAD PUSH3 0x461BCD PUSH1 0xE5 SHL DUP2 MSTORE PUSH1 0x20 PUSH1 0x4 DUP3 ADD MSTORE PUSH1 0x31 PUSH1 0x24 DUP3 ADD MSTORE PUSH32 0x4576656E74206973206E6F7420636F6D706C65746564206F7220677261636520 PUSH1 0x44 DUP3 ADD MSTORE PUSH17 0x1C195C9A5BD9081B9BDD081C185CDCD959 PUSH1 0x7A SHL PUSH1 0x64 DUP3 ADD MSTORE PUSH1 0x84 ADD PUSH2 0x5A5 JUMP JUMPDEST PUSH1 0x1 PUSH1 0xA DUP3 ADD SLOAD PUSH1 0xFF AND PUSH1 0x4 DUP2 GT ISZERO PUSH2 0x1419 JUMPI PUSH2 0x1419 PUSH2 0x3189 JUMP JUMPDEST EQ DUP1 PUSH2 0x143D JUMPI POP PUSH1 0x2 PUSH1 0xA DUP3 ADD SLOAD PUSH1 0xFF AND PUSH1 0x4 DUP2 GT ISZERO PUSH2 0x143B JUMPI PUSH2 0x143B PUSH2 0x3189 JUMP JUMPDEST EQ JUMPDEST PUSH2 0x1482 JUMPI PUSH1 0x40 MLOAD PUSH3 0x461BCD PUSH1 0xE5 SHL DUP2 MSTORE PUSH1 0x20 PUSH1 0x4 DUP3 ADD MSTORE PUSH1 0x16 PUSH1 0x24 DUP3 ADD MSTORE PUSH22 0x14995C5D595CDD081B5D5CDD08189948199D5B991959 PUSH1 0x52 SHL PUSH1 0x44 DUP3 ADD MSTORE PUSH1 0x64 ADD PUSH2 0x5A5 JUMP JUMPDEST PUSH1 0x0 SLOAD PUSH1 0x1 PUSH1 0x1 PUSH1 0xA0 SHL SUB AND CALLER EQ DUP1 PUSH2 0x14A7 JUMPI POP PUSH1 0x1 DUP2 ADD SLOAD PUSH1 0x1 PUSH1 0x1 PUSH1 0xA0 SHL SUB AND CALLER EQ JUMPDEST PUSH2 0x1512 JUMPI PUSH1 0x40 MLOAD PUSH3 0x461BCD PUSH1 0xE5 SHL DUP2 MSTORE PUSH1 0x20 PUSH1 0x4 DUP3 ADD MSTORE PUSH1 0x36 PUSH1 0x24 DUP3 ADD MSTORE PUSH32 0x4F6E6C79206F776E6572206F72206F7267616E697A6174696F6E2063616E2070 PUSH1 0x44 DUP3 ADD MSTORE PUSH22 0x726F636573732072656D61696E696E672066756E6473 PUSH1 0x50 SHL PUSH1 0x64 DUP3 ADD MSTORE PUSH1 0x84 ADD PUSH2 0x5A5 JUMP JUMPDEST PUSH1 0x6 DUP2 ADD SLOAD PUSH1 0x0 SWAP1 DUP2 JUMPDEST PUSH1 0xB DUP5 ADD SLOAD DUP2 LT ISZERO PUSH2 0x15AD JUMPI DUP4 PUSH1 0xB ADD DUP2 DUP2 SLOAD DUP2 LT PUSH2 0x153D JUMPI PUSH2 0x153D PUSH2 0x37B1 JUMP JUMPDEST PUSH1 0x0 SWAP2 DUP3 MSTORE PUSH1 0x20 SWAP1 SWAP2 KECCAK256 PUSH1 0x2 PUSH1 0x3 SWAP1 SWAP3 MUL ADD ADD SLOAD PUSH1 0xFF AND ISZERO PUSH2 0x15A5 JUMPI PUSH2 0x2710 DUP5 PUSH1 0xB ADD DUP3 DUP2 SLOAD DUP2 LT PUSH2 0x1571 JUMPI PUSH2 0x1571 PUSH2 0x37B1 JUMP JUMPDEST SWAP1 PUSH1 0x0 MSTORE PUSH1 0x20 PUSH1 0x0 KECCAK256 SWAP1 PUSH1 0x3 MUL ADD PUSH1 0x1 ADD SLOAD DUP4 PUSH2 0x158E SWAP2 SWAP1 PUSH2 0x3849 JUMP JUMPDEST PUSH2 0x1598 SWAP2 SWAP1 PUSH2 0x3866 JUMP JUMPDEST PUSH2 0x15A2 SWAP1 DUP5 PUSH2 0x38FE JUMP JUMPDEST SWAP3 POP JUMPDEST PUSH1 0x1 ADD PUSH2 0x151C JUMP JUMPDEST POP PUSH1 0x0 PUSH2 0x15BA DUP4 DUP4 PUSH2 0x3888 JUMP JUMPDEST SWAP1 POP DUP1 ISZERO PUSH2 0x1766 JUMPI PUSH1 0x0 DUP5 PUSH1 0x9 ADD SLOAD PUSH3 0x4F1A00 PUSH2 0x15D7 SWAP2 SWAP1 PUSH2 0x38FE JUMP JUMPDEST TIMESTAMP GT DUP1 PUSH2 0x15FD JUMPI POP PUSH1 0xE DUP6 ADD SLOAD PUSH1 0xFF AND DUP1 ISZERO PUSH2 0x15FD JUMPI POP PUSH1 0x0 SLOAD PUSH1 0x1 PUSH1 0x1 PUSH1 0xA0 SHL SUB AND CALLER EQ JUMPDEST SWAP1 POP DUP1 ISZERO PUSH2 0x1728 JUMPI PUSH1 0x0 JUMPDEST PUSH1 0xC DUP7 ADD SLOAD DUP2 LT ISZERO PUSH2 0x1726 JUMPI PUSH1 0x0 DUP7 PUSH1 0xC ADD DUP3 DUP2 SLOAD DUP2 LT PUSH2 0x162B JUMPI PUSH2 0x162B PUSH2 0x37B1 JUMP JUMPDEST PUSH1 0x0 SWAP2 DUP3 MSTORE PUSH1 0x20 DUP1 DUP4 KECCAK256 SWAP1 SWAP2 ADD SLOAD PUSH1 0x1 PUSH1 0x1 PUSH1 0xA0 SHL SUB AND DUP1 DUP4 MSTORE PUSH1 0xD DUP11 ADD SWAP1 SWAP2 MSTORE PUSH1 0x40 SWAP1 SWAP2 KECCAK256 SLOAD SWAP1 SWAP2 POP DUP1 ISZERO PUSH2 0x171C JUMPI PUSH1 0x0 DUP7 PUSH2 0x1668 DUP4 DUP9 PUSH2 0x3849 JUMP JUMPDEST PUSH2 0x1672 SWAP2 SWAP1 PUSH2 0x3866 JUMP JUMPDEST SWAP1 POP PUSH1 0x0 DUP4 PUSH1 0x1 PUSH1 0x1 PUSH1 0xA0 SHL SUB AND DUP3 PUSH1 0x40 MLOAD PUSH1 0x0 PUSH1 0x40 MLOAD DUP1 DUP4 SUB DUP2 DUP6 DUP8 GAS CALL SWAP3 POP POP POP RETURNDATASIZE DUP1 PUSH1 0x0 DUP2 EQ PUSH2 0x16C1 JUMPI PUSH1 0x40 MLOAD SWAP2 POP PUSH1 0x1F NOT PUSH1 0x3F RETURNDATASIZE ADD AND DUP3 ADD PUSH1 0x40 MSTORE RETURNDATASIZE DUP3 MSTORE RETURNDATASIZE PUSH1 0x0 PUSH1 0x20 DUP5 ADD RETURNDATACOPY PUSH2 0x16C6 JUMP JUMPDEST PUSH1 0x60 SWAP2 POP JUMPDEST POP POP SWAP1 POP DUP1 PUSH2 0x16E7 JUMPI PUSH1 0x40 MLOAD PUSH3 0x461BCD PUSH1 0xE5 SHL DUP2 MSTORE PUSH1 0x4 ADD PUSH2 0x5A5 SWAP1 PUSH2 0x38CF JUMP JUMPDEST DUP4 PUSH1 0x1 PUSH1 0x1 PUSH1 0xA0 SHL SUB AND DUP13 PUSH1 0x0 DUP1 MLOAD PUSH1 0x20 PUSH2 0x3A58 DUP4 CODECOPY DUP2 MLOAD SWAP2 MSTORE DUP5 PUSH1 0x40 MLOAD PUSH2 0x1711 SWAP2 DUP2 MSTORE PUSH1 0x20 ADD SWAP1 JUMP JUMPDEST PUSH1 0x40 MLOAD DUP1 SWAP2 SUB SWAP1 LOG3 POP POP JUMPDEST POP POP PUSH1 0x1 ADD PUSH2 0x1608 JUMP JUMPDEST POP JUMPDEST DUP7 PUSH32 0x44D6BC28A22861F3E2375C0B7F244FAC349C8106E123D6E745C675B1ACD282ED DUP3 PUSH1 0x40 MLOAD PUSH2 0x175C SWAP2 ISZERO ISZERO DUP2 MSTORE PUSH1 0x20 ADD SWAP1 JUMP JUMPDEST PUSH1 0x40 MLOAD DUP1 SWAP2 SUB SWAP1 LOG2 POP JUMPDEST POP POP POP POP POP POP JUMP JUMPDEST PUSH1 0x0 SLOAD PUSH1 0x1 PUSH1 0x1 PUSH1 0xA0 SHL SUB AND CALLER EQ PUSH2 0x1798 JUMPI PUSH1 0x40 MLOAD PUSH3 0x461BCD PUSH1 0xE5 SHL DUP2 MSTORE PUSH1 0x4 ADD PUSH2 0x5A5 SWAP1 PUSH2 0x3739 JUMP JUMPDEST PUSH1 0x1 PUSH1 0x1 PUSH1 0xA0 SHL SUB DUP3 AND PUSH1 0x0 SWAP1 DUP2 MSTORE PUSH1 0x2 PUSH1 0x20 MSTORE PUSH1 0x40 SWAP1 KECCAK256 PUSH1 0x5 ADD SLOAD PUSH2 0x100 SWAP1 DIV PUSH1 0xFF AND PUSH2 0x1808 JUMPI PUSH1 0x40 MLOAD PUSH3 0x461BCD PUSH1 0xE5 SHL DUP2 MSTORE PUSH1 0x20 PUSH1 0x4 DUP3 ADD MSTORE PUSH1 0x1B PUSH1 0x24 DUP3 ADD MSTORE PUSH32 0x4F7267616E697A6174696F6E20646F6573206E6F742065786973740000000000 PUSH1 0x44 DUP3 ADD MSTORE PUSH1 0x64 ADD PUSH2 0x5A5 JUMP JUMPDEST PUSH1 0x1 PUSH1 0x1 PUSH1 0xA0 SHL SUB DUP3 AND PUSH1 0x0 SWAP1 DUP2 MSTORE PUSH1 0x2 PUSH1 0x20 DUP2 SWAP1 MSTORE PUSH1 0x40 SWAP1 SWAP2 KECCAK256 PUSH1 0x5 ADD DUP1 SLOAD DUP4 SWAP3 PUSH1 0xFF NOT SWAP1 SWAP2 AND SWAP1 PUSH1 0x1 SWAP1 DUP5 SWAP1 DUP2 GT ISZERO PUSH2 0x1845 JUMPI PUSH2 0x1845 PUSH2 0x3189 JUMP JUMPDEST MUL OR SWAP1 SSTORE POP DUP2 PUSH1 0x1 PUSH1 0x1 PUSH1 0xA0 SHL SUB AND PUSH32 0x9071F59203B36B863CB1A67A26002404BE3E8CF68AA85B8B1F5FCE694A87C8B2 DUP3 PUSH1 0x40 MLOAD PUSH2 0x1883 SWAP2 SWAP1 PUSH2 0x3911 JUMP JUMPDEST PUSH1 0x40 MLOAD DUP1 SWAP2 SUB SWAP1 LOG2 POP POP JUMP JUMPDEST PUSH1 0x2 PUSH1 0x20 MSTORE PUSH1 0x0 SWAP1 DUP2 MSTORE PUSH1 0x40 SWAP1 KECCAK256 DUP1 SLOAD PUSH1 0x1 DUP3 ADD DUP1 SLOAD PUSH1 0x1 PUSH1 0x1 PUSH1 0xA0 SHL SUB SWAP1 SWAP3 AND SWAP3 SWAP2 PUSH2 0x18BB SWAP1 PUSH2 0x389B JUMP JUMPDEST DUP1 PUSH1 0x1F ADD PUSH1 0x20 DUP1 SWAP2 DIV MUL PUSH1 0x20 ADD PUSH1 0x40 MLOAD SWAP1 DUP2 ADD PUSH1 0x40 MSTORE DUP1 SWAP3 SWAP2 SWAP1 DUP2 DUP2 MSTORE PUSH1 0x20 ADD DUP3 DUP1 SLOAD PUSH2 0x18E7 SWAP1 PUSH2 0x389B JUMP JUMPDEST DUP1 ISZERO PUSH2 0x1934 JUMPI DUP1 PUSH1 0x1F LT PUSH2 0x1909 JUMPI PUSH2 0x100 DUP1 DUP4 SLOAD DIV MUL DUP4 MSTORE SWAP2 PUSH1 0x20 ADD SWAP2 PUSH2 0x1934 JUMP JUMPDEST DUP3 ADD SWAP2 SWAP1 PUSH1 0x0 MSTORE PUSH1 0x20 PUSH1 0x0 KECCAK256 SWAP1 JUMPDEST DUP2 SLOAD DUP2 MSTORE SWAP1 PUSH1 0x1 ADD SWAP1 PUSH1 0x20 ADD DUP1 DUP4 GT PUSH2 0x1917 JUMPI DUP3 SWAP1 SUB PUSH1 0x1F AND DUP3 ADD SWAP2 JUMPDEST POP POP POP POP POP SWAP1 DUP1 PUSH1 0x2 ADD DUP1 SLOAD PUSH2 0x1949 SWAP1 PUSH2 0x389B JUMP JUMPDEST DUP1 PUSH1 0x1F ADD PUSH1 0x20 DUP1 SWAP2 DIV MUL PUSH1 0x20 ADD PUSH1 0x40 MLOAD SWAP1 DUP2 ADD PUSH1 0x40 MSTORE DUP1 SWAP3 SWAP2 SWAP1 DUP2 DUP2 MSTORE PUSH1 0x20 ADD DUP3 DUP1 SLOAD PUSH2 0x1975 SWAP1 PUSH2 0x389B JUMP JUMPDEST DUP1 ISZERO PUSH2 0x19C2 JUMPI DUP1 PUSH1 0x1F LT PUSH2 0x1997 JUMPI PUSH2 0x100 DUP1 DUP4 SLOAD DIV MUL DUP4 MSTORE SWAP2 PUSH1 0x20 ADD SWAP2 PUSH2 0x19C2 JUMP JUMPDEST DUP3 ADD SWAP2 SWAP1 PUSH1 0x0 MSTORE PUSH1 0x20 PUSH1 0x0 KECCAK256 SWAP1 JUMPDEST DUP2 SLOAD DUP2 MSTORE SWAP1 PUSH1 0x1 ADD SWAP1 PUSH1 0x20 ADD DUP1 DUP4 GT PUSH2 0x19A5 JUMPI DUP3 SWAP1 SUB PUSH1 0x1F AND DUP3 ADD SWAP2 JUMPDEST POP POP POP POP POP SWAP1 DUP1 PUSH1 0x3 ADD DUP1 SLOAD PUSH2 0x19D7 SWAP1 PUSH2 0x389B JUMP JUMPDEST DUP1 PUSH1 0x1F ADD PUSH1 0x20 DUP1 SWAP2 DIV MUL PUSH1 0x20 ADD PUSH1 0x40 MLOAD SWAP1 DUP2 ADD PUSH1 0x40 MSTORE DUP1 SWAP3 SWAP2 SWAP1 DUP2 DUP2 MSTORE PUSH1 0x20 ADD DUP3 DUP1 SLOAD PUSH2 0x1A03 SWAP1 PUSH2 0x389B JUMP JUMPDEST DUP1 ISZERO PUSH2 0x1A50 JUMPI DUP1 PUSH1 0x1F LT PUSH2 0x1A25 JUMPI PUSH2 0x100 DUP1 DUP4 SLOAD DIV MUL DUP4 MSTORE SWAP2 PUSH1 0x20 ADD SWAP2 PUSH2 0x1A50 JUMP JUMPDEST DUP3 ADD SWAP2 SWAP1 PUSH1 0x0 MSTORE PUSH1 0x20 PUSH1 0x0 KECCAK256 SWAP1 JUMPDEST DUP2 SLOAD DUP2 MSTORE SWAP1 PUSH1 0x1 ADD SWAP1 PUSH1 0x20 ADD DUP1 DUP4 GT PUSH2 0x1A33 JUMPI DUP3 SWAP1 SUB PUSH1 0x1F AND DUP3 ADD SWAP2 JUMPDEST POP POP POP POP POP SWAP1 DUP1 PUSH1 0x4 ADD DUP1 SLOAD PUSH2 0x1A65 SWAP1 PUSH2 0x389B JUMP JUMPDEST DUP1 PUSH1 0x1F ADD PUSH1 0x20 DUP1 SWAP2 DIV MUL PUSH1 0x20 ADD PUSH1 0x40 MLOAD SWAP1 DUP2 ADD PUSH1 0x40 MSTORE DUP1 SWAP3 SWAP2 SWAP1 DUP2 DUP2 MSTORE PUSH1 0x20 ADD DUP3 DUP1 SLOAD PUSH2 0x1A91 SWAP1 PUSH2 0x389B JUMP JUMPDEST DUP1 ISZERO PUSH2 0x1ADE JUMPI DUP1 PUSH1 0x1F LT PUSH2 0x1AB3 JUMPI PUSH2 0x100 DUP1 DUP4 SLOAD DIV MUL DUP4 MSTORE SWAP2 PUSH1 0x20 ADD SWAP2 PUSH2 0x1ADE JUMP JUMPDEST DUP3 ADD SWAP2 SWAP1 PUSH1 0x0 MSTORE PUSH1 0x20 PUSH1 0x0 KECCAK256 SWAP1 JUMPDEST DUP2 SLOAD DUP2 MSTORE SWAP1 PUSH1 0x1 ADD SWAP1 PUSH1 0x20 ADD DUP1 DUP4 GT PUSH2 0x1AC1 JUMPI DUP3 SWAP1 SUB PUSH1 0x1F AND DUP3 ADD SWAP2 JUMPDEST POP POP POP PUSH1 0x5 SWAP1 SWAP4 ADD SLOAD SWAP2 SWAP3 POP POP PUSH1 0xFF DUP1 DUP3 AND SWAP2 PUSH2 0x100 SWAP1 DIV AND DUP8 JUMP JUMPDEST PUSH1 0x0 DUP2 DUP2 MSTORE PUSH1 0x3 PUSH1 0x20 MSTORE PUSH1 0x40 DUP2 KECCAK256 PUSH1 0xE ADD SLOAD DUP3 SWAP1 PUSH2 0x100 SWAP1 DIV PUSH1 0xFF AND PUSH2 0x1B32 JUMPI PUSH1 0x40 MLOAD PUSH3 0x461BCD PUSH1 0xE5 SHL DUP2 MSTORE PUSH1 0x4 ADD PUSH2 0x5A5 SWAP1 PUSH2 0x377A JUMP JUMPDEST PUSH1 0x0 DUP4 DUP2 MSTORE PUSH1 0x3 PUSH1 0x20 MSTORE PUSH1 0x40 SWAP1 KECCAK256 PUSH1 0x9 DUP2 ADD SLOAD TIMESTAMP GT DUP1 ISZERO PUSH2 0x1B58 JUMPI POP PUSH1 0xE DUP2 ADD SLOAD PUSH1 0xFF AND ISZERO JUMPDEST DUP1 ISZERO PUSH2 0x1B9E JUMPI POP PUSH1 0x1 PUSH1 0xA DUP3 ADD SLOAD PUSH1 0xFF AND PUSH1 0x4 DUP2 GT ISZERO PUSH2 0x1B7A JUMPI PUSH2 0x1B7A PUSH2 0x3189 JUMP JUMPDEST EQ DUP1 PUSH2 0x1B9E JUMPI POP PUSH1 0x2 PUSH1 0xA DUP3 ADD SLOAD PUSH1 0xFF AND PUSH1 0x4 DUP2 GT ISZERO PUSH2 0x1B9C JUMPI PUSH2 0x1B9C PUSH2 0x3189 JUMP JUMPDEST EQ JUMPDEST SWAP5 SWAP4 POP POP POP POP JUMP JUMPDEST PUSH1 0x0 DUP4 DUP2 MSTORE PUSH1 0x3 PUSH1 0x20 MSTORE PUSH1 0x40 SWAP1 KECCAK256 PUSH1 0xE ADD SLOAD DUP4 SWAP1 PUSH2 0x100 SWAP1 DIV PUSH1 0xFF AND PUSH2 0x1BDE JUMPI PUSH1 0x40 MLOAD PUSH3 0x461BCD PUSH1 0xE5 SHL DUP2 MSTORE PUSH1 0x4 ADD PUSH2 0x5A5 SWAP1 PUSH2 0x377A JUMP JUMPDEST PUSH1 0x0 DUP5 DUP2 MSTORE PUSH1 0x3 PUSH1 0x20 MSTORE PUSH1 0x40 SWAP1 KECCAK256 PUSH1 0x1 ADD SLOAD DUP5 SWAP1 PUSH1 0x1 PUSH1 0x1 PUSH1 0xA0 SHL SUB AND CALLER EQ PUSH2 0x1C19 JUMPI PUSH1 0x40 MLOAD PUSH3 0x461BCD PUSH1 0xE5 SHL DUP2 MSTORE PUSH1 0x4 ADD PUSH2 0x5A5 SWAP1 PUSH2 0x37C7 JUMP JUMPDEST PUSH1 0x0 DUP6 DUP2 MSTORE PUSH1 0x3 PUSH1 0x20 MSTORE PUSH1 0x40 SWAP1 KECCAK256 PUSH1 0x9 DUP2 ADD SLOAD TIMESTAMP LT ISZERO PUSH2 0x1C85 JUMPI PUSH1 0x40 MLOAD PUSH3 0x461BCD PUSH1 0xE5 SHL DUP2 MSTORE PUSH1 0x20 PUSH1 0x4 DUP3 ADD MSTORE PUSH1 0x21 PUSH1 0x24 DUP3 ADD MSTORE PUSH32 0x4576656E7420656E64206461746520686173206E6F7420706173736564207965 PUSH1 0x44 DUP3 ADD MSTORE PUSH1 0x1D PUSH1 0xFA SHL PUSH1 0x64 DUP3 ADD MSTORE PUSH1 0x84 ADD PUSH2 0x5A5 JUMP JUMPDEST PUSH1 0xE DUP2 ADD SLOAD PUSH1 0xFF AND ISZERO PUSH2 0x1CE4 JUMPI PUSH1 0x40 MLOAD PUSH3 0x461BCD PUSH1 0xE5 SHL DUP2 MSTORE PUSH1 0x20 PUSH1 0x4 DUP3 ADD MSTORE PUSH1 0x21 PUSH1 0x24 DUP3 ADD MSTORE PUSH32 0x4576656E7420616C7265616479206D61726B656420617320636F6D706C657465 PUSH1 0x44 DUP3 ADD MSTORE PUSH1 0x19 PUSH1 0xFA SHL PUSH1 0x64 DUP3 ADD MSTORE PUSH1 0x84 ADD PUSH2 0x5A5 JUMP JUMPDEST PUSH1 0x1 PUSH1 0xA DUP3 ADD SLOAD PUSH1 0xFF AND PUSH1 0x4 DUP2 GT ISZERO PUSH2 0x1CFF JUMPI PUSH2 0x1CFF PUSH2 0x3189 JUMP JUMPDEST EQ DUP1 PUSH2 0x1D23 JUMPI POP PUSH1 0x2 PUSH1 0xA DUP3 ADD SLOAD PUSH1 0xFF AND PUSH1 0x4 DUP2 GT ISZERO PUSH2 0x1D21 JUMPI PUSH2 0x1D21 PUSH2 0x3189 JUMP JUMPDEST EQ JUMPDEST PUSH2 0x1D83 JUMPI PUSH1 0x40 MLOAD PUSH3 0x461BCD PUSH1 0xE5 SHL DUP2 MSTORE PUSH1 0x20 PUSH1 0x4 DUP3 ADD MSTORE PUSH1 0x2B PUSH1 0x24 DUP3 ADD MSTORE PUSH32 0x52657175657374206D7573742062652066756E64656420746F206D61726B2061 PUSH1 0x44 DUP3 ADD MSTORE PUSH11 0x1CC818DBDB5C1B195D1959 PUSH1 0xAA SHL PUSH1 0x64 DUP3 ADD MSTORE PUSH1 0x84 ADD PUSH2 0x5A5 JUMP JUMPDEST PUSH1 0xE DUP2 ADD DUP1 SLOAD PUSH1 0xFF NOT AND PUSH1 0x1 OR SWAP1 SSTORE PUSH1 0x40 MLOAD DUP7 SWAP1 PUSH32 0xD0C6226532D32CB132032F6291291B0FBCBED8D78826DC075335925A1E82E9FB SWAP1 PUSH2 0x1DC6 SWAP1 TIMESTAMP DUP2 MSTORE PUSH1 0x20 ADD SWAP1 JUMP JUMPDEST PUSH1 0x40 MLOAD DUP1 SWAP2 SUB SWAP1 LOG2 DUP6 PUSH32 0x3E7974CB8C7814BA32CBB7925A9E23CCF2A3EEE3C6ECE5EBA091C524651D1503 DUP7 PUSH1 0x40 MLOAD PUSH2 0x1E02 SWAP2 ISZERO ISZERO DUP2 MSTORE PUSH1 0x20 ADD SWAP1 JUMP JUMPDEST PUSH1 0x40 MLOAD DUP1 SWAP2 SUB SWAP1 LOG2 DUP5 PUSH2 0x1766 JUMPI PUSH2 0x1766 DUP7 PUSH2 0x132F JUMP JUMPDEST CALLER PUSH1 0x0 SWAP1 DUP2 MSTORE PUSH1 0x2 PUSH1 0x20 MSTORE PUSH1 0x40 SWAP1 KECCAK256 PUSH1 0x5 ADD SLOAD PUSH2 0x100 SWAP1 DIV PUSH1 0xFF AND PUSH2 0x1E9C JUMPI PUSH1 0x40 MLOAD PUSH3 0x461BCD PUSH1 0xE5 SHL DUP2 MSTORE PUSH1 0x20 PUSH1 0x4 DUP3 ADD MSTORE PUSH1 0x34 PUSH1 0x24 DUP3 ADD MSTORE PUSH32 0x4F6E6C792072656769737465726564206F7267616E697A6174696F6E73206361 PUSH1 0x44 DUP3 ADD MSTORE PUSH20 0x371031B0B636103A3434B990333AB731BA34B7B7 PUSH1 0x61 SHL PUSH1 0x64 DUP3 ADD MSTORE PUSH1 0x84 ADD PUSH2 0x5A5 JUMP JUMPDEST PUSH2 0x2710 DUP7 GT ISZERO PUSH2 0x1EEE JUMPI PUSH1 0x40 MLOAD PUSH3 0x461BCD PUSH1 0xE5 SHL DUP2 MSTORE PUSH1 0x20 PUSH1 0x4 DUP3 ADD MSTORE PUSH1 0x1C PUSH1 0x24 DUP3 ADD MSTORE PUSH32 0x5468726573686F6C642063616E6E6F7420657863656564203130302500000000 PUSH1 0x44 DUP3 ADD MSTORE PUSH1 0x64 ADD PUSH2 0x5A5 JUMP JUMPDEST TIMESTAMP DUP6 GT PUSH2 0x1F3D JUMPI PUSH1 0x40 MLOAD PUSH3 0x461BCD PUSH1 0xE5 SHL DUP2 MSTORE PUSH1 0x20 PUSH1 0x4 DUP3 ADD MSTORE PUSH1 0x1E PUSH1 0x24 DUP3 ADD MSTORE PUSH32 0x446561646C696E65206D75737420626520696E20746865206675747572650000 PUSH1 0x44 DUP3 ADD MSTORE PUSH1 0x64 ADD PUSH2 0x5A5 JUMP JUMPDEST DUP5 DUP5 LT ISZERO PUSH2 0x1F9D JUMPI PUSH1 0x40 MLOAD PUSH3 0x461BCD PUSH1 0xE5 SHL DUP2 MSTORE PUSH1 0x20 PUSH1 0x4 DUP3 ADD MSTORE PUSH1 0x27 PUSH1 0x24 DUP3 ADD MSTORE PUSH32 0x4576656E74206D7573742073746172742061667465722066756E64696E672064 PUSH1 0x44 DUP3 ADD MSTORE PUSH7 0x6561646C696E65 PUSH1 0xC8 SHL PUSH1 0x64 DUP3 ADD MSTORE PUSH1 0x84 ADD PUSH2 0x5A5 JUMP JUMPDEST DUP4 DUP4 GT PUSH2 0x1FEC JUMPI PUSH1 0x40 MLOAD PUSH3 0x461BCD PUSH1 0xE5 SHL DUP2 MSTORE PUSH1 0x20 PUSH1 0x4 DUP3 ADD MSTORE PUSH1 0x1D PUSH1 0x24 DUP3 ADD MSTORE PUSH32 0x4576656E7420656E64206D757374206265206166746572207374617274000000 PUSH1 0x44 DUP3 ADD MSTORE PUSH1 0x64 ADD PUSH2 0x5A5 JUMP JUMPDEST DUP1 MLOAD DUP3 MLOAD EQ PUSH2 0x203D JUMPI PUSH1 0x40 MLOAD PUSH3 0x461BCD PUSH1 0xE5 SHL DUP2 MSTORE PUSH1 0x20 PUSH1 0x4 DUP3 ADD MSTORE PUSH1 0x1B PUSH1 0x24 DUP3 ADD MSTORE PUSH32 0x4D696C6573746F6E6520617272617973206D757374206D617463680000000000 PUSH1 0x44 DUP3 ADD MSTORE PUSH1 0x64 ADD PUSH2 0x5A5 JUMP JUMPDEST PUSH1 0x0 DUP1 JUMPDEST DUP3 MLOAD DUP2 LT ISZERO PUSH2 0x2079 JUMPI DUP3 DUP2 DUP2 MLOAD DUP2 LT PUSH2 0x205C JUMPI PUSH2 0x205C PUSH2 0x37B1 JUMP JUMPDEST PUSH1 0x20 MUL PUSH1 0x20 ADD ADD MLOAD DUP3 PUSH2 0x206F SWAP2 SWAP1 PUSH2 0x38FE JUMP JUMPDEST SWAP2 POP PUSH1 0x1 ADD PUSH2 0x2041 JUMP JUMPDEST POP DUP1 PUSH2 0x2710 EQ PUSH2 0x20D9 JUMPI PUSH1 0x40 MLOAD PUSH3 0x461BCD PUSH1 0xE5 SHL DUP2 MSTORE PUSH1 0x20 PUSH1 0x4 DUP3 ADD MSTORE PUSH1 0x25 PUSH1 0x24 DUP3 ADD MSTORE PUSH32 0x4D696C6573746F6E652070657263656E7461676573206D75737420746F74616C PUSH1 0x44 DUP3 ADD MSTORE PUSH5 0x2031303025 PUSH1 0xD8 SHL PUSH1 0x64 DUP3 ADD MSTORE PUSH1 0x84 ADD PUSH2 0x5A5 JUMP JUMPDEST PUSH1 0x5 DUP1 SLOAD SWAP1 PUSH1 0x0 PUSH2 0x20E9 DUP4 PUSH2 0x391F JUMP JUMPDEST SWAP1 SWAP2 SSTORE POP POP PUSH1 0x5 SLOAD PUSH1 0x0 DUP2 DUP2 MSTORE PUSH1 0x3 PUSH1 0x20 MSTORE PUSH1 0x40 SWAP1 KECCAK256 DUP2 DUP2 SSTORE PUSH1 0x1 DUP2 ADD DUP1 SLOAD PUSH1 0x1 PUSH1 0x1 PUSH1 0xA0 SHL SUB NOT AND CALLER OR SWAP1 SSTORE PUSH1 0x2 DUP2 ADD PUSH2 0x2124 DUP14 DUP3 PUSH2 0x3986 JUMP JUMPDEST POP PUSH1 0x3 DUP2 ADD PUSH2 0x2133 DUP13 DUP3 PUSH2 0x3986 JUMP JUMPDEST POP PUSH1 0x4 DUP2 ADD DUP11 SWAP1 SSTORE PUSH1 0x5 DUP2 ADD DUP10 SWAP1 SSTORE PUSH1 0x0 PUSH1 0x6 DUP3 ADD DUP2 SWAP1 SSTORE PUSH1 0x7 DUP3 ADD DUP10 SWAP1 SSTORE PUSH1 0x8 DUP3 ADD DUP9 SWAP1 SSTORE PUSH1 0x9 DUP3 ADD DUP8 SWAP1 SSTORE PUSH1 0xA DUP3 ADD DUP1 SLOAD PUSH1 0xFF NOT AND SWAP1 SSTORE PUSH1 0xE DUP3 ADD DUP1 SLOAD PUSH2 0xFFFF NOT AND PUSH2 0x100 OR SWAP1 SSTORE JUMPDEST DUP6 MLOAD DUP2 LT ISZERO PUSH2 0x2251 JUMPI DUP2 PUSH1 0xB ADD PUSH1 0x40 MLOAD DUP1 PUSH1 0x80 ADD PUSH1 0x40 MSTORE DUP1 DUP9 DUP5 DUP2 MLOAD DUP2 LT PUSH2 0x21A8 JUMPI PUSH2 0x21A8 PUSH2 0x37B1 JUMP JUMPDEST PUSH1 0x20 MUL PUSH1 0x20 ADD ADD MLOAD DUP2 MSTORE PUSH1 0x20 ADD DUP8 DUP5 DUP2 MLOAD DUP2 LT PUSH2 0x21C7 JUMPI PUSH2 0x21C7 PUSH2 0x37B1 JUMP JUMPDEST PUSH1 0x20 SWAP1 DUP2 MUL SWAP2 SWAP1 SWAP2 ADD DUP2 ADD MLOAD DUP3 MSTORE PUSH1 0x0 DUP3 DUP3 ADD DUP2 SWAP1 MSTORE PUSH1 0x40 SWAP1 SWAP3 ADD DUP3 SWAP1 MSTORE DUP4 SLOAD PUSH1 0x1 DUP2 ADD DUP6 SSTORE SWAP4 DUP3 MSTORE SWAP1 KECCAK256 DUP2 MLOAD SWAP2 SWAP3 PUSH1 0x3 MUL ADD SWAP1 DUP2 SWAP1 PUSH2 0x2207 SWAP1 DUP3 PUSH2 0x3986 JUMP JUMPDEST POP PUSH1 0x20 DUP3 ADD MLOAD PUSH1 0x1 DUP1 DUP4 ADD SWAP2 SWAP1 SWAP2 SSTORE PUSH1 0x40 DUP4 ADD MLOAD PUSH1 0x2 SWAP1 SWAP3 ADD DUP1 SLOAD PUSH1 0x60 SWAP1 SWAP5 ADD MLOAD ISZERO ISZERO PUSH2 0x100 MUL PUSH2 0xFF00 NOT SWAP4 ISZERO ISZERO SWAP4 SWAP1 SWAP4 AND PUSH2 0xFFFF NOT SWAP1 SWAP5 AND SWAP4 SWAP1 SWAP4 OR SWAP2 SWAP1 SWAP2 OR SWAP1 SWAP2 SSTORE ADD PUSH2 0x217E JUMP JUMPDEST POP PUSH1 0x40 DUP1 MLOAD DUP12 DUP2 MSTORE PUSH1 0x20 DUP2 ADD DUP11 SWAP1 MSTORE CALLER SWAP2 DUP5 SWAP2 PUSH32 0xA995A99CD81D7F81ABD4CB347B21641D59900A55F92298FC46EE911C3B89023E SWAP2 ADD PUSH1 0x40 MLOAD DUP1 SWAP2 SUB SWAP1 LOG3 POP POP POP POP POP POP POP POP POP POP POP POP JUMP JUMPDEST PUSH1 0x0 SLOAD PUSH1 0x1 PUSH1 0x1 PUSH1 0xA0 SHL SUB AND CALLER EQ PUSH2 0x22C7 JUMPI PUSH1 0x40 MLOAD PUSH3 0x461BCD PUSH1 0xE5 SHL DUP2 MSTORE PUSH1 0x4 ADD PUSH2 0x5A5 SWAP1 PUSH2 0x3739 JUMP JUMPDEST PUSH2 0x1F4 DUP2 GT ISZERO PUSH2 0x2308 JUMPI PUSH1 0x40 MLOAD PUSH3 0x461BCD PUSH1 0xE5 SHL DUP2 MSTORE PUSH1 0x20 PUSH1 0x4 DUP3 ADD MSTORE PUSH1 0xC PUSH1 0x24 DUP3 ADD MSTORE PUSH12 0x8CCACA40E8DEDE40D0D2CED PUSH1 0xA3 SHL PUSH1 0x44 DUP3 ADD MSTORE PUSH1 0x64 ADD PUSH2 0x5A5 JUMP JUMPDEST PUSH1 0x1 SSTORE JUMP JUMPDEST PUSH1 0x0 DUP2 DUP2 MSTORE PUSH1 0x3 PUSH1 0x20 MSTORE PUSH1 0x40 SWAP1 KECCAK256 PUSH1 0xE ADD SLOAD PUSH1 0x60 SWAP1 DUP3 SWAP1 PUSH2 0x100 SWAP1 DIV PUSH1 0xFF AND PUSH2 0x2348 JUMPI PUSH1 0x40 MLOAD PUSH3 0x461BCD PUSH1 0xE5 SHL DUP2 MSTORE PUSH1 0x4 ADD PUSH2 0x5A5 SWAP1 PUSH2 0x377A JUMP JUMPDEST PUSH1 0x0 DUP4 DUP2 MSTORE PUSH1 0x3 PUSH1 0x20 SWAP1 DUP2 MSTORE PUSH1 0x40 SWAP2 DUP3 SWAP1 KECCAK256 PUSH1 0xC ADD DUP1 SLOAD DUP4 MLOAD DUP2 DUP5 MUL DUP2 ADD DUP5 ADD SWAP1 SWAP5 MSTORE DUP1 DUP5 MSTORE SWAP1 SWAP2 DUP4 ADD DUP3 DUP3 DUP1 ISZERO PUSH2 0x23A9 JUMPI PUSH1 0x20 MUL DUP3 ADD SWAP2 SWAP1 PUSH1 0x0 MSTORE PUSH1 0x20 PUSH1 0x0 KECCAK256 SWAP1 JUMPDEST DUP2 SLOAD PUSH1 0x1 PUSH1 0x1 PUSH1 0xA0 SHL SUB AND DUP2 MSTORE PUSH1 0x1 SWAP1 SWAP2 ADD SWAP1 PUSH1 0x20 ADD DUP1 DUP4 GT PUSH2 0x238B JUMPI JUMPDEST POP POP POP POP POP SWAP2 POP POP SWAP2 SWAP1 POP JUMP JUMPDEST PUSH1 0x3 PUSH1 0x20 MSTORE PUSH1 0x0 SWAP1 DUP2 MSTORE PUSH1 0x40 SWAP1 KECCAK256 DUP1 SLOAD PUSH1 0x1 DUP3 ADD SLOAD PUSH1 0x2 DUP4 ADD DUP1 SLOAD SWAP3 SWAP4 PUSH1 0x1 PUSH1 0x1 PUSH1 0xA0 SHL SUB SWAP1 SWAP3 AND SWAP3 PUSH2 0x23E8 SWAP1 PUSH2 0x389B JUMP JUMPDEST DUP1 PUSH1 0x1F ADD PUSH1 0x20 DUP1 SWAP2 DIV MUL PUSH1 0x20 ADD PUSH1 0x40 MLOAD SWAP1 DUP2 ADD PUSH1 0x40 MSTORE DUP1 SWAP3 SWAP2 SWAP1 DUP2 DUP2 MSTORE PUSH1 0x20 ADD DUP3 DUP1 SLOAD PUSH2 0x2414 SWAP1 PUSH2 0x389B JUMP JUMPDEST DUP1 ISZERO PUSH2 0x2461 JUMPI DUP1 PUSH1 0x1F LT PUSH2 0x2436 JUMPI PUSH2 0x100 DUP1 DUP4 SLOAD DIV MUL DUP4 MSTORE SWAP2 PUSH1 0x20 ADD SWAP2 PUSH2 0x2461 JUMP JUMPDEST DUP3 ADD SWAP2 SWAP1 PUSH1 0x0 MSTORE PUSH1 0x20 PUSH1 0x0 KECCAK256 SWAP1 JUMPDEST DUP2 SLOAD DUP2 MSTORE SWAP1 PUSH1 0x1 ADD SWAP1 PUSH1 0x20 ADD DUP1 DUP4 GT PUSH2 0x2444 JUMPI DUP3 SWAP1 SUB PUSH1 0x1F AND DUP3 ADD SWAP2 JUMPDEST POP POP POP POP POP SWAP1 DUP1 PUSH1 0x3 ADD DUP1 SLOAD PUSH2 0x2476 SWAP1 PUSH2 0x389B JUMP JUMPDEST DUP1 PUSH1 0x1F ADD PUSH1 0x20 DUP1 SWAP2 DIV MUL PUSH1 0x20 ADD PUSH1 0x40 MLOAD SWAP1 DUP2 ADD PUSH1 0x40 MSTORE DUP1 SWAP3 SWAP2 SWAP1 DUP2 DUP2 MSTORE PUSH1 0x20 ADD DUP3 DUP1 SLOAD PUSH2 0x24A2 SWAP1 PUSH2 0x389B JUMP JUMPDEST DUP1 ISZERO PUSH2 0x24EF JUMPI DUP1 PUSH1 0x1F LT PUSH2 0x24C4 JUMPI PUSH2 0x100 DUP1 DUP4 SLOAD DIV MUL DUP4 MSTORE SWAP2 PUSH1 0x20 ADD SWAP2 PUSH2 0x24EF JUMP JUMPDEST DUP3 ADD SWAP2 SWAP1 PUSH1 0x0 MSTORE PUSH1 0x20 PUSH1 0x0 KECCAK256 SWAP1 JUMPDEST DUP2 SLOAD DUP2 MSTORE SWAP1 PUSH1 0x1 ADD SWAP1 PUSH1 0x20 ADD DUP1 DUP4 GT PUSH2 0x24D2 JUMPI DUP3 SWAP1 SUB PUSH1 0x1F AND DUP3 ADD SWAP2 JUMPDEST POP POP POP PUSH1 0x4 DUP5 ADD SLOAD PUSH1 0x5 DUP6 ADD SLOAD PUSH1 0x6 DUP7 ADD SLOAD PUSH1 0x7 DUP8 ADD SLOAD PUSH1 0x8 DUP9 ADD SLOAD PUSH1 0x9 DUP10 ADD SLOAD PUSH1 0xA DUP11 ADD SLOAD PUSH1 0xE SWAP1 SWAP11 ADD SLOAD SWAP9 SWAP10 SWAP6 SWAP9 SWAP5 SWAP8 POP SWAP3 SWAP6 POP SWAP1 SWAP4 SWAP1 SWAP3 PUSH1 0xFF SWAP2 DUP3 AND SWAP2 DUP2 DUP2 AND SWAP2 PUSH2 0x100 SWAP1 DIV AND DUP14 JUMP JUMPDEST PUSH1 0x0 DUP2 DUP2 MSTORE PUSH1 0x3 PUSH1 0x20 MSTORE PUSH1 0x40 SWAP1 KECCAK256 PUSH1 0xE ADD SLOAD DUP2 SWAP1 PUSH2 0x100 SWAP1 DIV PUSH1 0xFF AND PUSH2 0x2574 JUMPI PUSH1 0x40 MLOAD PUSH3 0x461BCD PUSH1 0xE5 SHL DUP2 MSTORE PUSH1 0x4 ADD PUSH2 0x5A5 SWAP1 PUSH2 0x377A JUMP JUMPDEST PUSH1 0x0 DUP3 DUP2 MSTORE PUSH1 0x3 PUSH1 0x20 MSTORE PUSH1 0x40 DUP2 KECCAK256 SWAP1 PUSH1 0xA DUP3 ADD SLOAD PUSH1 0xFF AND PUSH1 0x4 DUP2 GT ISZERO PUSH2 0x259C JUMPI PUSH2 0x259C PUSH2 0x3189 JUMP JUMPDEST EQ PUSH2 0x25E1 JUMPI PUSH1 0x40 MLOAD PUSH3 0x461BCD PUSH1 0xE5 SHL DUP2 MSTORE PUSH1 0x20 PUSH1 0x4 DUP3 ADD MSTORE PUSH1 0x15 PUSH1 0x24 DUP3 ADD MSTORE PUSH21 0x46756E64696E67206973206E6F7420616374697665 PUSH1 0x58 SHL PUSH1 0x44 DUP3 ADD MSTORE PUSH1 0x64 ADD PUSH2 0x5A5 JUMP JUMPDEST DUP1 PUSH1 0x7 ADD SLOAD TIMESTAMP LT PUSH2 0x2634 JUMPI PUSH1 0x40 MLOAD PUSH3 0x461BCD PUSH1 0xE5 SHL DUP2 MSTORE PUSH1 0x20 PUSH1 0x4 DUP3 ADD MSTORE PUSH1 0x1B PUSH1 0x24 DUP3 ADD MSTORE PUSH32 0x46756E64696E6720646561646C696E6520686173207061737365640000000000 PUSH1 0x44 DUP3 ADD MSTORE PUSH1 0x64 ADD PUSH2 0x5A5 JUMP JUMPDEST PUSH1 0x0 CALLVALUE GT PUSH2 0x2690 JUMPI PUSH1 0x40 MLOAD PUSH3 0x461BCD PUSH1 0xE5 SHL DUP2 MSTORE PUSH1 0x20 PUSH1 0x4 DUP3 ADD MSTORE PUSH1 0x23 PUSH1 0x24 DUP3 ADD MSTORE PUSH32 0x436F6E747269627574696F6E206D757374206265206772656174657220746861 PUSH1 0x44 DUP3 ADD MSTORE PUSH3 0x6E203 PUSH1 0xEC SHL PUSH1 0x64 DUP3 ADD MSTORE PUSH1 0x84 ADD PUSH2 0x5A5 JUMP JUMPDEST CALLER PUSH1 0x0 SWAP1 DUP2 MSTORE PUSH1 0xD DUP3 ADD PUSH1 0x20 MSTORE PUSH1 0x40 DUP2 KECCAK256 SLOAD SWAP1 SUB PUSH2 0x26D0 JUMPI PUSH1 0xC DUP2 ADD DUP1 SLOAD PUSH1 0x1 DUP2 ADD DUP3 SSTORE PUSH1 0x0 SWAP2 DUP3 MSTORE PUSH1 0x20 SWAP1 SWAP2 KECCAK256 ADD DUP1 SLOAD PUSH1 0x1 PUSH1 0x1 PUSH1 0xA0 SHL SUB NOT AND CALLER OR SWAP1 SSTORE JUMPDEST CALLER PUSH1 0x0 SWAP1 DUP2 MSTORE PUSH1 0xD DUP3 ADD PUSH1 0x20 MSTORE PUSH1 0x40 DUP2 KECCAK256 DUP1 SLOAD CALLVALUE SWAP3 SWAP1 PUSH2 0x26F1 SWAP1 DUP5 SWAP1 PUSH2 0x38FE JUMP JUMPDEST SWAP3 POP POP DUP2 SWAP1 SSTORE POP CALLVALUE DUP2 PUSH1 0x6 ADD PUSH1 0x0 DUP3 DUP3 SLOAD PUSH2 0x270C SWAP2 SWAP1 PUSH2 0x38FE JUMP JUMPDEST SWAP1 SWAP2 SSTORE POP POP PUSH1 0x40 MLOAD CALLVALUE DUP2 MSTORE CALLER SWAP1 DUP5 SWAP1 PUSH32 0xA4A91237423E0A1766A761C7CB029311D8B95D6B1B81DB1B949A70C98B4E08E SWAP1 PUSH1 0x20 ADD PUSH1 0x40 MLOAD DUP1 SWAP2 SUB SWAP1 LOG3 DUP1 PUSH1 0x4 ADD SLOAD DUP2 PUSH1 0x6 ADD SLOAD LT PUSH2 0xCF5 JUMPI PUSH1 0xA DUP2 ADD DUP1 SLOAD PUSH1 0xFF NOT AND PUSH1 0x1 OR SWAP1 SSTORE PUSH1 0x40 MLOAD DUP4 SWAP1 PUSH32 0xBDF8E8154212732E32053DB049ACCDD4FF27639D7028ECF127E2353161B994BF SWAP1 PUSH1 0x0 SWAP1 LOG2 POP POP POP JUMP JUMPDEST CALLER PUSH1 0x0 SWAP1 DUP2 MSTORE PUSH1 0x2 PUSH1 0x20 MSTORE PUSH1 0x40 SWAP1 KECCAK256 PUSH1 0x5 ADD SLOAD PUSH2 0x100 SWAP1 DIV PUSH1 0xFF AND ISZERO PUSH2 0x27FE JUMPI PUSH1 0x40 MLOAD PUSH3 0x461BCD PUSH1 0xE5 SHL DUP2 MSTORE PUSH1 0x20 PUSH1 0x4 DUP3 ADD MSTORE PUSH1 0x1F PUSH1 0x24 DUP3 ADD MSTORE PUSH32 0x4F7267616E697A6174696F6E20616C7265616479207265676973746572656400 PUSH1 0x44 DUP3 ADD MSTORE PUSH1 0x64 ADD PUSH2 0x5A5 JUMP JUMPDEST PUSH1 0x40 DUP1 MLOAD PUSH1 0xE0 DUP2 ADD DUP3 MSTORE CALLER DUP2 MSTORE PUSH1 0x20 DUP2 ADD DUP7 SWAP1 MSTORE SWAP1 DUP2 ADD DUP5 SWAP1 MSTORE PUSH1 0x60 DUP2 ADD DUP4 SWAP1 MSTORE PUSH1 0x80 DUP2 ADD DUP3 SWAP1 MSTORE PUSH1 0xA0 DUP2 ADD PUSH1 0x0 DUP2 MSTORE PUSH1 0x1 PUSH1 0x20 SWAP2 DUP3 ADD DUP2 SWAP1 MSTORE CALLER PUSH1 0x0 SWAP1 DUP2 MSTORE PUSH1 0x2 DUP4 MSTORE PUSH1 0x40 SWAP1 KECCAK256 DUP4 MLOAD DUP2 SLOAD PUSH1 0x1 PUSH1 0x1 PUSH1 0xA0 SHL SUB NOT AND PUSH1 0x1 PUSH1 0x1 PUSH1 0xA0 SHL SUB SWAP1 SWAP2 AND OR DUP2 SSTORE SWAP2 DUP4 ADD MLOAD SWAP1 DUP3 ADD SWAP1 PUSH2 0x2874 SWAP1 DUP3 PUSH2 0x3986 JUMP JUMPDEST POP PUSH1 0x40 DUP3 ADD MLOAD PUSH1 0x2 DUP3 ADD SWAP1 PUSH2 0x2889 SWAP1 DUP3 PUSH2 0x3986 JUMP JUMPDEST POP PUSH1 0x60 DUP3 ADD MLOAD PUSH1 0x3 DUP3 ADD SWAP1 PUSH2 0x289E SWAP1 DUP3 PUSH2 0x3986 JUMP JUMPDEST POP PUSH1 0x80 DUP3 ADD MLOAD PUSH1 0x4 DUP3 ADD SWAP1 PUSH2 0x28B3 SWAP1 DUP3 PUSH2 0x3986 JUMP JUMPDEST POP PUSH1 0xA0 DUP3 ADD MLOAD PUSH1 0x5 DUP3 ADD DUP1 SLOAD PUSH1 0xFF NOT AND PUSH1 0x1 DUP4 PUSH1 0x2 DUP2 GT ISZERO PUSH2 0x28D7 JUMPI PUSH2 0x28D7 PUSH2 0x3189 JUMP JUMPDEST MUL OR SWAP1 SSTORE POP PUSH1 0xC0 SWAP2 SWAP1 SWAP2 ADD MLOAD PUSH1 0x5 SWAP1 SWAP2 ADD DUP1 SLOAD SWAP2 ISZERO ISZERO PUSH2 0x100 MUL PUSH2 0xFF00 NOT SWAP1 SWAP3 AND SWAP2 SWAP1 SWAP2 OR SWAP1 SSTORE PUSH1 0x4 DUP1 SLOAD PUSH1 0x1 DUP2 ADD DUP3 SSTORE PUSH1 0x0 SWAP2 SWAP1 SWAP2 MSTORE PUSH32 0x8A35ACFBC15FF81A39AE7D344FD709F28E8600B4AA8C65C6B64BFE7FE36BD19B ADD DUP1 SLOAD PUSH1 0x1 PUSH1 0x1 PUSH1 0xA0 SHL SUB NOT AND CALLER SWAP1 DUP2 OR SWAP1 SWAP2 SSTORE PUSH1 0x40 MLOAD PUSH32 0x783E607E94EFCB9ADCE3489C806008DDC378D784AE22A1F801458720054325A2 SWAP1 PUSH2 0x2973 SWAP1 DUP8 SWAP1 PUSH2 0x3A44 JUMP JUMPDEST PUSH1 0x40 MLOAD DUP1 SWAP2 SUB SWAP1 LOG2 POP POP POP POP JUMP JUMPDEST PUSH1 0x0 DUP3 DUP2 MSTORE PUSH1 0x3 PUSH1 0x20 MSTORE PUSH1 0x40 SWAP1 KECCAK256 PUSH1 0xE ADD SLOAD DUP3 SWAP1 PUSH2 0x100 SWAP1 DIV PUSH1 0xFF AND PUSH2 0x29B9 JUMPI PUSH1 0x40 MLOAD PUSH3 0x461BCD PUSH1 0xE5 SHL DUP2 MSTORE PUSH1 0x4 ADD PUSH2 0x5A5 SWAP1 PUSH2 0x377A JUMP JUMPDEST PUSH1 0x0 DUP4 DUP2 MSTORE PUSH1 0x3 PUSH1 0x20 MSTORE PUSH1 0x40 SWAP1 KECCAK256 PUSH1 0x1 ADD SLOAD DUP4 SWAP1 PUSH1 0x1 PUSH1 0x1 PUSH1 0xA0 SHL SUB AND CALLER EQ PUSH2 0x29F4 JUMPI PUSH1 0x40 MLOAD PUSH3 0x461BCD PUSH1 0xE5 SHL DUP2 MSTORE PUSH1 0x4 ADD PUSH2 0x5A5 SWAP1 PUSH2 0x37C7 JUMP JUMPDEST PUSH1 0x0 DUP5 DUP2 MSTORE PUSH1 0x3 PUSH1 0x20 MSTORE PUSH1 0x40 DUP2 KECCAK256 SWAP1 PUSH1 0xA DUP3 ADD SLOAD PUSH1 0xFF AND PUSH1 0x4 DUP2 GT ISZERO PUSH2 0x2A1C JUMPI PUSH2 0x2A1C PUSH2 0x3189 JUMP JUMPDEST EQ PUSH2 0x2A61 JUMPI PUSH1 0x40 MLOAD PUSH3 0x461BCD PUSH1 0xE5 SHL DUP2 MSTORE PUSH1 0x20 PUSH1 0x4 DUP3 ADD MSTORE PUSH1 0x15 PUSH1 0x24 DUP3 ADD MSTORE PUSH21 0x52657175657374206973206E6F7420616374697665 PUSH1 0x58 SHL PUSH1 0x44 DUP3 ADD MSTORE PUSH1 0x64 ADD PUSH2 0x5A5 JUMP JUMPDEST DUP1 PUSH1 0x7 ADD SLOAD TIMESTAMP LT ISZERO PUSH2 0x2AC1 JUMPI PUSH1 0x40 MLOAD PUSH3 0x461BCD PUSH1 0xE5 SHL DUP2 MSTORE PUSH1 0x20 PUSH1 0x4 DUP3 ADD MSTORE PUSH1 0x23 PUSH1 0x24 DUP3 ADD MSTORE PUSH32 0x46756E64696E6720646561646C696E6520686173206E6F742070617373656420 PUSH1 0x44 DUP3 ADD MSTORE PUSH3 0x1E595D PUSH1 0xEA SHL PUSH1 0x64 DUP3 ADD MSTORE PUSH1 0x84 ADD PUSH2 0x5A5 JUMP JUMPDEST DUP1 PUSH1 0x8 ADD SLOAD TIMESTAMP LT PUSH2 0x2B14 JUMPI PUSH1 0x40 MLOAD PUSH3 0x461BCD PUSH1 0xE5 SHL DUP2 MSTORE PUSH1 0x20 PUSH1 0x4 DUP3 ADD MSTORE PUSH1 0x19 PUSH1 0x24 DUP3 ADD MSTORE PUSH32 0x4576656E742068617320616C7265616479207374617274656400000000000000 PUSH1 0x44 DUP3 ADD MSTORE PUSH1 0x64 ADD PUSH2 0x5A5 JUMP JUMPDEST DUP1 PUSH1 0x4 ADD SLOAD DUP2 PUSH1 0x6 ADD SLOAD LT PUSH2 0x2B6B JUMPI PUSH1 0x40 MLOAD PUSH3 0x461BCD PUSH1 0xE5 SHL DUP2 MSTORE PUSH1 0x20 PUSH1 0x4 DUP3 ADD MSTORE PUSH1 0x18 PUSH1 0x24 DUP3 ADD MSTORE PUSH32 0x46756E64696E6720676F616C20616C7265616479206D65740000000000000000 PUSH1 0x44 DUP3 ADD MSTORE PUSH1 0x64 ADD PUSH2 0x5A5 JUMP JUMPDEST DUP4 ISZERO PUSH2 0x2C51 JUMPI PUSH1 0x0 DUP2 PUSH1 0x4 ADD SLOAD DUP3 PUSH1 0x6 ADD SLOAD PUSH2 0x2710 PUSH2 0x2B8A SWAP2 SWAP1 PUSH2 0x3849 JUMP JUMPDEST PUSH2 0x2B94 SWAP2 SWAP1 PUSH2 0x3866 JUMP JUMPDEST SWAP1 POP DUP2 PUSH1 0x5 ADD SLOAD DUP2 LT ISZERO PUSH2 0x2C02 JUMPI PUSH1 0x40 MLOAD PUSH3 0x461BCD PUSH1 0xE5 SHL DUP2 MSTORE PUSH1 0x20 PUSH1 0x4 DUP3 ADD MSTORE PUSH1 0x2F PUSH1 0x24 DUP3 ADD MSTORE PUSH32 0x43757272656E742066756E64696E6720646F6573206E6F74206D656574206D69 PUSH1 0x44 DUP3 ADD MSTORE PUSH15 0x1B9A5B5D5B481D1A1C995CDA1BDB19 PUSH1 0x8A SHL PUSH1 0x64 DUP3 ADD MSTORE PUSH1 0x84 ADD PUSH2 0x5A5 JUMP JUMPDEST PUSH1 0xA DUP3 ADD DUP1 SLOAD PUSH1 0xFF NOT AND PUSH1 0x2 OR SWAP1 SSTORE PUSH1 0x6 DUP3 ADD SLOAD PUSH1 0x40 MLOAD SWAP1 DUP2 MSTORE DUP7 SWAP1 PUSH32 0x8ECCB522DDA8C3EA7180ED6B8D995DBBEFBE35FBADD88001EA5FFC9F5841D37A SWAP1 PUSH1 0x20 ADD PUSH1 0x40 MLOAD DUP1 SWAP2 SUB SWAP1 LOG2 POP PUSH2 0x2DA3 JUMP JUMPDEST PUSH1 0xA DUP2 ADD DUP1 SLOAD PUSH1 0xFF NOT AND PUSH1 0x4 OR SWAP1 SSTORE PUSH1 0x0 JUMPDEST PUSH1 0xC DUP3 ADD SLOAD DUP2 LT ISZERO PUSH2 0x2D76 JUMPI PUSH1 0x0 DUP3 PUSH1 0xC ADD DUP3 DUP2 SLOAD DUP2 LT PUSH2 0x2C86 JUMPI PUSH2 0x2C86 PUSH2 0x37B1 JUMP JUMPDEST PUSH1 0x0 SWAP2 DUP3 MSTORE PUSH1 0x20 DUP1 DUP4 KECCAK256 SWAP1 SWAP2 ADD SLOAD PUSH1 0x1 PUSH1 0x1 PUSH1 0xA0 SHL SUB AND DUP1 DUP4 MSTORE PUSH1 0xD DUP7 ADD SWAP1 SWAP2 MSTORE PUSH1 0x40 SWAP1 SWAP2 KECCAK256 SLOAD SWAP1 SWAP2 POP DUP1 ISZERO PUSH2 0x2D6C JUMPI PUSH1 0x1 PUSH1 0x1 PUSH1 0xA0 SHL SUB DUP3 AND PUSH1 0x0 DUP2 DUP2 MSTORE PUSH1 0xD DUP7 ADD PUSH1 0x20 MSTORE PUSH1 0x40 DUP1 DUP3 KECCAK256 DUP3 SWAP1 SSTORE MLOAD SWAP1 SWAP2 SWAP1 DUP4 SWAP1 DUP4 DUP2 DUP2 DUP2 DUP6 DUP8 GAS CALL SWAP3 POP POP POP RETURNDATASIZE DUP1 PUSH1 0x0 DUP2 EQ PUSH2 0x2D12 JUMPI PUSH1 0x40 MLOAD SWAP2 POP PUSH1 0x1F NOT PUSH1 0x3F RETURNDATASIZE ADD AND DUP3 ADD PUSH1 0x40 MSTORE RETURNDATASIZE DUP3 MSTORE RETURNDATASIZE PUSH1 0x0 PUSH1 0x20 DUP5 ADD RETURNDATACOPY PUSH2 0x2D17 JUMP JUMPDEST PUSH1 0x60 SWAP2 POP JUMPDEST POP POP SWAP1 POP DUP1 PUSH2 0x2D38 JUMPI PUSH1 0x40 MLOAD PUSH3 0x461BCD PUSH1 0xE5 SHL DUP2 MSTORE PUSH1 0x4 ADD PUSH2 0x5A5 SWAP1 PUSH2 0x38CF JUMP JUMPDEST DUP3 PUSH1 0x1 PUSH1 0x1 PUSH1 0xA0 SHL SUB AND DUP10 PUSH1 0x0 DUP1 MLOAD PUSH1 0x20 PUSH2 0x3A58 DUP4 CODECOPY DUP2 MLOAD SWAP2 MSTORE DUP5 PUSH1 0x40 MLOAD PUSH2 0x2D62 SWAP2 DUP2 MSTORE PUSH1 0x20 ADD SWAP1 JUMP JUMPDEST PUSH1 0x40 MLOAD DUP1 SWAP2 SUB SWAP1 LOG3 POP JUMPDEST POP POP PUSH1 0x1 ADD PUSH2 0x2C63 JUMP JUMPDEST POP PUSH1 0x40 MLOAD DUP6 SWAP1 PUSH32 0xB5B43989547011DA0897C8FEEACDF8746EACBC72C701DBCDD9A88BA4491E73C6 SWAP1 PUSH1 0x0 SWAP1 LOG2 JUMPDEST DUP5 PUSH32 0xCBE070AB725B0B5BDACB047035FFE5246A56F9C6DE4DA610652DEC0333311E79 DUP6 PUSH1 0x40 MLOAD PUSH2 0x78F SWAP2 ISZERO ISZERO DUP2 MSTORE PUSH1 0x20 ADD SWAP1 JUMP JUMPDEST PUSH1 0x0 DUP3 DUP2 MSTORE PUSH1 0x3 PUSH1 0x20 MSTORE PUSH1 0x40 DUP2 KECCAK256 PUSH1 0xE ADD SLOAD DUP4 SWAP1 PUSH2 0x100 SWAP1 DIV PUSH1 0xFF AND PUSH2 0x2E0F JUMPI PUSH1 0x40 MLOAD PUSH3 0x461BCD PUSH1 0xE5 SHL DUP2 MSTORE PUSH1 0x4 ADD PUSH2 0x5A5 SWAP1 PUSH2 0x377A JUMP JUMPDEST POP POP PUSH1 0x0 SWAP2 DUP3 MSTORE PUSH1 0x3 PUSH1 0x20 SWAP1 DUP2 MSTORE PUSH1 0x40 DUP1 DUP5 KECCAK256 PUSH1 0x1 PUSH1 0x1 PUSH1 0xA0 SHL SUB SWAP4 SWAP1 SWAP4 AND DUP5 MSTORE PUSH1 0xD SWAP1 SWAP3 ADD SWAP1 MSTORE SWAP1 KECCAK256 SLOAD SWAP1 JUMP JUMPDEST PUSH1 0x60 PUSH1 0x0 PUSH1 0x5 SLOAD PUSH1 0x1 PUSH1 0x1 PUSH1 0x40 SHL SUB DUP2 GT ISZERO PUSH2 0x2E5B JUMPI PUSH2 0x2E5B PUSH2 0x3245 JUMP JUMPDEST PUSH1 0x40 MLOAD SWAP1 DUP1 DUP3 MSTORE DUP1 PUSH1 0x20 MUL PUSH1 0x20 ADD DUP3 ADD PUSH1 0x40 MSTORE DUP1 ISZERO PUSH2 0x2E84 JUMPI DUP2 PUSH1 0x20 ADD PUSH1 0x20 DUP3 MUL DUP1 CALLDATASIZE DUP4 CALLDATACOPY ADD SWAP1 POP JUMPDEST POP SWAP1 POP PUSH1 0x0 PUSH1 0x1 JUMPDEST PUSH1 0x5 SLOAD DUP2 GT PUSH2 0x2F17 JUMPI PUSH1 0x0 DUP2 DUP2 MSTORE PUSH1 0x3 PUSH1 0x20 MSTORE PUSH1 0x40 SWAP1 KECCAK256 PUSH1 0xE ADD SLOAD PUSH2 0x100 SWAP1 DIV PUSH1 0xFF AND DUP1 ISZERO PUSH2 0x2ED4 JUMPI POP PUSH1 0x0 DUP2 DUP2 MSTORE PUSH1 0x3 PUSH1 0x20 MSTORE PUSH1 0x40 SWAP1 KECCAK256 PUSH1 0x1 ADD SLOAD PUSH1 0x1 PUSH1 0x1 PUSH1 0xA0 SHL SUB AND CALLER EQ JUMPDEST ISZERO PUSH2 0x2F05 JUMPI DUP1 DUP4 DUP4 DUP2 MLOAD DUP2 LT PUSH2 0x2EEC JUMPI PUSH2 0x2EEC PUSH2 0x37B1 JUMP JUMPDEST PUSH1 0x20 SWAP1 DUP2 MUL SWAP2 SWAP1 SWAP2 ADD ADD MSTORE DUP2 PUSH2 0x2F01 DUP2 PUSH2 0x391F JUMP JUMPDEST SWAP3 POP POP JUMPDEST DUP1 PUSH2 0x2F0F DUP2 PUSH2 0x391F JUMP JUMPDEST SWAP2 POP POP PUSH2 0x2E8C JUMP JUMPDEST POP PUSH1 0x0 DUP2 PUSH1 0x1 PUSH1 0x1 PUSH1 0x40 SHL SUB DUP2 GT ISZERO PUSH2 0x2F32 JUMPI PUSH2 0x2F32 PUSH2 0x3245 JUMP JUMPDEST PUSH1 0x40 MLOAD SWAP1 DUP1 DUP3 MSTORE DUP1 PUSH1 0x20 MUL PUSH1 0x20 ADD DUP3 ADD PUSH1 0x40 MSTORE DUP1 ISZERO PUSH2 0x2F5B JUMPI DUP2 PUSH1 0x20 ADD PUSH1 0x20 DUP3 MUL DUP1 CALLDATASIZE DUP4 CALLDATACOPY ADD SWAP1 POP JUMPDEST POP SWAP1 POP PUSH1 0x0 JUMPDEST DUP3 DUP2 LT ISZERO PUSH2 0x2FA8 JUMPI DUP4 DUP2 DUP2 MLOAD DUP2 LT PUSH2 0x2F7B JUMPI PUSH2 0x2F7B PUSH2 0x37B1 JUMP JUMPDEST PUSH1 0x20 MUL PUSH1 0x20 ADD ADD MLOAD DUP3 DUP3 DUP2 MLOAD DUP2 LT PUSH2 0x2F95 JUMPI PUSH2 0x2F95 PUSH2 0x37B1 JUMP JUMPDEST PUSH1 0x20 SWAP1 DUP2 MUL SWAP2 SWAP1 SWAP2 ADD ADD MSTORE PUSH1 0x1 ADD PUSH2 0x2F61 JUMP JUMPDEST POP SWAP4 SWAP3 POP POP POP JUMP JUMPDEST PUSH1 0x20 DUP1 DUP3 MSTORE DUP3 MLOAD DUP3 DUP3 ADD DUP2 SWAP1 MSTORE PUSH1 0x0 SWAP2 DUP5 ADD SWAP1 PUSH1 0x40 DUP5 ADD SWAP1 DUP4 JUMPDEST DUP2 DUP2 LT ISZERO PUSH2 0x2FF1 JUMPI DUP4 MLOAD PUSH1 0x1 PUSH1 0x1 PUSH1 0xA0 SHL SUB AND DUP4 MSTORE PUSH1 0x20 SWAP4 DUP5 ADD SWAP4 SWAP1 SWAP3 ADD SWAP2 PUSH1 0x1 ADD PUSH2 0x2FCA JUMP JUMPDEST POP SWAP1 SWAP6 SWAP5 POP POP POP POP POP JUMP JUMPDEST PUSH1 0x0 DUP1 PUSH1 0x40 DUP4 DUP6 SUB SLT ISZERO PUSH2 0x300F JUMPI PUSH1 0x0 DUP1 REVERT JUMPDEST POP POP DUP1 CALLDATALOAD SWAP3 PUSH1 0x20 SWAP1 SWAP2 ADD CALLDATALOAD SWAP2 POP JUMP JUMPDEST PUSH1 0x0 PUSH1 0x20 DUP3 DUP5 SUB SLT ISZERO PUSH2 0x3030 JUMPI PUSH1 0x0 DUP1 REVERT JUMPDEST POP CALLDATALOAD SWAP2 SWAP1 POP JUMP JUMPDEST PUSH1 0x0 DUP2 MLOAD DUP1 DUP5 MSTORE PUSH1 0x0 JUMPDEST DUP2 DUP2 LT ISZERO PUSH2 0x305D JUMPI PUSH1 0x20 DUP2 DUP6 ADD DUP2 ADD MLOAD DUP7 DUP4 ADD DUP3 ADD MSTORE ADD PUSH2 0x3041 JUMP JUMPDEST POP PUSH1 0x0 PUSH1 0x20 DUP3 DUP7 ADD ADD MSTORE PUSH1 0x20 PUSH1 0x1F NOT PUSH1 0x1F DUP4 ADD AND DUP6 ADD ADD SWAP2 POP POP SWAP3 SWAP2 POP POP JUMP JUMPDEST PUSH1 0x0 PUSH1 0x20 DUP3 ADD PUSH1 0x20 DUP4 MSTORE DUP1 DUP5 MLOAD DUP1 DUP4 MSTORE PUSH1 0x40 DUP6 ADD SWAP2 POP PUSH1 0x40 DUP2 PUSH1 0x5 SHL DUP7 ADD ADD SWAP3 POP PUSH1 0x20 DUP7 ADD PUSH1 0x0 JUMPDEST DUP3 DUP2 LT ISZERO PUSH2 0x3104 JUMPI PUSH1 0x3F NOT DUP8 DUP7 SUB ADD DUP5 MSTORE DUP2 MLOAD DUP1 MLOAD PUSH1 0x80 DUP8 MSTORE PUSH2 0x30CB PUSH1 0x80 DUP9 ADD DUP3 PUSH2 0x3037 JUMP JUMPDEST PUSH1 0x20 DUP4 DUP2 ADD MLOAD DUP10 DUP3 ADD MSTORE PUSH1 0x40 DUP1 DUP6 ADD MLOAD ISZERO ISZERO SWAP1 DUP11 ADD MSTORE PUSH1 0x60 SWAP4 DUP5 ADD MLOAD ISZERO ISZERO SWAP4 SWAP1 SWAP9 ADD SWAP3 SWAP1 SWAP3 MSTORE POP SWAP5 SWAP4 DUP5 ADD SWAP4 SWAP2 SWAP1 SWAP2 ADD SWAP1 PUSH1 0x1 ADD PUSH2 0x30A5 JUMP JUMPDEST POP SWAP3 SWAP7 SWAP6 POP POP POP POP POP POP JUMP JUMPDEST DUP1 CALLDATALOAD PUSH1 0x1 PUSH1 0x1 PUSH1 0xA0 SHL SUB DUP2 AND DUP2 EQ PUSH2 0x3127 JUMPI PUSH1 0x0 DUP1 REVERT JUMPDEST SWAP2 SWAP1 POP JUMP JUMPDEST PUSH1 0x0 DUP1 PUSH1 0x40 DUP4 DUP6 SUB SLT ISZERO PUSH2 0x313F JUMPI PUSH1 0x0 DUP1 REVERT JUMPDEST PUSH2 0x3148 DUP4 PUSH2 0x3110 JUMP JUMPDEST SWAP2 POP PUSH1 0x20 DUP4 ADD CALLDATALOAD PUSH1 0x3 DUP2 LT PUSH2 0x315C JUMPI PUSH1 0x0 DUP1 REVERT JUMPDEST DUP1 SWAP2 POP POP SWAP3 POP SWAP3 SWAP1 POP JUMP JUMPDEST PUSH1 0x0 PUSH1 0x20 DUP3 DUP5 SUB SLT ISZERO PUSH2 0x3179 JUMPI PUSH1 0x0 DUP1 REVERT JUMPDEST PUSH2 0x3182 DUP3 PUSH2 0x3110 JUMP JUMPDEST SWAP4 SWAP3 POP POP POP JUMP JUMPDEST PUSH4 0x4E487B71 PUSH1 0xE0 SHL PUSH1 0x0 MSTORE PUSH1 0x21 PUSH1 0x4 MSTORE PUSH1 0x24 PUSH1 0x0 REVERT JUMPDEST PUSH1 0x3 DUP2 LT PUSH2 0x31AF JUMPI PUSH2 0x31AF PUSH2 0x3189 JUMP JUMPDEST SWAP1 MSTORE JUMP JUMPDEST PUSH1 0x1 PUSH1 0x1 PUSH1 0xA0 SHL SUB DUP9 AND DUP2 MSTORE PUSH1 0xE0 PUSH1 0x20 DUP3 ADD DUP2 SWAP1 MSTORE PUSH1 0x0 SWAP1 PUSH2 0x31D7 SWAP1 DUP4 ADD DUP10 PUSH2 0x3037 JUMP JUMPDEST DUP3 DUP2 SUB PUSH1 0x40 DUP5 ADD MSTORE PUSH2 0x31E9 DUP2 DUP10 PUSH2 0x3037 JUMP JUMPDEST SWAP1 POP DUP3 DUP2 SUB PUSH1 0x60 DUP5 ADD MSTORE PUSH2 0x31FD DUP2 DUP9 PUSH2 0x3037 JUMP JUMPDEST SWAP1 POP DUP3 DUP2 SUB PUSH1 0x80 DUP5 ADD MSTORE PUSH2 0x3211 DUP2 DUP8 PUSH2 0x3037 JUMP JUMPDEST SWAP2 POP POP PUSH2 0x3221 PUSH1 0xA0 DUP4 ADD DUP6 PUSH2 0x319F JUMP JUMPDEST DUP3 ISZERO ISZERO PUSH1 0xC0 DUP4 ADD MSTORE SWAP9 SWAP8 POP POP POP POP POP POP POP POP JUMP JUMPDEST DUP1 CALLDATALOAD DUP1 ISZERO ISZERO DUP2 EQ PUSH2 0x3127 JUMPI PUSH1 0x0 DUP1 REVERT JUMPDEST PUSH4 0x4E487B71 PUSH1 0xE0 SHL PUSH1 0x0 MSTORE PUSH1 0x41 PUSH1 0x4 MSTORE PUSH1 0x24 PUSH1 0x0 REVERT JUMPDEST PUSH1 0x40 MLOAD PUSH1 0x1F DUP3 ADD PUSH1 0x1F NOT AND DUP2 ADD PUSH1 0x1 PUSH1 0x1 PUSH1 0x40 SHL SUB DUP2 GT DUP3 DUP3 LT OR ISZERO PUSH2 0x3283 JUMPI PUSH2 0x3283 PUSH2 0x3245 JUMP JUMPDEST PUSH1 0x40 MSTORE SWAP2 SWAP1 POP JUMP JUMPDEST PUSH1 0x0 DUP3 PUSH1 0x1F DUP4 ADD SLT PUSH2 0x329C JUMPI PUSH1 0x0 DUP1 REVERT JUMPDEST DUP2 CALLDATALOAD PUSH1 0x1 PUSH1 0x1 PUSH1 0x40 SHL SUB DUP2 GT ISZERO PUSH2 0x32B5 JUMPI PUSH2 0x32B5 PUSH2 0x3245 JUMP JUMPDEST PUSH2 0x32C8 PUSH1 0x1F DUP3 ADD PUSH1 0x1F NOT AND PUSH1 0x20 ADD PUSH2 0x325B JUMP JUMPDEST DUP2 DUP2 MSTORE DUP5 PUSH1 0x20 DUP4 DUP7 ADD ADD GT ISZERO PUSH2 0x32DD JUMPI PUSH1 0x0 DUP1 REVERT JUMPDEST DUP2 PUSH1 0x20 DUP6 ADD PUSH1 0x20 DUP4 ADD CALLDATACOPY PUSH1 0x0 SWAP2 DUP2 ADD PUSH1 0x20 ADD SWAP2 SWAP1 SWAP2 MSTORE SWAP4 SWAP3 POP POP POP JUMP JUMPDEST PUSH1 0x0 DUP1 PUSH1 0x0 PUSH1 0x60 DUP5 DUP7 SUB SLT ISZERO PUSH2 0x330F JUMPI PUSH1 0x0 DUP1 REVERT JUMPDEST DUP4 CALLDATALOAD SWAP3 POP PUSH2 0x331F PUSH1 0x20 DUP6 ADD PUSH2 0x3235 JUMP JUMPDEST SWAP2 POP PUSH1 0x40 DUP5 ADD CALLDATALOAD PUSH1 0x1 PUSH1 0x1 PUSH1 0x40 SHL SUB DUP2 GT ISZERO PUSH2 0x333A JUMPI PUSH1 0x0 DUP1 REVERT JUMPDEST PUSH2 0x3346 DUP7 DUP3 DUP8 ADD PUSH2 0x328B JUMP JUMPDEST SWAP2 POP POP SWAP3 POP SWAP3 POP SWAP3 JUMP JUMPDEST PUSH1 0x0 PUSH1 0x1 PUSH1 0x1 PUSH1 0x40 SHL SUB DUP3 GT ISZERO PUSH2 0x3369 JUMPI PUSH2 0x3369 PUSH2 0x3245 JUMP JUMPDEST POP PUSH1 0x5 SHL PUSH1 0x20 ADD SWAP1 JUMP JUMPDEST PUSH1 0x0 DUP3 PUSH1 0x1F DUP4 ADD SLT PUSH2 0x3384 JUMPI PUSH1 0x0 DUP1 REVERT JUMPDEST DUP2 CALLDATALOAD PUSH2 0x3397 PUSH2 0x3392 DUP3 PUSH2 0x3350 JUMP JUMPDEST PUSH2 0x325B JUMP JUMPDEST DUP1 DUP3 DUP3 MSTORE PUSH1 0x20 DUP3 ADD SWAP2 POP PUSH1 0x20 DUP4 PUSH1 0x5 SHL DUP7 ADD ADD SWAP3 POP DUP6 DUP4 GT ISZERO PUSH2 0x33B9 JUMPI PUSH1 0x0 DUP1 REVERT JUMPDEST PUSH1 0x20 DUP6 ADD JUMPDEST DUP4 DUP2 LT ISZERO PUSH2 0x33FA JUMPI DUP1 CALLDATALOAD PUSH1 0x1 PUSH1 0x1 PUSH1 0x40 SHL SUB DUP2 GT ISZERO PUSH2 0x33DC JUMPI PUSH1 0x0 DUP1 REVERT JUMPDEST PUSH2 0x33EB DUP9 PUSH1 0x20 DUP4 DUP11 ADD ADD PUSH2 0x328B JUMP JUMPDEST DUP5 MSTORE POP PUSH1 0x20 SWAP3 DUP4 ADD SWAP3 ADD PUSH2 0x33BE JUMP JUMPDEST POP SWAP6 SWAP5 POP POP POP POP POP JUMP JUMPDEST PUSH1 0x0 DUP3 PUSH1 0x1F DUP4 ADD SLT PUSH2 0x3415 JUMPI PUSH1 0x0 DUP1 REVERT JUMPDEST DUP2 CALLDATALOAD PUSH2 0x3423 PUSH2 0x3392 DUP3 PUSH2 0x3350 JUMP JUMPDEST DUP1 DUP3 DUP3 MSTORE PUSH1 0x20 DUP3 ADD SWAP2 POP PUSH1 0x20 DUP4 PUSH1 0x5 SHL DUP7 ADD ADD SWAP3 POP DUP6 DUP4 GT ISZERO PUSH2 0x3445 JUMPI PUSH1 0x0 DUP1 REVERT JUMPDEST PUSH1 0x20 DUP6 ADD JUMPDEST DUP4 DUP2 LT ISZERO PUSH2 0x33FA JUMPI DUP1 CALLDATALOAD DUP4 MSTORE PUSH1 0x20 SWAP3 DUP4 ADD SWAP3 ADD PUSH2 0x344A JUMP JUMPDEST PUSH1 0x0 DUP1 PUSH1 0x0 DUP1 PUSH1 0x0 DUP1 PUSH1 0x0 DUP1 PUSH1 0x0 PUSH2 0x120 DUP11 DUP13 SUB SLT ISZERO PUSH2 0x3481 JUMPI PUSH1 0x0 DUP1 REVERT JUMPDEST DUP10 CALLDATALOAD PUSH1 0x1 PUSH1 0x1 PUSH1 0x40 SHL SUB DUP2 GT ISZERO PUSH2 0x3497 JUMPI PUSH1 0x0 DUP1 REVERT JUMPDEST PUSH2 0x34A3 DUP13 DUP3 DUP14 ADD PUSH2 0x328B JUMP JUMPDEST SWAP10 POP POP PUSH1 0x20 DUP11 ADD CALLDATALOAD PUSH1 0x1 PUSH1 0x1 PUSH1 0x40 SHL SUB DUP2 GT ISZERO PUSH2 0x34BF JUMPI PUSH1 0x0 DUP1 REVERT JUMPDEST PUSH2 0x34CB DUP13 DUP3 DUP14 ADD PUSH2 0x328B JUMP JUMPDEST SWAP9 POP POP PUSH1 0x40 DUP11 ADD CALLDATALOAD SWAP7 POP PUSH1 0x60 DUP11 ADD CALLDATALOAD SWAP6 POP PUSH1 0x80 DUP11 ADD CALLDATALOAD SWAP5 POP PUSH1 0xA0 DUP11 ADD CALLDATALOAD SWAP4 POP PUSH1 0xC0 DUP11 ADD CALLDATALOAD SWAP3 POP PUSH1 0xE0 DUP11 ADD CALLDATALOAD PUSH1 0x1 PUSH1 0x1 PUSH1 0x40 SHL SUB DUP2 GT ISZERO PUSH2 0x350A JUMPI PUSH1 0x0 DUP1 REVERT JUMPDEST PUSH2 0x3516 DUP13 DUP3 DUP14 ADD PUSH2 0x3373 JUMP JUMPDEST SWAP3 POP POP PUSH2 0x100 DUP11 ADD CALLDATALOAD PUSH1 0x1 PUSH1 0x1 PUSH1 0x40 SHL SUB DUP2 GT ISZERO PUSH2 0x3533 JUMPI PUSH1 0x0 DUP1 REVERT JUMPDEST PUSH2 0x353F DUP13 DUP3 DUP14 ADD PUSH2 0x3404 JUMP JUMPDEST SWAP2 POP POP SWAP3 SWAP6 SWAP9 POP SWAP3 SWAP6 SWAP9 POP SWAP3 SWAP6 SWAP9 JUMP JUMPDEST DUP14 DUP2 MSTORE PUSH1 0x1 PUSH1 0x1 PUSH1 0xA0 SHL SUB DUP14 AND PUSH1 0x20 DUP3 ADD MSTORE PUSH2 0x1A0 PUSH1 0x40 DUP3 ADD DUP2 SWAP1 MSTORE PUSH1 0x0 SWAP1 PUSH2 0x357A SWAP1 DUP4 ADD DUP15 PUSH2 0x3037 JUMP JUMPDEST DUP3 DUP2 SUB PUSH1 0x60 DUP5 ADD MSTORE PUSH2 0x358C DUP2 DUP15 PUSH2 0x3037 JUMP JUMPDEST SWAP2 POP POP DUP11 PUSH1 0x80 DUP4 ADD MSTORE DUP10 PUSH1 0xA0 DUP4 ADD MSTORE DUP9 PUSH1 0xC0 DUP4 ADD MSTORE DUP8 PUSH1 0xE0 DUP4 ADD MSTORE DUP7 PUSH2 0x100 DUP4 ADD MSTORE DUP6 PUSH2 0x120 DUP4 ADD MSTORE PUSH1 0x5 DUP6 LT PUSH2 0x35C5 JUMPI PUSH2 0x35C5 PUSH2 0x3189 JUMP JUMPDEST DUP5 PUSH2 0x140 DUP4 ADD MSTORE PUSH2 0x35DB PUSH2 0x160 DUP4 ADD DUP6 ISZERO ISZERO SWAP1 MSTORE JUMP JUMPDEST DUP3 ISZERO ISZERO PUSH2 0x180 DUP4 ADD MSTORE SWAP15 SWAP14 POP POP POP POP POP POP POP POP POP POP POP POP POP POP JUMP JUMPDEST PUSH1 0x0 DUP1 PUSH1 0x0 DUP1 PUSH1 0x80 DUP6 DUP8 SUB SLT ISZERO PUSH2 0x360C JUMPI PUSH1 0x0 DUP1 REVERT JUMPDEST DUP5 CALLDATALOAD PUSH1 0x1 PUSH1 0x1 PUSH1 0x40 SHL SUB DUP2 GT ISZERO PUSH2 0x3622 JUMPI PUSH1 0x0 DUP1 REVERT JUMPDEST PUSH2 0x362E DUP8 DUP3 DUP9 ADD PUSH2 0x328B JUMP JUMPDEST SWAP5 POP POP PUSH1 0x20 DUP6 ADD CALLDATALOAD PUSH1 0x1 PUSH1 0x1 PUSH1 0x40 SHL SUB DUP2 GT ISZERO PUSH2 0x364A JUMPI PUSH1 0x0 DUP1 REVERT JUMPDEST PUSH2 0x3656 DUP8 DUP3 DUP9 ADD PUSH2 0x328B JUMP JUMPDEST SWAP4 POP POP PUSH1 0x40 DUP6 ADD CALLDATALOAD PUSH1 0x1 PUSH1 0x1 PUSH1 0x40 SHL SUB DUP2 GT ISZERO PUSH2 0x3672 JUMPI PUSH1 0x0 DUP1 REVERT JUMPDEST PUSH2 0x367E DUP8 DUP3 DUP9 ADD PUSH2 0x328B JUMP JUMPDEST SWAP3 POP POP PUSH1 0x60 DUP6 ADD CALLDATALOAD PUSH1 0x1 PUSH1 0x1 PUSH1 0x40 SHL SUB DUP2 GT ISZERO PUSH2 0x369A JUMPI PUSH1 0x0 DUP1 REVERT JUMPDEST PUSH2 0x36A6 DUP8 DUP3 DUP9 ADD PUSH2 0x328B JUMP JUMPDEST SWAP2 POP POP SWAP3 SWAP6 SWAP2 SWAP5 POP SWAP3 POP JUMP JUMPDEST PUSH1 0x0 DUP1 PUSH1 0x40 DUP4 DUP6 SUB SLT ISZERO PUSH2 0x36C5 JUMPI PUSH1 0x0 DUP1 REVERT JUMPDEST DUP3 CALLDATALOAD SWAP2 POP PUSH2 0x36D5 PUSH1 0x20 DUP5 ADD PUSH2 0x3235 JUMP JUMPDEST SWAP1 POP SWAP3 POP SWAP3 SWAP1 POP JUMP JUMPDEST PUSH1 0x0 DUP1 PUSH1 0x40 DUP4 DUP6 SUB SLT ISZERO PUSH2 0x36F1 JUMPI PUSH1 0x0 DUP1 REVERT JUMPDEST DUP3 CALLDATALOAD SWAP2 POP PUSH2 0x36D5 PUSH1 0x20 DUP5 ADD PUSH2 0x3110 JUMP JUMPDEST PUSH1 0x20 DUP1 DUP3 MSTORE DUP3 MLOAD DUP3 DUP3 ADD DUP2 SWAP1 MSTORE PUSH1 0x0 SWAP2 DUP5 ADD SWAP1 PUSH1 0x40 DUP5 ADD SWAP1 DUP4 JUMPDEST DUP2 DUP2 LT ISZERO PUSH2 0x2FF1 JUMPI DUP4 MLOAD DUP4 MSTORE PUSH1 0x20 SWAP4 DUP5 ADD SWAP4 SWAP1 SWAP3 ADD SWAP2 PUSH1 0x1 ADD PUSH2 0x371B JUMP JUMPDEST PUSH1 0x20 DUP1 DUP3 MSTORE PUSH1 0x21 SWAP1 DUP3 ADD MSTORE PUSH32 0x4F6E6C79206F776E65722063616E2063616C6C20746869732066756E6374696F PUSH1 0x40 DUP3 ADD MSTORE PUSH1 0x37 PUSH1 0xF9 SHL PUSH1 0x60 DUP3 ADD MSTORE PUSH1 0x80 ADD SWAP1 JUMP JUMPDEST PUSH1 0x20 DUP1 DUP3 MSTORE PUSH1 0x1E SWAP1 DUP3 ADD MSTORE PUSH32 0x46756E64696E67207265717565737420646F6573206E6F742065786973740000 PUSH1 0x40 DUP3 ADD MSTORE PUSH1 0x60 ADD SWAP1 JUMP JUMPDEST PUSH4 0x4E487B71 PUSH1 0xE0 SHL PUSH1 0x0 MSTORE PUSH1 0x32 PUSH1 0x4 MSTORE PUSH1 0x24 PUSH1 0x0 REVERT JUMPDEST PUSH1 0x20 DUP1 DUP3 MSTORE PUSH1 0x46 SWAP1 DUP3 ADD MSTORE PUSH32 0x4F6E6C7920746865206F7267616E697A6174696F6E2074686174206372656174 PUSH1 0x40 DUP3 ADD MSTORE PUSH32 0x6564207468697320726571756573742063616E2063616C6C2074686973206675 PUSH1 0x60 DUP3 ADD MSTORE PUSH6 0x3731BA34B7B7 PUSH1 0xD1 SHL PUSH1 0x80 DUP3 ADD MSTORE PUSH1 0xA0 ADD SWAP1 JUMP JUMPDEST PUSH4 0x4E487B71 PUSH1 0xE0 SHL PUSH1 0x0 MSTORE PUSH1 0x11 PUSH1 0x4 MSTORE PUSH1 0x24 PUSH1 0x0 REVERT JUMPDEST DUP1 DUP3 MUL DUP2 ISZERO DUP3 DUP3 DIV DUP5 EQ OR PUSH2 0x3860 JUMPI PUSH2 0x3860 PUSH2 0x3833 JUMP JUMPDEST SWAP3 SWAP2 POP POP JUMP JUMPDEST PUSH1 0x0 DUP3 PUSH2 0x3883 JUMPI PUSH4 0x4E487B71 PUSH1 0xE0 SHL PUSH1 0x0 MSTORE PUSH1 0x12 PUSH1 0x4 MSTORE PUSH1 0x24 PUSH1 0x0 REVERT JUMPDEST POP DIV SWAP1 JUMP JUMPDEST DUP2 DUP2 SUB DUP2 DUP2 GT ISZERO PUSH2 0x3860 JUMPI PUSH2 0x3860 PUSH2 0x3833 JUMP JUMPDEST PUSH1 0x1 DUP2 DUP2 SHR SWAP1 DUP3 AND DUP1 PUSH2 0x38AF JUMPI PUSH1 0x7F DUP3 AND SWAP2 POP JUMPDEST PUSH1 0x20 DUP3 LT DUP2 SUB PUSH2 0xE5B JUMPI PUSH4 0x4E487B71 PUSH1 0xE0 SHL PUSH1 0x0 MSTORE PUSH1 0x22 PUSH1 0x4 MSTORE PUSH1 0x24 PUSH1 0x0 REVERT JUMPDEST PUSH1 0x20 DUP1 DUP3 MSTORE PUSH1 0x15 SWAP1 DUP3 ADD MSTORE PUSH21 0x11985A5B1959081D1BC81CD95B99081C99599D5B99 PUSH1 0x5A SHL PUSH1 0x40 DUP3 ADD MSTORE PUSH1 0x60 ADD SWAP1 JUMP JUMPDEST DUP1 DUP3 ADD DUP1 DUP3 GT ISZERO PUSH2 0x3860 JUMPI PUSH2 0x3860 PUSH2 0x3833 JUMP JUMPDEST PUSH1 0x20 DUP2 ADD PUSH2 0x3860 DUP3 DUP5 PUSH2 0x319F JUMP JUMPDEST PUSH1 0x0 PUSH1 0x1 DUP3 ADD PUSH2 0x3931 JUMPI PUSH2 0x3931 PUSH2 0x3833 JUMP JUMPDEST POP PUSH1 0x1 ADD SWAP1 JUMP JUMPDEST PUSH1 0x1F DUP3 GT ISZERO PUSH2 0xCF5 JUMPI DUP1 PUSH1 0x0 MSTORE PUSH1 0x20 PUSH1 0x0 KECCAK256 PUSH1 0x1F DUP5 ADD PUSH1 0x5 SHR DUP2 ADD PUSH1 0x20 DUP6 LT ISZERO PUSH2 0x395F JUMPI POP DUP1 JUMPDEST PUSH1 0x1F DUP5 ADD PUSH1 0x5 SHR DUP3 ADD SWAP2 POP JUMPDEST DUP2 DUP2 LT ISZERO PUSH2 0x397F JUMPI PUSH1 0x0 DUP2 SSTORE PUSH1 0x1 ADD PUSH2 0x396B JUMP JUMPDEST POP POP POP POP POP JUMP JUMPDEST DUP2 MLOAD PUSH1 0x1 PUSH1 0x1 PUSH1 0x40 SHL SUB DUP2 GT ISZERO PUSH2 0x399F JUMPI PUSH2 0x399F PUSH2 0x3245 JUMP JUMPDEST PUSH2 0x39B3 DUP2 PUSH2 0x39AD DUP5 SLOAD PUSH2 0x389B JUMP JUMPDEST DUP5 PUSH2 0x3938 JUMP JUMPDEST PUSH1 0x20 PUSH1 0x1F DUP3 GT PUSH1 0x1 DUP2 EQ PUSH2 0x39E7 JUMPI PUSH1 0x0 DUP4 ISZERO PUSH2 0x39CF JUMPI POP DUP5 DUP3 ADD MLOAD JUMPDEST PUSH1 0x0 NOT PUSH1 0x3 DUP6 SWAP1 SHL SHR NOT AND PUSH1 0x1 DUP5 SWAP1 SHL OR DUP5 SSTORE PUSH2 0x397F JUMP JUMPDEST PUSH1 0x0 DUP5 DUP2 MSTORE PUSH1 0x20 DUP2 KECCAK256 PUSH1 0x1F NOT DUP6 AND SWAP2 JUMPDEST DUP3 DUP2 LT ISZERO PUSH2 0x3A17 JUMPI DUP8 DUP6 ADD MLOAD DUP3 SSTORE PUSH1 0x20 SWAP5 DUP6 ADD SWAP5 PUSH1 0x1 SWAP1 SWAP3 ADD SWAP2 ADD PUSH2 0x39F7 JUMP JUMPDEST POP DUP5 DUP3 LT ISZERO PUSH2 0x3A35 JUMPI DUP7 DUP5 ADD MLOAD PUSH1 0x0 NOT PUSH1 0x3 DUP8 SWAP1 SHL PUSH1 0xF8 AND SHR NOT AND DUP2 SSTORE JUMPDEST POP POP POP POP PUSH1 0x1 SWAP1 DUP2 SHL ADD SWAP1 SSTORE POP JUMP JUMPDEST PUSH1 0x20 DUP2 MSTORE PUSH1 0x0 PUSH2 0x3182 PUSH1 0x20 DUP4 ADD DUP5 PUSH2 0x3037 JUMP INVALID PUSH27 0x482FDEB6BC9A1376F597068A214A7A39472BB2EFF1B8CAD21BA04F BLOBHASH 0xDD 0xCA SHL LOG2 PUSH5 0x6970667358 0x22 SLT KECCAK256 0xED LOG2 GASPRICE KECCAK256 SWAP11 SWAP10 0x22 PUSH7 0xDCCCA9F3581847 CREATE2 SWAP13 AND MUL DUP13 SLOAD PUSH22 0x60245F8BC3E436FB96BD64736F6C634300081C003300 "
        },
        "methodIdentifiers": {
          "MAX_FEE()": "bc063e1a",
          "approveMilestone(uint256,uint256)": "20913da5",
          "autoProcessExpiredFunding(uint256)": "545c68d3",
          "cancelFundingRequest(uint256)": "48a838d9",
          "checkFundingDecisionRequired(uint256)": "408e2024",
          "contribute(uint256)": "c1cbbca7",
          "createFundingRequest(string,string,uint256,uint256,uint256,uint256,uint256,string[],uint256[])": "7b333ed1",
          "fundingRequests(uint256)": "ba561486",
          "getAllOrganizations()": "086ed938",
          "getContribution(uint256,address)": "e081dbf9",
          "getMilestones(uint256)": "42c549c0",
          "getMyRequestIds()": "fb2efc01",
          "getSponsors(uint256)": "ba450ab4",
          "isEventOverdue(uint256)": "67e9668d",
          "makeFundingDecision(uint256,bool)": "d9de9901",
          "markEventCompleted(uint256,bool,string)": "7af2055a",
          "organizations(address)": "5a1f7406",
          "owner()": "8da5cb5b",
          "platformFeePercent()": "8c639a85",
          "processRemainingFunds(uint256)": "57170ff0",
          "registerOrganization(string,string,string,string)": "d2519904",
          "registeredOrgs(uint256)": "23707bc6",
          "releaseMilestoneFunds(uint256,uint256)": "3de1bb15",
          "requestCount()": "5badbe4c",
          "updateOrganizationStatus(address,uint8)": "575f9df0",
          "updatePlatformFee(uint256)": "aa0b5988"
        }
      }
    }
  }
}