{
  "_format": "hh-sol-artifact-1",
  "contractName": "EduCatalyst",
  "sourceName": "contracts/Educatalyst.sol",
  "abi": [
    {
      "inputs": [
        {
          "internalType": "uint256",
          "name": "_platformFeePercent",
          "type": "uint256"
        }
      ],
      "stateMutability": "nonpayable",
      "type": "constructor"
    },
    {
      "anonymous": false,
      "inputs": [
        {
          "indexed": true,
          "internalType": "uint256",
          "name": "requestId",
          "type": "uint256"
        },
        {
          "indexed": true,
          "internalType": "address",
          "name": "sponsor",
          "type": "address"
        },
        {
          "indexed": false,
          "internalType": "uint256",
          "name": "amount",
          "type": "uint256"
        }
      ],
      "name": "ContributionMade",
      "type": "event"
    },
    {
      "anonymous": false,
      "inputs": [
        {
          "indexed": true,
          "internalType": "uint256",
          "name": "requestId",
          "type": "uint256"
        },
        {
          "indexed": false,
          "internalType": "uint256",
          "name": "timestamp",
          "type": "uint256"
        }
      ],
      "name": "EventCompleted",
      "type": "event"
    },
    {
      "anonymous": false,
      "inputs": [
        {
          "indexed": true,
          "internalType": "uint256",
          "name": "requestId",
          "type": "uint256"
        },
        {
          "indexed": false,
          "internalType": "bool",
          "name": "success",
          "type": "bool"
        }
      ],
      "name": "EventVerified",
      "type": "event"
    },
    {
      "anonymous": false,
      "inputs": [
        {
          "indexed": true,
          "internalType": "uint256",
          "name": "requestId",
          "type": "uint256"
        },
        {
          "indexed": false,
          "internalType": "bool",
          "name": "proceedWithEvent",
          "type": "bool"
        }
      ],
      "name": "FundingDecisionMade",
      "type": "event"
    },
    {
      "anonymous": false,
      "inputs": [
        {
          "indexed": true,
          "internalType": "uint256",
          "name": "requestId",
          "type": "uint256"
        },
        {
          "indexed": false,
          "internalType": "uint256",
          "name": "currentAmount",
          "type": "uint256"
        },
        {
          "indexed": false,
          "internalType": "uint256",
          "name": "fundingGoal",
          "type": "uint256"
        }
      ],
      "name": "FundingDecisionRequired",
      "type": "event"
    },
    {
      "anonymous": false,
      "inputs": [
        {
          "indexed": true,
          "internalType": "uint256",
          "name": "requestId",
          "type": "uint256"
        }
      ],
      "name": "FundingGoalReached",
      "type": "event"
    },
    {
      "anonymous": false,
      "inputs": [
        {
          "indexed": true,
          "internalType": "uint256",
          "name": "requestId",
          "type": "uint256"
        }
      ],
      "name": "FundingRequestCanceled",
      "type": "event"
    },
    {
      "anonymous": false,
      "inputs": [
        {
          "indexed": true,
          "internalType": "uint256",
          "name": "requestId",
          "type": "uint256"
        },
        {
          "indexed": true,
          "internalType": "address",
          "name": "orgAddress",
          "type": "address"
        },
        {
          "indexed": false,
          "internalType": "uint256",
          "name": "fundingGoal",
          "type": "uint256"
        },
        {
          "indexed": false,
          "internalType": "uint256",
          "name": "deadline",
          "type": "uint256"
        }
      ],
      "name": "FundingRequestCreated",
      "type": "event"
    },
    {
      "anonymous": false,
      "inputs": [
        {
          "indexed": true,
          "internalType": "uint256",
          "name": "requestId",
          "type": "uint256"
        },
        {
          "indexed": true,
          "internalType": "address",
          "name": "orgAddress",
          "type": "address"
        },
        {
          "indexed": false,
          "internalType": "uint256",
          "name": "amount",
          "type": "uint256"
        }
      ],
      "name": "FundsReleased",
      "type": "event"
    },
    {
      "anonymous": false,
      "inputs": [
        {
          "indexed": true,
          "internalType": "uint256",
          "name": "requestId",
          "type": "uint256"
        },
        {
          "indexed": false,
          "internalType": "uint256",
          "name": "milestoneIndex",
          "type": "uint256"
        }
      ],
      "name": "MilestoneApproved",
      "type": "event"
    },
    {
      "anonymous": false,
      "inputs": [
        {
          "indexed": true,
          "internalType": "address",
          "name": "orgAddress",
          "type": "address"
        },
        {
          "indexed": false,
          "internalType": "string",
          "name": "name",
          "type": "string"
        }
      ],
      "name": "OrganizationRegistered",
      "type": "event"
    },
    {
      "anonymous": false,
      "inputs": [
        {
          "indexed": true,
          "internalType": "address",
          "name": "orgAddress",
          "type": "address"
        },
        {
          "indexed": false,
          "internalType": "enum EduCatalyst.OrganizationStatus",
          "name": "status",
          "type": "uint8"
        }
      ],
      "name": "OrganizationVerified",
      "type": "event"
    },
    {
      "anonymous": false,
      "inputs": [
        {
          "indexed": true,
          "internalType": "uint256",
          "name": "requestId",
          "type": "uint256"
        },
        {
          "indexed": false,
          "internalType": "uint256",
          "name": "amount",
          "type": "uint256"
        }
      ],
      "name": "PartialFundingAccepted",
      "type": "event"
    },
    {
      "anonymous": false,
      "inputs": [
        {
          "indexed": true,
          "internalType": "uint256",
          "name": "requestId",
          "type": "uint256"
        },
        {
          "indexed": true,
          "internalType": "address",
          "name": "sponsor",
          "type": "address"
        },
        {
          "indexed": false,
          "internalType": "uint256",
          "name": "amount",
          "type": "uint256"
        }
      ],
      "name": "RefundIssued",
      "type": "event"
    },
    {
      "anonymous": false,
      "inputs": [
        {
          "indexed": true,
          "internalType": "uint256",
          "name": "requestId",
          "type": "uint256"
        },
        {
          "indexed": false,
          "internalType": "bool",
          "name": "returnedToSponsors",
          "type": "bool"
        }
      ],
      "name": "RemainingFundsProcessed",
      "type": "event"
    },
    {
      "inputs": [],
      "name": "MAX_FEE",
      "outputs": [
        {
          "internalType": "uint256",
          "name": "",
          "type": "uint256"
        }
      ],
      "stateMutability": "view",
      "type": "function"
    },
    {
      "inputs": [
        {
          "internalType": "uint256",
          "name": "_requestId",
          "type": "uint256"
        },
        {
          "internalType": "uint256",
          "name": "_milestoneIndex",
          "type": "uint256"
        }
      ],
      "name": "approveMilestone",
      "outputs": [],
      "stateMutability": "nonpayable",
      "type": "function"
    },
    {
      "inputs": [
        {
          "internalType": "uint256",
          "name": "_requestId",
          "type": "uint256"
        }
      ],
      "name": "autoProcessExpiredFunding",
      "outputs": [],
      "stateMutability": "nonpayable",
      "type": "function"
    },
    {
      "inputs": [
        {
          "internalType": "uint256",
          "name": "_requestId",
          "type": "uint256"
        }
      ],
      "name": "cancelFundingRequest",
      "outputs": [],
      "stateMutability": "nonpayable",
      "type": "function"
    },
    {
      "inputs": [
        {
          "internalType": "uint256",
          "name": "_requestId",
          "type": "uint256"
        }
      ],
      "name": "checkFundingDecisionRequired",
      "outputs": [],
      "stateMutability": "nonpayable",
      "type": "function"
    },
    {
      "inputs": [
        {
          "internalType": "uint256",
          "name": "_requestId",
          "type": "uint256"
        }
      ],
      "name": "contribute",
      "outputs": [],
      "stateMutability": "payable",
      "type": "function"
    },
    {
      "inputs": [
        {
          "internalType": "string",
          "name": "_title",
          "type": "string"
        },
        {
          "internalType": "string",
          "name": "_description",
          "type": "string"
        },
        {
          "internalType": "uint256",
          "name": "_fundingGoal",
          "type": "uint256"
        },
        {
          "internalType": "uint256",
          "name": "_minimumThreshold",
          "type": "uint256"
        },
        {
          "internalType": "uint256",
          "name": "_deadline",
          "type": "uint256"
        },
        {
          "internalType": "uint256",
          "name": "_eventStart",
          "type": "uint256"
        },
        {
          "internalType": "uint256",
          "name": "_eventEnd",
          "type": "uint256"
        },
        {
          "internalType": "string[]",
          "name": "_milestoneDescriptions",
          "type": "string[]"
        },
        {
          "internalType": "uint256[]",
          "name": "_milestonePercentages",
          "type": "uint256[]"
        }
      ],
      "name": "createFundingRequest",
      "outputs": [],
      "stateMutability": "nonpayable",
      "type": "function"
    },
    {
      "inputs": [
        {
          "internalType": "uint256",
          "name": "",
          "type": "uint256"
        }
      ],
      "name": "fundingRequests",
      "outputs": [
        {
          "internalType": "uint256",
          "name": "id",
          "type": "uint256"
        },
        {
          "internalType": "address payable",
          "name": "orgAddress",
          "type": "address"
        },
        {
          "internalType": "string",
          "name": "title",
          "type": "string"
        },
        {
          "internalType": "string",
          "name": "description",
          "type": "string"
        },
        {
          "internalType": "uint256",
          "name": "fundingGoal",
          "type": "uint256"
        },
        {
          "internalType": "uint256",
          "name": "minimumThreshold",
          "type": "uint256"
        },
        {
          "internalType": "uint256",
          "name": "currentAmount",
          "type": "uint256"
        },
        {
          "internalType": "uint256",
          "name": "deadline",
          "type": "uint256"
        },
        {
          "internalType": "uint256",
          "name": "eventStart",
          "type": "uint256"
        },
        {
          "internalType": "uint256",
          "name": "eventEnd",
          "type": "uint256"
        },
        {
          "internalType": "enum EduCatalyst.FundingStatus",
          "name": "status",
          "type": "uint8"
        },
        {
          "internalType": "bool",
          "name": "eventCompleted",
          "type": "bool"
        },
        {
          "internalType": "bool",
          "name": "exists",
          "type": "bool"
        }
      ],
      "stateMutability": "view",
      "type": "function"
    },
    {
      "inputs": [],
      "name": "getAllOrganizations",
      "outputs": [
        {
          "internalType": "address[]",
          "name": "",
          "type": "address[]"
        }
      ],
      "stateMutability": "view",
      "type": "function"
    },
    {
      "inputs": [
        {
          "internalType": "uint256",
          "name": "_requestId",
          "type": "uint256"
        },
        {
          "internalType": "address",
          "name": "_sponsor",
          "type": "address"
        }
      ],
      "name": "getContribution",
      "outputs": [
        {
          "internalType": "uint256",
          "name": "",
          "type": "uint256"
        }
      ],
      "stateMutability": "view",
      "type": "function"
    },
    {
      "inputs": [
        {
          "internalType": "uint256",
          "name": "_requestId",
          "type": "uint256"
        }
      ],
      "name": "getMilestones",
      "outputs": [
        {
          "components": [
            {
              "internalType": "string",
              "name": "description",
              "type": "string"
            },
            {
              "internalType": "uint256",
              "name": "percentage",
              "type": "uint256"
            },
            {
              "internalType": "bool",
              "name": "released",
              "type": "bool"
            },
            {
              "internalType": "bool",
              "name": "approved",
              "type": "bool"
            }
          ],
          "internalType": "struct EduCatalyst.Milestone[]",
          "name": "",
          "type": "tuple[]"
        }
      ],
      "stateMutability": "view",
      "type": "function"
    },
    {
      "inputs": [],
      "name": "getMyRequestIds",
      "outputs": [
        {
          "internalType": "uint256[]",
          "name": "",
          "type": "uint256[]"
        }
      ],
      "stateMutability": "view",
      "type": "function"
    },
    {
      "inputs": [
        {
          "internalType": "uint256",
          "name": "_requestId",
          "type": "uint256"
        }
      ],
      "name": "getSponsors",
      "outputs": [
        {
          "internalType": "address[]",
          "name": "",
          "type": "address[]"
        }
      ],
      "stateMutability": "view",
      "type": "function"
    },
    {
      "inputs": [
        {
          "internalType": "uint256",
          "name": "_requestId",
          "type": "uint256"
        }
      ],
      "name": "isEventOverdue",
      "outputs": [
        {
          "internalType": "bool",
          "name": "",
          "type": "bool"
        }
      ],
      "stateMutability": "view",
      "type": "function"
    },
    {
      "inputs": [
        {
          "internalType": "uint256",
          "name": "_requestId",
          "type": "uint256"
        },
        {
          "internalType": "bool",
          "name": "_proceedWithEvent",
          "type": "bool"
        }
      ],
      "name": "makeFundingDecision",
      "outputs": [],
      "stateMutability": "nonpayable",
      "type": "function"
    },
    {
      "inputs": [
        {
          "internalType": "uint256",
          "name": "_requestId",
          "type": "uint256"
        },
        {
          "internalType": "bool",
          "name": "_success",
          "type": "bool"
        },
        {
          "internalType": "string",
          "name": "_evidenceUri",
          "type": "string"
        }
      ],
      "name": "markEventCompleted",
      "outputs": [],
      "stateMutability": "nonpayable",
      "type": "function"
    },
    {
      "inputs": [
        {
          "internalType": "address",
          "name": "",
          "type": "address"
        }
      ],
      "name": "organizations",
      "outputs": [
        {
          "internalType": "address payable",
          "name": "orgAddress",
          "type": "address"
        },
        {
          "internalType": "string",
          "name": "name",
          "type": "string"
        },
        {
          "internalType": "string",
          "name": "description",
          "type": "string"
        },
        {
          "internalType": "string",
          "name": "website",
          "type": "string"
        },
        {
          "internalType": "string",
          "name": "socialMedia",
          "type": "string"
        },
        {
          "internalType": "enum EduCatalyst.OrganizationStatus",
          "name": "verificationStatus",
          "type": "uint8"
        },
        {
          "internalType": "bool",
          "name": "exists",
          "type": "bool"
        }
      ],
      "stateMutability": "view",
      "type": "function"
    },
    {
      "inputs": [],
      "name": "owner",
      "outputs": [
        {
          "internalType": "address",
          "name": "",
          "type": "address"
        }
      ],
      "stateMutability": "view",
      "type": "function"
    },
    {
      "inputs": [],
      "name": "platformFeePercent",
      "outputs": [
        {
          "internalType": "uint256",
          "name": "",
          "type": "uint256"
        }
      ],
      "stateMutability": "view",
      "type": "function"
    },
    {
      "inputs": [
        {
          "internalType": "uint256",
          "name": "_requestId",
          "type": "uint256"
        }
      ],
      "name": "processRemainingFunds",
      "outputs": [],
      "stateMutability": "nonpayable",
      "type": "function"
    },
    {
      "inputs": [
        {
          "internalType": "string",
          "name": "_name",
          "type": "string"
        },
        {
          "internalType": "string",
          "name": "_description",
          "type": "string"
        },
        {
          "internalType": "string",
          "name": "_website",
          "type": "string"
        },
        {
          "internalType": "string",
          "name": "_socialMedia",
          "type": "string"
        }
      ],
      "name": "registerOrganization",
      "outputs": [],
      "stateMutability": "nonpayable",
      "type": "function"
    },
    {
      "inputs": [
        {
          "internalType": "uint256",
          "name": "",
          "type": "uint256"
        }
      ],
      "name": "registeredOrgs",
      "outputs": [
        {
          "internalType": "address",
          "name": "",
          "type": "address"
        }
      ],
      "stateMutability": "view",
      "type": "function"
    },
    {
      "inputs": [
        {
          "internalType": "uint256",
          "name": "_requestId",
          "type": "uint256"
        },
        {
          "internalType": "uint256",
          "name": "_milestoneIndex",
          "type": "uint256"
        }
      ],
      "name": "releaseMilestoneFunds",
      "outputs": [],
      "stateMutability": "nonpayable",
      "type": "function"
    },
    {
      "inputs": [],
      "name": "requestCount",
      "outputs": [
        {
          "internalType": "uint256",
          "name": "",
          "type": "uint256"
        }
      ],
      "stateMutability": "view",
      "type": "function"
    },
    {
      "inputs": [
        {
          "internalType": "address",
          "name": "_orgAddress",
          "type": "address"
        },
        {
          "internalType": "enum EduCatalyst.OrganizationStatus",
          "name": "_status",
          "type": "uint8"
        }
      ],
      "name": "updateOrganizationStatus",
      "outputs": [],
      "stateMutability": "nonpayable",
      "type": "function"
    },
    {
      "inputs": [
        {
          "internalType": "uint256",
          "name": "_newFeePercent",
          "type": "uint256"
        }
      ],
      "name": "updatePlatformFee",
      "outputs": [],
      "stateMutability": "nonpayable",
      "type": "function"
    }
  ],
  "bytecode": "0x6080604052348015600f57600080fd5b50604051613b63380380613b63833981016040819052602c91608f565b6101f481111560705760405162461bcd60e51b815260206004820152600c60248201526b08ccaca40e8dede40d0d2ced60a31b604482015260640160405180910390fd5b600080546001600160a01b0319163317815560019190915560055560a7565b60006020828403121560a057600080fd5b5051919050565b613aad806100b66000396000f3fe6080604052600436106101815760003560e01c80637af2055a116100d1578063ba5614861161008a578063d251990411610064578063d251990414610497578063d9de9901146104b7578063e081dbf9146104d7578063fb2efc01146104f757600080fd5b8063ba56148614610435578063bc063e1a1461046e578063c1cbbca71461048457600080fd5b80637af2055a1461037f5780637b333ed11461039f5780638c639a85146103bf5780638da5cb5b146103d5578063aa0b5988146103f5578063ba450ab41461041557600080fd5b806348a838d91161013e578063575f9df011610118578063575f9df0146102d85780635a1f7406146102f85780635badbe4c1461032b57806367e9668d1461034f57600080fd5b806348a838d914610278578063545c68d31461029857806357170ff0146102b857600080fd5b8063086ed9381461018657806320913da5146101b157806323707bc6146101d35780633de1bb151461020b578063408e20241461022b57806342c549c01461024b575b600080fd5b34801561019257600080fd5b5061019b610519565b6040516101a89190612fb0565b60405180910390f35b3480156101bd57600080fd5b506101d16101cc366004612ffc565b61057b565b005b3480156101df57600080fd5b506101f36101ee36600461301e565b61079e565b6040516001600160a01b0390911681526020016101a8565b34801561021757600080fd5b506101d1610226366004612ffc565b6107c8565b34801561023757600080fd5b506101d161024636600461301e565b610c11565b34801561025757600080fd5b5061026b61026636600461301e565b610cfa565b6040516101a8919061307d565b34801561028457600080fd5b506101d161029336600461301e565b610e61565b3480156102a457600080fd5b506101d16102b336600461301e565b6110b2565b3480156102c457600080fd5b506101d16102d336600461301e565b61132f565b3480156102e457600080fd5b506101d16102f336600461312c565b61176e565b34801561030457600080fd5b50610318610313366004613167565b61188f565b6040516101a897969594939291906131b3565b34801561033757600080fd5b5061034160055481565b6040519081526020016101a8565b34801561035b57600080fd5b5061036f61036a36600461301e565b611afa565b60405190151581526020016101a8565b34801561038b57600080fd5b506101d161039a3660046132fa565b611ba6565b3480156103ab57600080fd5b506101d16103ba366004613462565b611e18565b3480156103cb57600080fd5b5061034160015481565b3480156103e157600080fd5b506000546101f3906001600160a01b031681565b34801561040157600080fd5b506101d161041036600461301e565b61229d565b34801561042157600080fd5b5061019b61043036600461301e565b61230d565b34801561044157600080fd5b5061045561045036600461301e565b6123b6565b6040516101a89d9c9b9a9998979695949392919061354f565b34801561047a57600080fd5b506103416101f481565b6101d161049236600461301e565b61253c565b3480156104a357600080fd5b506101d16104b23660046135f6565b612796565b3480156104c357600080fd5b506101d16104d23660046136b2565b612981565b3480156104e357600080fd5b506103416104f23660046136de565b612dd7565b34801561050357600080fd5b5061050c612e3d565b6040516101a89190613701565b6060600480548060200260200160405190810160405280929190818152602001828054801561057157602002820191906000526020600020905b81546001600160a01b03168152600190910190602001808311610553575b5050505050905090565b6000546001600160a01b031633146105ae5760405162461bcd60e51b81526004016105a590613739565b60405180910390fd5b6000828152600360205260409020600e01548290610100900460ff166105e65760405162461bcd60e51b81526004016105a59061377a565b60008381526003602052604090206001600a82015460ff16600481111561060f5761060f613189565b148061063357506002600a82015460ff16600481111561063157610631613189565b145b6106775760405162461bcd60e51b815260206004820152601560248201527414995c5d595cdd081a5cc81b9bdd08199d5b991959605a1b60448201526064016105a5565b600b81015483106106c45760405162461bcd60e51b8152602060048201526017602482015276092dcecc2d8d2c840dad2d8cae6e8dedcca40d2dcc8caf604b1b60448201526064016105a5565b600081600b0184815481106106db576106db6137b1565b906000526020600020906003020190508060020160019054906101000a900460ff161561074a5760405162461bcd60e51b815260206004820152601a60248201527f4d696c6573746f6e6520616c726561647920617070726f76656400000000000060448201526064016105a5565b60028101805461ff00191661010017905560405185907f939da3b627c123c81fe5aacebf925163337a0d4f8a03724640618078cad248949061078f9087815260200190565b60405180910390a25050505050565b600481815481106107ae57600080fd5b6000918252602090912001546001600160a01b0316905081565b6000828152600360205260409020600e01548290610100900460ff166108005760405162461bcd60e51b81526004016105a59061377a565b60008381526003602052604090206001015483906001600160a01b0316331461083b5760405162461bcd60e51b81526004016105a5906137c7565b60008481526003602052604090206001600a82015460ff16600481111561086457610864613189565b148061088857506002600a82015460ff16600481111561088657610886613189565b145b6108cc5760405162461bcd60e51b815260206004820152601560248201527414995c5d595cdd081a5cc81b9bdd08199d5b991959605a1b60448201526064016105a5565b600b81015484106109195760405162461bcd60e51b8152602060048201526017602482015276092dcecc2d8d2c840dad2d8cae6e8dedcca40d2dcc8caf604b1b60448201526064016105a5565b600081600b018581548110610930576109306137b1565b906000526020600020906003020190508060020160019054906101000a900460ff1661099e5760405162461bcd60e51b815260206004820152601a60248201527f4d696c6573746f6e65206e6f7420617070726f7665642079657400000000000060448201526064016105a5565b600281015460ff1615610a055760405162461bcd60e51b815260206004820152602960248201527f46756e647320616c72656164792072656c656173656420666f722074686973206044820152686d696c6573746f6e6560b81b60648201526084016105a5565b600061271082600101548460060154610a1e9190613849565b610a289190613866565b9050600061271060015483610a3d9190613849565b610a479190613866565b90506000610a558284613888565b60028501805460ff191660019081179091558601546040519192506000916001600160a01b039091169083908381818185875af1925050503d8060008114610ab9576040519150601f19603f3d011682016040523d82523d6000602084013e610abe565b606091505b5050905080610b1b5760405162461bcd60e51b8152602060048201526024808201527f4661696c656420746f2073656e642066756e647320746f206f7267616e697a616044820152633a34b7b760e11b60648201526084016105a5565b600080546040516001600160a01b039091169085908381818185875af1925050503d8060008114610b68576040519150601f19603f3d011682016040523d82523d6000602084013e610b6d565b606091505b5050905080610bbe5760405162461bcd60e51b815260206004820152601b60248201527f4661696c656420746f2073656e6420706c6174666f726d20666565000000000060448201526064016105a5565b60018701546040518481526001600160a01b03909116908c907f6e3c6096795c8298a218b2cfb8bde42726ff7c9a3d27b4d3ba41ab7f74feb5fb9060200160405180910390a35050505050505050505050565b6000818152600360205260409020600e01548190610100900460ff16610c495760405162461bcd60e51b81526004016105a59061377a565b600082815260036020526040812090600a82015460ff166004811115610c7157610c71613189565b148015610c82575080600701544210155b8015610c915750806008015442105b8015610ca4575080600401548160060154105b15610cf557827f8a91e46d786d8f538629e214b62e7ed67786c45dbcde2488ecfe1de11e85b07782600601548360040154604051610cec929190918252602082015260400190565b60405180910390a25b505050565b6000818152600360205260409020600e01546060908290610100900460ff16610d355760405162461bcd60e51b81526004016105a59061377a565b6000838152600360209081526040808320600b0180548251818502810185019093528083529193909284015b82821015610e545783829060005260206000209060030201604051806080016040529081600082018054610d949061389b565b80601f0160208091040260200160405190810160405280929190818152602001828054610dc09061389b565b8015610e0d5780601f10610de257610100808354040283529160200191610e0d565b820191906000526020600020905b815481529060010190602001808311610df057829003601f168201915b505050918352505060018281015460208084019190915260029093015460ff8082161515604085015261010090910416151560609092019190915291835292019101610d61565b5050505091505b50919050565b6000818152600360205260409020600e01548190610100900460ff16610e995760405162461bcd60e51b81526004016105a59061377a565b60008281526003602052604090206001015482906001600160a01b03163314610ed45760405162461bcd60e51b81526004016105a5906137c7565b600083815260036020526040812090600a82015460ff166004811115610efc57610efc613189565b14610f5b5760405162461bcd60e51b815260206004820152602960248201527f43616e6e6f742063616e63656c2061207265717565737420746861742069736e60448201526827742061637469766560b81b60648201526084016105a5565b600a8101805460ff1916600417905560005b600c82015481101561108057600082600c018281548110610f9057610f906137b1565b60009182526020808320909101546001600160a01b0316808352600d86019091526040909120549091508015611076576001600160a01b0382166000818152600d860160205260408082208290555190919083908381818185875af1925050503d806000811461101c576040519150601f19603f3d011682016040523d82523d6000602084013e611021565b606091505b50509050806110425760405162461bcd60e51b81526004016105a5906138cf565b826001600160a01b031688600080516020613a588339815191528460405161106c91815260200190565b60405180910390a3505b5050600101610f6d565b5060405184907fb5b43989547011da0897c8feeacdf8746eacbc72c701dbcdd9a88ba4491e73c690600090a250505050565b6000818152600360205260409020600e01548190610100900460ff166110ea5760405162461bcd60e51b81526004016105a59061377a565b600082815260036020526040812090600a82015460ff16600481111561111257611112613189565b146111575760405162461bcd60e51b815260206004820152601560248201527452657175657374206973206e6f742061637469766560581b60448201526064016105a5565b80600801544210156111ab5760405162461bcd60e51b815260206004820152601960248201527f4576656e7420686173206e6f742073746172746564207965740000000000000060448201526064016105a5565b600a8101805460ff1916600417905560005b600c8201548110156112d057600082600c0182815481106111e0576111e06137b1565b60009182526020808320909101546001600160a01b0316808352600d860190915260409091205490915080156112c6576001600160a01b0382166000818152600d860160205260408082208290555190919083908381818185875af1925050503d806000811461126c576040519150601f19603f3d011682016040523d82523d6000602084013e611271565b606091505b50509050806112925760405162461bcd60e51b81526004016105a5906138cf565b826001600160a01b031687600080516020613a58833981519152846040516112bc91815260200190565b60405180910390a3505b50506001016111bd565b5060405183907fb5b43989547011da0897c8feeacdf8746eacbc72c701dbcdd9a88ba4491e73c690600090a26040516000815283907fcbe070ab725b0b5bdacb047035ffe5246a56f9c6de4da610652dec0333311e7990602001610cec565b6000818152600360205260409020600e01548190610100900460ff166113675760405162461bcd60e51b81526004016105a59061377a565b6000828152600360205260409020600e81015460ff1680611398575060098101546113959062278d006138fe565b42115b6113fe5760405162461bcd60e51b815260206004820152603160248201527f4576656e74206973206e6f7420636f6d706c65746564206f72206772616365206044820152701c195c9a5bd9081b9bdd081c185cdcd959607a1b60648201526084016105a5565b6001600a82015460ff16600481111561141957611419613189565b148061143d57506002600a82015460ff16600481111561143b5761143b613189565b145b6114825760405162461bcd60e51b815260206004820152601660248201527514995c5d595cdd081b5d5cdd08189948199d5b99195960521b60448201526064016105a5565b6000546001600160a01b03163314806114a7575060018101546001600160a01b031633145b6115125760405162461bcd60e51b815260206004820152603660248201527f4f6e6c79206f776e6572206f72206f7267616e697a6174696f6e2063616e2070604482015275726f636573732072656d61696e696e672066756e647360501b60648201526084016105a5565b6006810154600090815b600b8401548110156115ad5783600b01818154811061153d5761153d6137b1565b600091825260209091206002600390920201015460ff16156115a55761271084600b018281548110611571576115716137b1565b9060005260206000209060030201600101548361158e9190613849565b6115989190613866565b6115a290846138fe565b92505b60010161151c565b5060006115ba8383613888565b905080156117665760008460090154624f1a006115d791906138fe565b4211806115fd5750600e85015460ff1680156115fd57506000546001600160a01b031633145b905080156117285760005b600c86015481101561172657600086600c01828154811061162b5761162b6137b1565b60009182526020808320909101546001600160a01b0316808352600d8a01909152604090912054909150801561171c576000866116688388613849565b6116729190613866565b90506000836001600160a01b03168260405160006040518083038185875af1925050503d80600081146116c1576040519150601f19603f3d011682016040523d82523d6000602084013e6116c6565b606091505b50509050806116e75760405162461bcd60e51b81526004016105a5906138cf565b836001600160a01b03168c600080516020613a588339815191528460405161171191815260200190565b60405180910390a350505b5050600101611608565b505b867f44d6bc28a22861f3e2375c0b7f244fac349c8106e123d6e745c675b1acd282ed8260405161175c911515815260200190565b60405180910390a2505b505050505050565b6000546001600160a01b031633146117985760405162461bcd60e51b81526004016105a590613739565b6001600160a01b038216600090815260026020526040902060050154610100900460ff166118085760405162461bcd60e51b815260206004820152601b60248201527f4f7267616e697a6174696f6e20646f6573206e6f74206578697374000000000060448201526064016105a5565b6001600160a01b03821660009081526002602081905260409091206005018054839260ff1990911690600190849081111561184557611845613189565b0217905550816001600160a01b03167f9071f59203b36b863cb1a67a26002404be3e8cf68aa85b8b1f5fce694a87c8b2826040516118839190613911565b60405180910390a25050565b600260205260009081526040902080546001820180546001600160a01b0390921692916118bb9061389b565b80601f01602080910402602001604051908101604052809291908181526020018280546118e79061389b565b80156119345780601f1061190957610100808354040283529160200191611934565b820191906000526020600020905b81548152906001019060200180831161191757829003601f168201915b5050505050908060020180546119499061389b565b80601f01602080910402602001604051908101604052809291908181526020018280546119759061389b565b80156119c25780601f10611997576101008083540402835291602001916119c2565b820191906000526020600020905b8154815290600101906020018083116119a557829003601f168201915b5050505050908060030180546119d79061389b565b80601f0160208091040260200160405190810160405280929190818152602001828054611a039061389b565b8015611a505780601f10611a2557610100808354040283529160200191611a50565b820191906000526020600020905b815481529060010190602001808311611a3357829003601f168201915b505050505090806004018054611a659061389b565b80601f0160208091040260200160405190810160405280929190818152602001828054611a919061389b565b8015611ade5780601f10611ab357610100808354040283529160200191611ade565b820191906000526020600020905b815481529060010190602001808311611ac157829003601f168201915b5050506005909301549192505060ff8082169161010090041687565b6000818152600360205260408120600e01548290610100900460ff16611b325760405162461bcd60e51b81526004016105a59061377a565b6000838152600360205260409020600981015442118015611b585750600e81015460ff16155b8015611b9e57506001600a82015460ff166004811115611b7a57611b7a613189565b1480611b9e57506002600a82015460ff166004811115611b9c57611b9c613189565b145b949350505050565b6000838152600360205260409020600e01548390610100900460ff16611bde5760405162461bcd60e51b81526004016105a59061377a565b60008481526003602052604090206001015484906001600160a01b03163314611c195760405162461bcd60e51b81526004016105a5906137c7565b60008581526003602052604090206009810154421015611c855760405162461bcd60e51b815260206004820152602160248201527f4576656e7420656e64206461746520686173206e6f74207061737365642079656044820152601d60fa1b60648201526084016105a5565b600e81015460ff1615611ce45760405162461bcd60e51b815260206004820152602160248201527f4576656e7420616c7265616479206d61726b656420617320636f6d706c6574656044820152601960fa1b60648201526084016105a5565b6001600a82015460ff166004811115611cff57611cff613189565b1480611d2357506002600a82015460ff166004811115611d2157611d21613189565b145b611d835760405162461bcd60e51b815260206004820152602b60248201527f52657175657374206d7573742062652066756e64656420746f206d61726b206160448201526a1cc818dbdb5c1b195d195960aa1b60648201526084016105a5565b600e8101805460ff1916600117905560405186907fd0c6226532d32cb132032f6291291b0fbcbed8d78826dc075335925a1e82e9fb90611dc69042815260200190565b60405180910390a2857f3e7974cb8c7814ba32cbb7925a9e23ccf2a3eee3c6ece5eba091c524651d150386604051611e02911515815260200190565b60405180910390a284611766576117668661132f565b33600090815260026020526040902060050154610100900460ff16611e9c5760405162461bcd60e51b815260206004820152603460248201527f4f6e6c792072656769737465726564206f7267616e697a6174696f6e73206361604482015273371031b0b636103a3434b990333ab731ba34b7b760611b60648201526084016105a5565b612710861115611eee5760405162461bcd60e51b815260206004820152601c60248201527f5468726573686f6c642063616e6e6f742065786365656420313030250000000060448201526064016105a5565b428511611f3d5760405162461bcd60e51b815260206004820152601e60248201527f446561646c696e65206d75737420626520696e2074686520667574757265000060448201526064016105a5565b84841015611f9d5760405162461bcd60e51b815260206004820152602760248201527f4576656e74206d7573742073746172742061667465722066756e64696e6720646044820152666561646c696e6560c81b60648201526084016105a5565b838311611fec5760405162461bcd60e51b815260206004820152601d60248201527f4576656e7420656e64206d75737420626520616674657220737461727400000060448201526064016105a5565b805182511461203d5760405162461bcd60e51b815260206004820152601b60248201527f4d696c6573746f6e6520617272617973206d757374206d61746368000000000060448201526064016105a5565b6000805b82518110156120795782818151811061205c5761205c6137b1565b60200260200101518261206f91906138fe565b9150600101612041565b5080612710146120d95760405162461bcd60e51b815260206004820152602560248201527f4d696c6573746f6e652070657263656e7461676573206d75737420746f74616c604482015264203130302560d81b60648201526084016105a5565b600580549060006120e98361391f565b909155505060055460008181526003602052604090208181556001810180546001600160a01b03191633179055600281016121248d82613986565b50600381016121338c82613986565b50600481018a905560058101899055600060068201819055600782018990556008820188905560098201879055600a8201805460ff19169055600e8201805461ffff19166101001790555b85518110156122515781600b0160405180608001604052808884815181106121a8576121a86137b1565b602002602001015181526020018784815181106121c7576121c76137b1565b6020908102919091018101518252600082820181905260409092018290528354600181018555938252902081519192600302019081906122079082613986565b50602082015160018083019190915560408301516002909201805460609094015115156101000261ff00199315159390931661ffff1990941693909317919091179091550161217e565b50604080518b8152602081018a9052339184917fa995a99cd81d7f81abd4cb347b21641d59900a55f92298fc46ee911c3b89023e910160405180910390a3505050505050505050505050565b6000546001600160a01b031633146122c75760405162461bcd60e51b81526004016105a590613739565b6101f48111156123085760405162461bcd60e51b815260206004820152600c60248201526b08ccaca40e8dede40d0d2ced60a31b60448201526064016105a5565b600155565b6000818152600360205260409020600e01546060908290610100900460ff166123485760405162461bcd60e51b81526004016105a59061377a565b600083815260036020908152604091829020600c01805483518184028101840190945280845290918301828280156123a957602002820191906000526020600020905b81546001600160a01b0316815260019091019060200180831161238b575b5050505050915050919050565b60036020526000908152604090208054600182015460028301805492936001600160a01b03909216926123e89061389b565b80601f01602080910402602001604051908101604052809291908181526020018280546124149061389b565b80156124615780601f1061243657610100808354040283529160200191612461565b820191906000526020600020905b81548152906001019060200180831161244457829003601f168201915b5050505050908060030180546124769061389b565b80601f01602080910402602001604051908101604052809291908181526020018280546124a29061389b565b80156124ef5780601f106124c4576101008083540402835291602001916124ef565b820191906000526020600020905b8154815290600101906020018083116124d257829003601f168201915b505050600484015460058501546006860154600787015460088801546009890154600a8a0154600e909a0154989995989497509295509093909260ff91821691818116916101009004168d565b6000818152600360205260409020600e01548190610100900460ff166125745760405162461bcd60e51b81526004016105a59061377a565b600082815260036020526040812090600a82015460ff16600481111561259c5761259c613189565b146125e15760405162461bcd60e51b815260206004820152601560248201527446756e64696e67206973206e6f742061637469766560581b60448201526064016105a5565b806007015442106126345760405162461bcd60e51b815260206004820152601b60248201527f46756e64696e6720646561646c696e652068617320706173736564000000000060448201526064016105a5565b600034116126905760405162461bcd60e51b815260206004820152602360248201527f436f6e747269627574696f6e206d75737420626520677265617465722074686160448201526206e20360ec1b60648201526084016105a5565b336000908152600d8201602052604081205490036126d057600c81018054600181018255600091825260209091200180546001600160a01b031916331790555b336000908152600d82016020526040812080543492906126f19084906138fe565b925050819055503481600601600082825461270c91906138fe565b9091555050604051348152339084907f0a4a91237423e0a1766a761c7cb029311d8b95d6b1b81db1b949a70c98b4e08e9060200160405180910390a38060040154816006015410610cf557600a8101805460ff1916600117905560405183907fbdf8e8154212732e32053db049accdd4ff27639d7028ecf127e2353161b994bf90600090a2505050565b33600090815260026020526040902060050154610100900460ff16156127fe5760405162461bcd60e51b815260206004820152601f60248201527f4f7267616e697a6174696f6e20616c726561647920726567697374657265640060448201526064016105a5565b6040805160e08101825233815260208101869052908101849052606081018390526080810182905260a0810160008152600160209182018190523360009081526002835260409020835181546001600160a01b0319166001600160a01b0390911617815591830151908201906128749082613986565b50604082015160028201906128899082613986565b506060820151600382019061289e9082613986565b50608082015160048201906128b39082613986565b5060a082015160058201805460ff191660018360028111156128d7576128d7613189565b021790555060c09190910151600590910180549115156101000261ff0019909216919091179055600480546001810182556000919091527f8a35acfbc15ff81a39ae7d344fd709f28e8600b4aa8c65c6b64bfe7fe36bd19b0180546001600160a01b031916339081179091556040517f783e607e94efcb9adce3489c806008ddc378d784ae22a1f801458720054325a290612973908790613a44565b60405180910390a250505050565b6000828152600360205260409020600e01548290610100900460ff166129b95760405162461bcd60e51b81526004016105a59061377a565b60008381526003602052604090206001015483906001600160a01b031633146129f45760405162461bcd60e51b81526004016105a5906137c7565b600084815260036020526040812090600a82015460ff166004811115612a1c57612a1c613189565b14612a615760405162461bcd60e51b815260206004820152601560248201527452657175657374206973206e6f742061637469766560581b60448201526064016105a5565b8060070154421015612ac15760405162461bcd60e51b815260206004820152602360248201527f46756e64696e6720646561646c696e6520686173206e6f7420706173736564206044820152621e595d60ea1b60648201526084016105a5565b80600801544210612b145760405162461bcd60e51b815260206004820152601960248201527f4576656e742068617320616c726561647920737461727465640000000000000060448201526064016105a5565b8060040154816006015410612b6b5760405162461bcd60e51b815260206004820152601860248201527f46756e64696e6720676f616c20616c7265616479206d6574000000000000000060448201526064016105a5565b8315612c5157600081600401548260060154612710612b8a9190613849565b612b949190613866565b90508160050154811015612c025760405162461bcd60e51b815260206004820152602f60248201527f43757272656e742066756e64696e6720646f6573206e6f74206d656574206d6960448201526e1b9a5b5d5b481d1a1c995cda1bdb19608a1b60648201526084016105a5565b600a8201805460ff19166002179055600682015460405190815286907f8eccb522dda8c3ea7180ed6b8d995dbbefbe35fbadd88001ea5ffc9f5841d37a9060200160405180910390a250612da3565b600a8101805460ff1916600417905560005b600c820154811015612d7657600082600c018281548110612c8657612c866137b1565b60009182526020808320909101546001600160a01b0316808352600d86019091526040909120549091508015612d6c576001600160a01b0382166000818152600d860160205260408082208290555190919083908381818185875af1925050503d8060008114612d12576040519150601f19603f3d011682016040523d82523d6000602084013e612d17565b606091505b5050905080612d385760405162461bcd60e51b81526004016105a5906138cf565b826001600160a01b031689600080516020613a5883398151915284604051612d6291815260200190565b60405180910390a3505b5050600101612c63565b5060405185907fb5b43989547011da0897c8feeacdf8746eacbc72c701dbcdd9a88ba4491e73c690600090a25b847fcbe070ab725b0b5bdacb047035ffe5246a56f9c6de4da610652dec0333311e798560405161078f911515815260200190565b6000828152600360205260408120600e01548390610100900460ff16612e0f5760405162461bcd60e51b81526004016105a59061377a565b505060009182526003602090815260408084206001600160a01b03939093168452600d909201905290205490565b606060006005546001600160401b03811115612e5b57612e5b613245565b604051908082528060200260200182016040528015612e84578160200160208202803683370190505b509050600060015b6005548111612f17576000818152600360205260409020600e0154610100900460ff168015612ed457506000818152600360205260409020600101546001600160a01b031633145b15612f055780838381518110612eec57612eec6137b1565b602090810291909101015281612f018161391f565b9250505b80612f0f8161391f565b915050612e8c565b506000816001600160401b03811115612f3257612f32613245565b604051908082528060200260200182016040528015612f5b578160200160208202803683370190505b50905060005b82811015612fa857838181518110612f7b57612f7b6137b1565b6020026020010151828281518110612f9557612f956137b1565b6020908102919091010152600101612f61565b509392505050565b602080825282518282018190526000918401906040840190835b81811015612ff15783516001600160a01b0316835260209384019390920191600101612fca565b509095945050505050565b6000806040838503121561300f57600080fd5b50508035926020909101359150565b60006020828403121561303057600080fd5b5035919050565b6000815180845260005b8181101561305d57602081850181015186830182015201613041565b506000602082860101526020601f19601f83011685010191505092915050565b6000602082016020835280845180835260408501915060408160051b86010192506020860160005b8281101561310457603f1987860301845281518051608087526130cb6080880182613037565b602083810151898201526040808501511515908a01526060938401511515939098019290925250949384019391909101906001016130a5565b50929695505050505050565b80356001600160a01b038116811461312757600080fd5b919050565b6000806040838503121561313f57600080fd5b61314883613110565b915060208301356003811061315c57600080fd5b809150509250929050565b60006020828403121561317957600080fd5b61318282613110565b9392505050565b634e487b7160e01b600052602160045260246000fd5b600381106131af576131af613189565b9052565b6001600160a01b038816815260e0602082018190526000906131d790830189613037565b82810360408401526131e98189613037565b905082810360608401526131fd8188613037565b905082810360808401526132118187613037565b91505061322160a083018561319f565b82151560c083015298975050505050505050565b8035801515811461312757600080fd5b634e487b7160e01b600052604160045260246000fd5b604051601f8201601f191681016001600160401b038111828210171561328357613283613245565b604052919050565b600082601f83011261329c57600080fd5b81356001600160401b038111156132b5576132b5613245565b6132c8601f8201601f191660200161325b565b8181528460208386010111156132dd57600080fd5b816020850160208301376000918101602001919091529392505050565b60008060006060848603121561330f57600080fd5b8335925061331f60208501613235565b915060408401356001600160401b0381111561333a57600080fd5b6133468682870161328b565b9150509250925092565b60006001600160401b0382111561336957613369613245565b5060051b60200190565b600082601f83011261338457600080fd5b813561339761339282613350565b61325b565b8082825260208201915060208360051b8601019250858311156133b957600080fd5b602085015b838110156133fa5780356001600160401b038111156133dc57600080fd5b6133eb886020838a010161328b565b845250602092830192016133be565b5095945050505050565b600082601f83011261341557600080fd5b813561342361339282613350565b8082825260208201915060208360051b86010192508583111561344557600080fd5b602085015b838110156133fa57803583526020928301920161344a565b60008060008060008060008060006101208a8c03121561348157600080fd5b89356001600160401b0381111561349757600080fd5b6134a38c828d0161328b565b99505060208a01356001600160401b038111156134bf57600080fd5b6134cb8c828d0161328b565b98505060408a0135965060608a0135955060808a0135945060a08a0135935060c08a0135925060e08a01356001600160401b0381111561350a57600080fd5b6135168c828d01613373565b9250506101008a01356001600160401b0381111561353357600080fd5b61353f8c828d01613404565b9150509295985092959850929598565b8d81526001600160a01b038d1660208201526101a06040820181905260009061357a9083018e613037565b828103606084015261358c818e613037565b9150508a60808301528960a08301528860c08301528760e08301528661010083015285610120830152600585106135c5576135c5613189565b846101408301526135db61016083018515159052565b8215156101808301529e9d5050505050505050505050505050565b6000806000806080858703121561360c57600080fd5b84356001600160401b0381111561362257600080fd5b61362e8782880161328b565b94505060208501356001600160401b0381111561364a57600080fd5b6136568782880161328b565b93505060408501356001600160401b0381111561367257600080fd5b61367e8782880161328b565b92505060608501356001600160401b0381111561369a57600080fd5b6136a68782880161328b565b91505092959194509250565b600080604083850312156136c557600080fd5b823591506136d560208401613235565b90509250929050565b600080604083850312156136f157600080fd5b823591506136d560208401613110565b602080825282518282018190526000918401906040840190835b81811015612ff157835183526020938401939092019160010161371b565b60208082526021908201527f4f6e6c79206f776e65722063616e2063616c6c20746869732066756e6374696f6040820152603760f91b606082015260800190565b6020808252601e908201527f46756e64696e67207265717565737420646f6573206e6f742065786973740000604082015260600190565b634e487b7160e01b600052603260045260246000fd5b60208082526046908201527f4f6e6c7920746865206f7267616e697a6174696f6e207468617420637265617460408201527f6564207468697320726571756573742063616e2063616c6c20746869732066756060820152653731ba34b7b760d11b608082015260a00190565b634e487b7160e01b600052601160045260246000fd5b808202811582820484141761386057613860613833565b92915050565b60008261388357634e487b7160e01b600052601260045260246000fd5b500490565b8181038181111561386057613860613833565b600181811c908216806138af57607f821691505b602082108103610e5b57634e487b7160e01b600052602260045260246000fd5b60208082526015908201527411985a5b1959081d1bc81cd95b99081c99599d5b99605a1b604082015260600190565b8082018082111561386057613860613833565b60208101613860828461319f565b60006001820161393157613931613833565b5060010190565b601f821115610cf557806000526020600020601f840160051c8101602085101561395f5750805b601f840160051c820191505b8181101561397f576000815560010161396b565b5050505050565b81516001600160401b0381111561399f5761399f613245565b6139b3816139ad845461389b565b84613938565b6020601f8211600181146139e757600083156139cf5750848201515b600019600385901b1c1916600184901b17845561397f565b600084815260208120601f198516915b82811015613a1757878501518255602094850194600190920191016139f7565b5084821015613a355786840151600019600387901b60f8161c191681555b50505050600190811b01905550565b602081526000613182602083018461303756fe7a482fdeb6bc9a1376f597068a214a7a39472bb2eff1b8cad21ba04f49ddca1ba2646970667358221220eda23a209a992266dccca9f3581847f59c16028c547560245f8bc3e436fb96bd64736f6c634300081c0033",
  "linkReferences": {},
  "deployedLinkReferences": {}
}