{
  "_format": "hh-sol-artifact-1",
  "contractName": "EduCatalystCore",
  "sourceName": "contracts/Educatalyst.sol",
  "abi": [
    {
      "inputs": [
        {
          "internalType": "uint256",
          "name": "_platformFeePercent",
          "type": "uint256"
        }
      ],
      "stateMutability": "nonpayable",
      "type": "constructor"
    },
    {
      "inputs": [],
      "name": "MAX_FEE",
      "outputs": [
        {
          "internalType": "uint256",
          "name": "",
          "type": "uint256"
        }
      ],
      "stateMutability": "view",
      "type": "function"
    },
    {
      "inputs": [],
      "name": "fundingContract",
      "outputs": [
        {
          "internalType": "contract EduCatalystFunding",
          "name": "",
          "type": "address"
        }
      ],
      "stateMutability": "view",
      "type": "function"
    },
    {
      "inputs": [],
      "name": "getPlatformFee",
      "outputs": [
        {
          "internalType": "uint256",
          "name": "",
          "type": "uint256"
        }
      ],
      "stateMutability": "view",
      "type": "function"
    },
    {
      "inputs": [],
      "name": "milestoneContract",
      "outputs": [
        {
          "internalType": "contract EduCatalystMilestone",
          "name": "",
          "type": "address"
        }
      ],
      "stateMutability": "view",
      "type": "function"
    },
    {
      "inputs": [],
      "name": "organizationContract",
      "outputs": [
        {
          "internalType": "contract EduCatalystOrganization",
          "name": "",
          "type": "address"
        }
      ],
      "stateMutability": "view",
      "type": "function"
    },
    {
      "inputs": [],
      "name": "owner",
      "outputs": [
        {
          "internalType": "address",
          "name": "",
          "type": "address"
        }
      ],
      "stateMutability": "view",
      "type": "function"
    },
    {
      "inputs": [],
      "name": "platformFeePercent",
      "outputs": [
        {
          "internalType": "uint256",
          "name": "",
          "type": "uint256"
        }
      ],
      "stateMutability": "view",
      "type": "function"
    },
    {
      "inputs": [
        {
          "internalType": "address",
          "name": "_fundingContract",
          "type": "address"
        }
      ],
      "name": "setFundingContract",
      "outputs": [],
      "stateMutability": "nonpayable",
      "type": "function"
    },
    {
      "inputs": [
        {
          "internalType": "address",
          "name": "_milestoneContract",
          "type": "address"
        }
      ],
      "name": "setMilestoneContract",
      "outputs": [],
      "stateMutability": "nonpayable",
      "type": "function"
    },
    {
      "inputs": [
        {
          "internalType": "address",
          "name": "_organizationContract",
          "type": "address"
        }
      ],
      "name": "setOrganizationContract",
      "outputs": [],
      "stateMutability": "nonpayable",
      "type": "function"
    },
    {
      "inputs": [
        {
          "internalType": "address",
          "name": "_newOwner",
          "type": "address"
        }
      ],
      "name": "transferOwnership",
      "outputs": [],
      "stateMutability": "nonpayable",
      "type": "function"
    },
    {
      "inputs": [
        {
          "internalType": "uint256",
          "name": "_newFeePercent",
          "type": "uint256"
        }
      ],
      "name": "updatePlatformFee",
      "outputs": [],
      "stateMutability": "nonpayable",
      "type": "function"
    }
  ],
  "bytecode": "0x6080604052348015600f57600080fd5b50604051610516380380610516833981016040819052602c916089565b6101f481111560705760405162461bcd60e51b815260206004820152600c60248201526b08ccaca40e8dede40d0d2ced60a31b604482015260640160405180910390fd5b600080546001600160a01b0319163317905560015560a1565b600060208284031215609a57600080fd5b5051919050565b610466806100b06000396000f3fe608060405234801561001057600080fd5b50600436106100b45760003560e01c80638da5cb5b116100715780638da5cb5b1461013f578063995df76c14610152578063aa0b598814610165578063ab1adab914610178578063bc063e1a1461018b578063f2fde38b1461019457600080fd5b80631c294efd146100b957806336abac29146100ce5780633fdcdf43146100fe57806365f775b8146101115780636ea8bc10146101245780638c639a8514610136575b600080fd5b6100cc6100c73660046103a6565b6101a7565b005b6002546100e1906001600160a01b031681565b6040516001600160a01b0390911681526020015b60405180910390f35b6004546100e1906001600160a01b031681565b6100cc61011f3660046103a6565b6101fc565b6001545b6040519081526020016100f5565b61012860015481565b6000546100e1906001600160a01b031681565b6003546100e1906001600160a01b031681565b6100cc6101733660046103d6565b610248565b6100cc6101863660046103a6565b6102b8565b6101286101f481565b6100cc6101a23660046103a6565b610304565b6000546001600160a01b031633146101da5760405162461bcd60e51b81526004016101d1906103ef565b60405180910390fd5b600380546001600160a01b0319166001600160a01b0392909216919091179055565b6000546001600160a01b031633146102265760405162461bcd60e51b81526004016101d1906103ef565b600480546001600160a01b0319166001600160a01b0392909216919091179055565b6000546001600160a01b031633146102725760405162461bcd60e51b81526004016101d1906103ef565b6101f48111156102b35760405162461bcd60e51b815260206004820152600c60248201526b08ccaca40e8dede40d0d2ced60a31b60448201526064016101d1565b600155565b6000546001600160a01b031633146102e25760405162461bcd60e51b81526004016101d1906103ef565b600280546001600160a01b0319166001600160a01b0392909216919091179055565b6000546001600160a01b0316331461032e5760405162461bcd60e51b81526004016101d1906103ef565b6001600160a01b0381166103845760405162461bcd60e51b815260206004820181905260248201527f4e6577206f776e65722063616e6e6f74206265207a65726f206164647265737360448201526064016101d1565b600080546001600160a01b0319166001600160a01b0392909216919091179055565b6000602082840312156103b857600080fd5b81356001600160a01b03811681146103cf57600080fd5b9392505050565b6000602082840312156103e857600080fd5b5035919050565b60208082526021908201527f4f6e6c79206f776e65722063616e2063616c6c20746869732066756e6374696f6040820152603760f91b60608201526080019056fea2646970667358221220b7efb2588fd5b1d49ec4a7b74cbad5440d916eba3fd3752d89fb9d8765bb781064736f6c634300081c0033",
  "linkReferences": {},
  "deployedLinkReferences": {}
}