{
  "_format": "hh-sol-artifact-1",
  "contractName": "EduCatalystFunding",
  "sourceName": "contracts/EducatalystFunding.sol",
  "abi": [
    {
      "inputs": [
        {
          "internalType": "address",
          "name": "_coreAddress",
          "type": "address"
        },
        {
          "internalType": "address",
          "name": "_organizationAddress",
          "type": "address"
        }
      ],
      "stateMutability": "nonpayable",
      "type": "constructor"
    },
    {
      "anonymous": false,
      "inputs": [
        {
          "indexed": true,
          "internalType": "uint256",
          "name": "requestId",
          "type": "uint256"
        },
        {
          "indexed": true,
          "internalType": "address",
          "name": "sponsor",
          "type": "address"
        },
        {
          "indexed": false,
          "internalType": "uint256",
          "name": "amount",
          "type": "uint256"
        }
      ],
      "name": "ContributionMade",
      "type": "event"
    },
    {
      "anonymous": false,
      "inputs": [
        {
          "indexed": true,
          "internalType": "uint256",
          "name": "requestId",
          "type": "uint256"
        },
        {
          "indexed": false,
          "internalType": "uint256",
          "name": "timestamp",
          "type": "uint256"
        }
      ],
      "name": "EventCompleted",
      "type": "event"
    },
    {
      "anonymous": false,
      "inputs": [
        {
          "indexed": true,
          "internalType": "uint256",
          "name": "requestId",
          "type": "uint256"
        },
        {
          "indexed": false,
          "internalType": "bool",
          "name": "success",
          "type": "bool"
        }
      ],
      "name": "EventVerified",
      "type": "event"
    },
    {
      "anonymous": false,
      "inputs": [
        {
          "indexed": true,
          "internalType": "uint256",
          "name": "requestId",
          "type": "uint256"
        },
        {
          "indexed": false,
          "internalType": "bool",
          "name": "proceedWithEvent",
          "type": "bool"
        }
      ],
      "name": "FundingDecisionMade",
      "type": "event"
    },
    {
      "anonymous": false,
      "inputs": [
        {
          "indexed": true,
          "internalType": "uint256",
          "name": "requestId",
          "type": "uint256"
        },
        {
          "indexed": false,
          "internalType": "uint256",
          "name": "currentAmount",
          "type": "uint256"
        },
        {
          "indexed": false,
          "internalType": "uint256",
          "name": "fundingGoal",
          "type": "uint256"
        }
      ],
      "name": "FundingDecisionRequired",
      "type": "event"
    },
    {
      "anonymous": false,
      "inputs": [
        {
          "indexed": true,
          "internalType": "uint256",
          "name": "requestId",
          "type": "uint256"
        }
      ],
      "name": "FundingGoalReached",
      "type": "event"
    },
    {
      "anonymous": false,
      "inputs": [
        {
          "indexed": true,
          "internalType": "uint256",
          "name": "requestId",
          "type": "uint256"
        }
      ],
      "name": "FundingRequestCanceled",
      "type": "event"
    },
    {
      "anonymous": false,
      "inputs": [
        {
          "indexed": true,
          "internalType": "uint256",
          "name": "requestId",
          "type": "uint256"
        },
        {
          "indexed": true,
          "internalType": "address",
          "name": "orgAddress",
          "type": "address"
        },
        {
          "indexed": false,
          "internalType": "uint256",
          "name": "fundingGoal",
          "type": "uint256"
        },
        {
          "indexed": false,
          "internalType": "uint256",
          "name": "deadline",
          "type": "uint256"
        }
      ],
      "name": "FundingRequestCreated",
      "type": "event"
    },
    {
      "anonymous": false,
      "inputs": [
        {
          "indexed": true,
          "internalType": "uint256",
          "name": "requestId",
          "type": "uint256"
        },
        {
          "indexed": false,
          "internalType": "uint256",
          "name": "amount",
          "type": "uint256"
        }
      ],
      "name": "PartialFundingAccepted",
      "type": "event"
    },
    {
      "anonymous": false,
      "inputs": [
        {
          "indexed": true,
          "internalType": "uint256",
          "name": "requestId",
          "type": "uint256"
        },
        {
          "indexed": true,
          "internalType": "address",
          "name": "sponsor",
          "type": "address"
        },
        {
          "indexed": false,
          "internalType": "uint256",
          "name": "amount",
          "type": "uint256"
        }
      ],
      "name": "RefundIssued",
      "type": "event"
    },
    {
      "inputs": [
        {
          "internalType": "uint256",
          "name": "_requestId",
          "type": "uint256"
        }
      ],
      "name": "autoProcessExpiredFunding",
      "outputs": [],
      "stateMutability": "nonpayable",
      "type": "function"
    },
    {
      "inputs": [
        {
          "internalType": "uint256",
          "name": "_requestId",
          "type": "uint256"
        }
      ],
      "name": "cancelFundingRequest",
      "outputs": [],
      "stateMutability": "nonpayable",
      "type": "function"
    },
    {
      "inputs": [
        {
          "internalType": "uint256",
          "name": "_requestId",
          "type": "uint256"
        }
      ],
      "name": "checkFundingDecisionRequired",
      "outputs": [],
      "stateMutability": "nonpayable",
      "type": "function"
    },
    {
      "inputs": [
        {
          "internalType": "uint256",
          "name": "_requestId",
          "type": "uint256"
        }
      ],
      "name": "contribute",
      "outputs": [],
      "stateMutability": "payable",
      "type": "function"
    },
    {
      "inputs": [],
      "name": "core",
      "outputs": [
        {
          "internalType": "contract EduCatalystCore",
          "name": "",
          "type": "address"
        }
      ],
      "stateMutability": "view",
      "type": "function"
    },
    {
      "inputs": [
        {
          "internalType": "string",
          "name": "_title",
          "type": "string"
        },
        {
          "internalType": "string",
          "name": "_description",
          "type": "string"
        },
        {
          "internalType": "uint256",
          "name": "_fundingGoal",
          "type": "uint256"
        },
        {
          "internalType": "uint256",
          "name": "_minimumThreshold",
          "type": "uint256"
        },
        {
          "internalType": "uint256",
          "name": "_deadline",
          "type": "uint256"
        },
        {
          "internalType": "uint256",
          "name": "_eventStart",
          "type": "uint256"
        },
        {
          "internalType": "uint256",
          "name": "_eventEnd",
          "type": "uint256"
        }
      ],
      "name": "createFundingRequest",
      "outputs": [],
      "stateMutability": "nonpayable",
      "type": "function"
    },
    {
      "inputs": [
        {
          "internalType": "uint256",
          "name": "",
          "type": "uint256"
        }
      ],
      "name": "fundingRequests",
      "outputs": [
        {
          "internalType": "uint256",
          "name": "id",
          "type": "uint256"
        },
        {
          "internalType": "address payable",
          "name": "orgAddress",
          "type": "address"
        },
        {
          "internalType": "string",
          "name": "title",
          "type": "string"
        },
        {
          "internalType": "string",
          "name": "description",
          "type": "string"
        },
        {
          "internalType": "uint256",
          "name": "fundingGoal",
          "type": "uint256"
        },
        {
          "internalType": "uint256",
          "name": "minimumThreshold",
          "type": "uint256"
        },
        {
          "internalType": "uint256",
          "name": "currentAmount",
          "type": "uint256"
        },
        {
          "internalType": "uint256",
          "name": "deadline",
          "type": "uint256"
        },
        {
          "internalType": "uint256",
          "name": "eventStart",
          "type": "uint256"
        },
        {
          "internalType": "uint256",
          "name": "eventEnd",
          "type": "uint256"
        },
        {
          "internalType": "enum EduCatalystFunding.FundingStatus",
          "name": "status",
          "type": "uint8"
        },
        {
          "internalType": "bool",
          "name": "eventCompleted",
          "type": "bool"
        },
        {
          "internalType": "bool",
          "name": "exists",
          "type": "bool"
        }
      ],
      "stateMutability": "view",
      "type": "function"
    },
    {
      "inputs": [
        {
          "internalType": "uint256",
          "name": "_requestId",
          "type": "uint256"
        },
        {
          "internalType": "address",
          "name": "_sponsor",
          "type": "address"
        }
      ],
      "name": "getContribution",
      "outputs": [
        {
          "internalType": "uint256",
          "name": "",
          "type": "uint256"
        }
      ],
      "stateMutability": "view",
      "type": "function"
    },
    {
      "inputs": [
        {
          "internalType": "uint256",
          "name": "_requestId",
          "type": "uint256"
        }
      ],
      "name": "getFundingRequestDetails",
      "outputs": [
        {
          "internalType": "address",
          "name": "orgAddress",
          "type": "address"
        },
        {
          "internalType": "string",
          "name": "title",
          "type": "string"
        },
        {
          "internalType": "string",
          "name": "description",
          "type": "string"
        },
        {
          "internalType": "uint256",
          "name": "fundingGoal",
          "type": "uint256"
        },
        {
          "internalType": "uint256",
          "name": "minimumThreshold",
          "type": "uint256"
        },
        {
          "internalType": "uint256",
          "name": "currentAmount",
          "type": "uint256"
        },
        {
          "internalType": "uint256",
          "name": "deadline",
          "type": "uint256"
        },
        {
          "internalType": "uint256",
          "name": "eventStart",
          "type": "uint256"
        },
        {
          "internalType": "uint256",
          "name": "eventEnd",
          "type": "uint256"
        },
        {
          "internalType": "enum EduCatalystFunding.FundingStatus",
          "name": "status",
          "type": "uint8"
        },
        {
          "internalType": "bool",
          "name": "eventCompleted",
          "type": "bool"
        }
      ],
      "stateMutability": "view",
      "type": "function"
    },
    {
      "inputs": [],
      "name": "getMyRequestIds",
      "outputs": [
        {
          "internalType": "uint256[]",
          "name": "",
          "type": "uint256[]"
        }
      ],
      "stateMutability": "view",
      "type": "function"
    },
    {
      "inputs": [
        {
          "internalType": "uint256",
          "name": "_requestId",
          "type": "uint256"
        }
      ],
      "name": "getSponsors",
      "outputs": [
        {
          "internalType": "address[]",
          "name": "",
          "type": "address[]"
        }
      ],
      "stateMutability": "view",
      "type": "function"
    },
    {
      "inputs": [
        {
          "internalType": "uint256",
          "name": "_requestId",
          "type": "uint256"
        }
      ],
      "name": "isEventOverdue",
      "outputs": [
        {
          "internalType": "bool",
          "name": "",
          "type": "bool"
        }
      ],
      "stateMutability": "view",
      "type": "function"
    },
    {
      "inputs": [
        {
          "internalType": "uint256",
          "name": "_requestId",
          "type": "uint256"
        },
        {
          "internalType": "bool",
          "name": "_proceedWithEvent",
          "type": "bool"
        }
      ],
      "name": "makeFundingDecision",
      "outputs": [],
      "stateMutability": "nonpayable",
      "type": "function"
    },
    {
      "inputs": [
        {
          "internalType": "uint256",
          "name": "_requestId",
          "type": "uint256"
        },
        {
          "internalType": "bool",
          "name": "_success",
          "type": "bool"
        },
        {
          "internalType": "string",
          "name": "_evidenceUri",
          "type": "string"
        }
      ],
      "name": "markEventCompleted",
      "outputs": [],
      "stateMutability": "nonpayable",
      "type": "function"
    },
    {
      "inputs": [],
      "name": "organizationContract",
      "outputs": [
        {
          "internalType": "contract EduCatalystOrganization",
          "name": "",
          "type": "address"
        }
      ],
      "stateMutability": "view",
      "type": "function"
    },
    {
      "inputs": [],
      "name": "requestCount",
      "outputs": [
        {
          "internalType": "uint256",
          "name": "",
          "type": "uint256"
        }
      ],
      "stateMutability": "view",
      "type": "function"
    }
  ],
  "bytecode": "0x6080604052348015600f57600080fd5b50604051612439380380612439833981016040819052602c91607d565b600080546001600160a01b039384166001600160a01b0319918216178255600180549390941692169190911790915560035560ab565b80516001600160a01b0381168114607857600080fd5b919050565b60008060408385031215608f57600080fd5b6096836062565b915060a2602084016062565b90509250929050565b61237f806100ba6000396000f3fe6080604052600436106100f35760003560e01c8063ba450ab41161008a578063d9de990111610059578063d9de9901146102db578063e081dbf9146102fb578063f2f4eb261461031b578063fb2efc011461033b57600080fd5b8063ba450ab41461022b578063ba56148614610258578063c1cbbca714610291578063c8d53a60146102a457600080fd5b80635badbe4c116100c65780635badbe4c1461019757806367e9668d146101bb5780637af2055a146101eb5780639160a8ac1461020b57600080fd5b806336abac29146100f8578063408e20241461013557806348a838d914610157578063545c68d314610177575b600080fd5b34801561010457600080fd5b50600154610118906001600160a01b031681565b6040516001600160a01b0390911681526020015b60405180910390f35b34801561014157600080fd5b50610155610150366004611c3f565b61035d565b005b34801561016357600080fd5b50610155610172366004611c3f565b61044f565b34801561018357600080fd5b50610155610192366004611c3f565b6106b2565b3480156101a357600080fd5b506101ad60035481565b60405190815260200161012c565b3480156101c757600080fd5b506101db6101d6366004611c3f565b610941565b604051901515815260200161012c565b3480156101f757600080fd5b50610155610206366004611d0e565b6109ef565b34801561021757600080fd5b50610155610226366004611d67565b610c5b565b34801561023757600080fd5b5061024b610246366004611c3f565b610f6c565b60405161012c9190611dfc565b34801561026457600080fd5b50610278610273366004611c3f565b611015565b60405161012c9d9c9b9a99989796959493929190611ec6565b61015561029f366004611c3f565b61119c565b3480156102b057600080fd5b506102c46102bf366004611c3f565b6113f6565b60405161012c9b9a99989796959493929190611f5c565b3480156102e757600080fd5b506101556102f6366004611fe2565b6115ed565b34801561030757600080fd5b506101ad610316366004612012565b611a64565b34801561032757600080fd5b50600054610118906001600160a01b031681565b34801561034757600080fd5b50610350611aca565b60405161012c9190612043565b6000818152600260205260409020600d01548190610100900460ff1661039e5760405162461bcd60e51b81526004016103959061207b565b60405180910390fd5b600082815260026020526040812090600a82015460ff1660048111156103c6576103c6611e8e565b1480156103d7575080600701544210155b80156103e65750806008015442105b80156103f9575080600401548160060154105b1561044a57827f8a91e46d786d8f538629e214b62e7ed67786c45dbcde2488ecfe1de11e85b07782600601548360040154604051610441929190918252602082015260400190565b60405180910390a25b505050565b6000818152600260205260409020600d01548190610100900460ff166104875760405162461bcd60e51b81526004016103959061207b565b60008281526002602052604090206001015482906001600160a01b031633146104c25760405162461bcd60e51b8152600401610395906120b2565b600083815260026020526040812090600a82015460ff1660048111156104ea576104ea611e8e565b146105495760405162461bcd60e51b815260206004820152602960248201527f43616e6e6f742063616e63656c2061207265717565737420746861742069736e60448201526827742061637469766560b81b6064820152608401610395565b600a8101805460ff1916600417905560005b600b82015481101561068057600082600b01828154811061057e5761057e61211e565b60009182526020808320909101546001600160a01b0316808352600c86019091526040909120549091508015610676576001600160a01b0382166000818152600c860160205260408082208290555190919083908381818185875af1925050503d806000811461060a576040519150601f19603f3d011682016040523d82523d6000602084013e61060f565b606091505b50509050806106305760405162461bcd60e51b815260040161039590612134565b826001600160a01b0316887f7a482fdeb6bc9a1376f597068a214a7a39472bb2eff1b8cad21ba04f49ddca1b8460405161066c91815260200190565b60405180910390a3505b505060010161055b565b5060405184907fb5b43989547011da0897c8feeacdf8746eacbc72c701dbcdd9a88ba4491e73c690600090a250505050565b6000818152600260205260409020600d01548190610100900460ff166106ea5760405162461bcd60e51b81526004016103959061207b565b600082815260026020526040812090600a82015460ff16600481111561071257610712611e8e565b146107575760405162461bcd60e51b815260206004820152601560248201527452657175657374206973206e6f742061637469766560581b6044820152606401610395565b80600801544210156107ab5760405162461bcd60e51b815260206004820152601960248201527f4576656e7420686173206e6f74207374617274656420796574000000000000006044820152606401610395565b600a8101805460ff1916600417905560005b600b8201548110156108e257600082600b0182815481106107e0576107e061211e565b60009182526020808320909101546001600160a01b0316808352600c860190915260409091205490915080156108d8576001600160a01b0382166000818152600c860160205260408082208290555190919083908381818185875af1925050503d806000811461086c576040519150601f19603f3d011682016040523d82523d6000602084013e610871565b606091505b50509050806108925760405162461bcd60e51b815260040161039590612134565b826001600160a01b0316877f7a482fdeb6bc9a1376f597068a214a7a39472bb2eff1b8cad21ba04f49ddca1b846040516108ce91815260200190565b60405180910390a3505b50506001016107bd565b5060405183907fb5b43989547011da0897c8feeacdf8746eacbc72c701dbcdd9a88ba4491e73c690600090a26040516000815283907fcbe070ab725b0b5bdacb047035ffe5246a56f9c6de4da610652dec0333311e7990602001610441565b6000818152600260205260408120600d01548290610100900460ff166109795760405162461bcd60e51b81526004016103959061207b565b600083815260026020526040902060098101544211801561099f5750600d81015460ff16155b80156109e557506001600a82015460ff1660048111156109c1576109c1611e8e565b14806109e557506002600a82015460ff1660048111156109e3576109e3611e8e565b145b9250505b50919050565b6000838152600260205260409020600d01548390610100900460ff16610a275760405162461bcd60e51b81526004016103959061207b565b60008481526002602052604090206001015484906001600160a01b03163314610a625760405162461bcd60e51b8152600401610395906120b2565b60008581526002602052604090206009810154421015610ace5760405162461bcd60e51b815260206004820152602160248201527f4576656e7420656e64206461746520686173206e6f74207061737365642079656044820152601d60fa1b6064820152608401610395565b600d81015460ff1615610b2d5760405162461bcd60e51b815260206004820152602160248201527f4576656e7420616c7265616479206d61726b656420617320636f6d706c6574656044820152601960fa1b6064820152608401610395565b6001600a82015460ff166004811115610b4857610b48611e8e565b1480610b6c57506002600a82015460ff166004811115610b6a57610b6a611e8e565b145b610bcc5760405162461bcd60e51b815260206004820152602b60248201527f52657175657374206d7573742062652066756e64656420746f206d61726b206160448201526a1cc818dbdb5c1b195d195960aa1b6064820152608401610395565b600d8101805460ff1916600117905560405186907fd0c6226532d32cb132032f6291291b0fbcbed8d78826dc075335925a1e82e9fb90610c0f9042815260200190565b60405180910390a2857f3e7974cb8c7814ba32cbb7925a9e23ccf2a3eee3c6ece5eba091c524651d150386604051610c4b911515815260200190565b60405180910390a2505050505050565b60015460405163b1ce8eab60e01b81523360048201526001600160a01b039091169063b1ce8eab90602401602060405180830381865afa158015610ca3573d6000803e3d6000fd5b505050506040513d601f19601f82011682018060405250810190610cc79190612163565b610d305760405162461bcd60e51b815260206004820152603460248201527f4f6e6c792072656769737465726564206f7267616e697a6174696f6e73206361604482015273371031b0b636103a3434b990333ab731ba34b7b760611b6064820152608401610395565b612710841115610d825760405162461bcd60e51b815260206004820152601c60248201527f5468726573686f6c642063616e6e6f74206578636565642031303025000000006044820152606401610395565b428311610dd15760405162461bcd60e51b815260206004820152601e60248201527f446561646c696e65206d75737420626520696e207468652066757475726500006044820152606401610395565b82821015610e315760405162461bcd60e51b815260206004820152602760248201527f4576656e74206d7573742073746172742061667465722066756e64696e6720646044820152666561646c696e6560c81b6064820152608401610395565b818111610e805760405162461bcd60e51b815260206004820152601d60248201527f4576656e7420656e64206d7573742062652061667465722073746172740000006044820152606401610395565b60038054906000610e908361219d565b909155505060035460008181526002602081905260409091208281556001810180546001600160a01b03191633179055908101610ecd8a82612238565b5060038101610edc8982612238565b50600481018790556005810186905560006006820155600781018590556008810184905560098101839055600a8101805460ff19169055600d8101805461ffff19166101001790556040805188815260208101879052339184917fa995a99cd81d7f81abd4cb347b21641d59900a55f92298fc46ee911c3b89023e910160405180910390a3505050505050505050565b6000818152600260205260409020600d01546060908290610100900460ff16610fa75760405162461bcd60e51b81526004016103959061207b565b600083815260026020908152604091829020600b018054835181840281018401909452808452909183018282801561100857602002820191906000526020600020905b81546001600160a01b03168152600190910190602001808311610fea575b5050505050915050919050565b600260208190526000918252604090912080546001820154928201805491936001600160a01b03169291611048906121b6565b80601f0160208091040260200160405190810160405280929190818152602001828054611074906121b6565b80156110c15780601f10611096576101008083540402835291602001916110c1565b820191906000526020600020905b8154815290600101906020018083116110a457829003601f168201915b5050505050908060030180546110d6906121b6565b80601f0160208091040260200160405190810160405280929190818152602001828054611102906121b6565b801561114f5780601f106111245761010080835404028352916020019161114f565b820191906000526020600020905b81548152906001019060200180831161113257829003601f168201915b505050600484015460058501546006860154600787015460088801546009890154600a8a0154600d909a0154989995989497509295509093909260ff91821691818116916101009004168d565b6000818152600260205260409020600d01548190610100900460ff166111d45760405162461bcd60e51b81526004016103959061207b565b600082815260026020526040812090600a82015460ff1660048111156111fc576111fc611e8e565b146112415760405162461bcd60e51b815260206004820152601560248201527446756e64696e67206973206e6f742061637469766560581b6044820152606401610395565b806007015442106112945760405162461bcd60e51b815260206004820152601b60248201527f46756e64696e6720646561646c696e65206861732070617373656400000000006044820152606401610395565b600034116112f05760405162461bcd60e51b815260206004820152602360248201527f436f6e747269627574696f6e206d75737420626520677265617465722074686160448201526206e20360ec1b6064820152608401610395565b336000908152600c82016020526040812054900361133057600b81018054600181018255600091825260209091200180546001600160a01b031916331790555b336000908152600c82016020526040812080543492906113519084906122f7565b925050819055503481600601600082825461136c91906122f7565b9091555050604051348152339084907f0a4a91237423e0a1766a761c7cb029311d8b95d6b1b81db1b949a70c98b4e08e9060200160405180910390a3806004015481600601541061044a57600a8101805460ff1916600117905560405183907fbdf8e8154212732e32053db049accdd4ff27639d7028ecf127e2353161b994bf90600090a2505050565b60006060806000806000806000806000808b60026000828152602001908152602001600020600d0160019054906101000a900460ff166114485760405162461bcd60e51b81526004016103959061207b565b60008d81526002602081905260409091206001810154600482015460058301546006840154600785015460088601546009870154600a880154600d8901549989018054999a6001600160a01b0390991699909860038c019897969594939260ff908116929116908a906114ba906121b6565b80601f01602080910402602001604051908101604052809291908181526020018280546114e6906121b6565b80156115335780601f1061150857610100808354040283529160200191611533565b820191906000526020600020905b81548152906001019060200180831161151657829003601f168201915b50505050509950888054611546906121b6565b80601f0160208091040260200160405190810160405280929190818152602001828054611572906121b6565b80156115bf5780601f10611594576101008083540402835291602001916115bf565b820191906000526020600020905b8154815290600101906020018083116115a257829003601f168201915b505050505098509c509c509c509c509c509c509c509c509c509c509c50505091939597999b90929496989a50565b6000828152600260205260409020600d01548290610100900460ff166116255760405162461bcd60e51b81526004016103959061207b565b60008381526002602052604090206001015483906001600160a01b031633146116605760405162461bcd60e51b8152600401610395906120b2565b600084815260026020526040812090600a82015460ff16600481111561168857611688611e8e565b146116cd5760405162461bcd60e51b815260206004820152601560248201527452657175657374206973206e6f742061637469766560581b6044820152606401610395565b806007015442101561172d5760405162461bcd60e51b815260206004820152602360248201527f46756e64696e6720646561646c696e6520686173206e6f7420706173736564206044820152621e595d60ea1b6064820152608401610395565b806008015442106117805760405162461bcd60e51b815260206004820152601960248201527f4576656e742068617320616c72656164792073746172746564000000000000006044820152606401610395565b80600401548160060154106117d75760405162461bcd60e51b815260206004820152601860248201527f46756e64696e6720676f616c20616c7265616479206d657400000000000000006044820152606401610395565b83156118bd576000816004015482600601546127106117f69190612310565b6118009190612327565b9050816005015481101561186e5760405162461bcd60e51b815260206004820152602f60248201527f43757272656e742066756e64696e6720646f6573206e6f74206d656574206d6960448201526e1b9a5b5d5b481d1a1c995cda1bdb19608a1b6064820152608401610395565b600a8201805460ff19166002179055600682015460405190815286907f8eccb522dda8c3ea7180ed6b8d995dbbefbe35fbadd88001ea5ffc9f5841d37a9060200160405180910390a250611a21565b600a8101805460ff1916600417905560005b600b8201548110156119f457600082600b0182815481106118f2576118f261211e565b60009182526020808320909101546001600160a01b0316808352600c860190915260409091205490915080156119ea576001600160a01b0382166000818152600c860160205260408082208290555190919083908381818185875af1925050503d806000811461197e576040519150601f19603f3d011682016040523d82523d6000602084013e611983565b606091505b50509050806119a45760405162461bcd60e51b815260040161039590612134565b826001600160a01b0316897f7a482fdeb6bc9a1376f597068a214a7a39472bb2eff1b8cad21ba04f49ddca1b846040516119e091815260200190565b60405180910390a3505b50506001016118cf565b5060405185907fb5b43989547011da0897c8feeacdf8746eacbc72c701dbcdd9a88ba4491e73c690600090a25b847fcbe070ab725b0b5bdacb047035ffe5246a56f9c6de4da610652dec0333311e7985604051611a55911515815260200190565b60405180910390a25050505050565b6000828152600260205260408120600d01548390610100900460ff16611a9c5760405162461bcd60e51b81526004016103959061207b565b505060009182526002602090815260408084206001600160a01b03939093168452600c909201905290205490565b6060600060035467ffffffffffffffff811115611ae957611ae9611c69565b604051908082528060200260200182016040528015611b12578160200160208202803683370190505b509050600060015b6003548111611ba5576000818152600260205260409020600d0154610100900460ff168015611b6257506000818152600260205260409020600101546001600160a01b031633145b15611b935780838381518110611b7a57611b7a61211e565b602090810291909101015281611b8f8161219d565b9250505b80611b9d8161219d565b915050611b1a565b5060008167ffffffffffffffff811115611bc157611bc1611c69565b604051908082528060200260200182016040528015611bea578160200160208202803683370190505b50905060005b82811015611c3757838181518110611c0a57611c0a61211e565b6020026020010151828281518110611c2457611c2461211e565b6020908102919091010152600101611bf0565b509392505050565b600060208284031215611c5157600080fd5b5035919050565b8015158114611c6657600080fd5b50565b634e487b7160e01b600052604160045260246000fd5b600082601f830112611c9057600080fd5b813567ffffffffffffffff811115611caa57611caa611c69565b604051601f8201601f19908116603f0116810167ffffffffffffffff81118282101715611cd957611cd9611c69565b604052818152838201602001851015611cf157600080fd5b816020850160208301376000918101602001919091529392505050565b600080600060608486031215611d2357600080fd5b833592506020840135611d3581611c58565b9150604084013567ffffffffffffffff811115611d5157600080fd5b611d5d86828701611c7f565b9150509250925092565b600080600080600080600060e0888a031215611d8257600080fd5b873567ffffffffffffffff811115611d9957600080fd5b611da58a828b01611c7f565b975050602088013567ffffffffffffffff811115611dc257600080fd5b611dce8a828b01611c7f565b979a9799505050506040860135956060810135956080820135955060a0820135945060c09091013592509050565b602080825282518282018190526000918401906040840190835b81811015611e3d5783516001600160a01b0316835260209384019390920191600101611e16565b509095945050505050565b6000815180845260005b81811015611e6e57602081850181015186830182015201611e52565b506000602082860101526020601f19601f83011685010191505092915050565b634e487b7160e01b600052602160045260246000fd5b60058110611ec257634e487b7160e01b600052602160045260246000fd5b9052565b8d81526001600160a01b038d1660208201526101a060408201819052600090611ef19083018e611e48565b8281036060840152611f03818e611e48565b9150508a60808301528960a08301528860c08301528760e08301528661010083015285610120830152611f3a610140830186611ea4565b921515610160820152901515610180909101529b9a5050505050505050505050565b6001600160a01b038c16815261016060208201819052600090611f819083018d611e48565b8281036040840152611f93818d611e48565b9150508960608301528860808301528760a08301528660c08301528560e083015284610100830152611fc9610120830185611ea4565b8215156101408301529c9b505050505050505050505050565b60008060408385031215611ff557600080fd5b82359150602083013561200781611c58565b809150509250929050565b6000806040838503121561202557600080fd5b8235915060208301356001600160a01b038116811461200757600080fd5b602080825282518282018190526000918401906040840190835b81811015611e3d57835183526020938401939092019160010161205d565b6020808252601e908201527f46756e64696e67207265717565737420646f6573206e6f742065786973740000604082015260600190565b60208082526046908201527f4f6e6c7920746865206f7267616e697a6174696f6e207468617420637265617460408201527f6564207468697320726571756573742063616e2063616c6c20746869732066756060820152653731ba34b7b760d11b608082015260a00190565b634e487b7160e01b600052603260045260246000fd5b60208082526015908201527411985a5b1959081d1bc81cd95b99081c99599d5b99605a1b604082015260600190565b60006020828403121561217557600080fd5b815161218081611c58565b9392505050565b634e487b7160e01b600052601160045260246000fd5b6000600182016121af576121af612187565b5060010190565b600181811c908216806121ca57607f821691505b6020821081036109e957634e487b7160e01b600052602260045260246000fd5b601f82111561044a57806000526020600020601f840160051c810160208510156122115750805b601f840160051c820191505b81811015612231576000815560010161221d565b5050505050565b815167ffffffffffffffff81111561225257612252611c69565b6122668161226084546121b6565b846121ea565b6020601f82116001811461229a57600083156122825750848201515b600019600385901b1c1916600184901b178455612231565b600084815260208120601f198516915b828110156122ca57878501518255602094850194600190920191016122aa565b50848210156122e85786840151600019600387901b60f8161c191681555b50505050600190811b01905550565b8082018082111561230a5761230a612187565b92915050565b808202811582820484141761230a5761230a612187565b60008261234457634e487b7160e01b600052601260045260246000fd5b50049056fea26469706673582212209d7b6439e4843e015b1a129feb0883e54c4c2bca8a250ae4279fcb52eb64dd8b64736f6c634300081c0033",
  "linkReferences": {},
  "deployedLinkReferences": {}
}