{
  "_format": "hh-sol-artifact-1",
  "contractName": "EduCatalystOrganization",
  "sourceName": "contracts/EduCatalystOrganization.sol",
  "abi": [
    {
      "inputs": [
        {
          "internalType": "address",
          "name": "_coreAddress",
          "type": "address"
        }
      ],
      "stateMutability": "nonpayable",
      "type": "constructor"
    },
    {
      "anonymous": false,
      "inputs": [
        {
          "indexed": true,
          "internalType": "address",
          "name": "orgAddress",
          "type": "address"
        },
        {
          "indexed": false,
          "internalType": "string",
          "name": "name",
          "type": "string"
        }
      ],
      "name": "OrganizationRegistered",
      "type": "event"
    },
    {
      "anonymous": false,
      "inputs": [
        {
          "indexed": true,
          "internalType": "address",
          "name": "orgAddress",
          "type": "address"
        },
        {
          "indexed": false,
          "internalType": "enum EduCatalystOrganization.OrganizationStatus",
          "name": "status",
          "type": "uint8"
        }
      ],
      "name": "OrganizationVerified",
      "type": "event"
    },
    {
      "inputs": [],
      "name": "core",
      "outputs": [
        {
          "internalType": "contract EduCatalystCore",
          "name": "",
          "type": "address"
        }
      ],
      "stateMutability": "view",
      "type": "function"
    },
    {
      "inputs": [],
      "name": "getAllOrganizations",
      "outputs": [
        {
          "internalType": "address[]",
          "name": "",
          "type": "address[]"
        }
      ],
      "stateMutability": "view",
      "type": "function"
    },
    {
      "inputs": [
        {
          "internalType": "address",
          "name": "_address",
          "type": "address"
        }
      ],
      "name": "getOrganizationDetails",
      "outputs": [
        {
          "internalType": "string",
          "name": "name",
          "type": "string"
        },
        {
          "internalType": "string",
          "name": "description",
          "type": "string"
        },
        {
          "internalType": "string",
          "name": "website",
          "type": "string"
        },
        {
          "internalType": "string",
          "name": "socialMedia",
          "type": "string"
        },
        {
          "internalType": "enum EduCatalystOrganization.OrganizationStatus",
          "name": "status",
          "type": "uint8"
        },
        {
          "internalType": "bool",
          "name": "exists",
          "type": "bool"
        }
      ],
      "stateMutability": "view",
      "type": "function"
    },
    {
      "inputs": [
        {
          "internalType": "address",
          "name": "_address",
          "type": "address"
        }
      ],
      "name": "isOrganization",
      "outputs": [
        {
          "internalType": "bool",
          "name": "",
          "type": "bool"
        }
      ],
      "stateMutability": "view",
      "type": "function"
    },
    {
      "inputs": [
        {
          "internalType": "address",
          "name": "",
          "type": "address"
        }
      ],
      "name": "organizations",
      "outputs": [
        {
          "internalType": "address payable",
          "name": "orgAddress",
          "type": "address"
        },
        {
          "internalType": "string",
          "name": "name",
          "type": "string"
        },
        {
          "internalType": "string",
          "name": "description",
          "type": "string"
        },
        {
          "internalType": "string",
          "name": "website",
          "type": "string"
        },
        {
          "internalType": "string",
          "name": "socialMedia",
          "type": "string"
        },
        {
          "internalType": "enum EduCatalystOrganization.OrganizationStatus",
          "name": "verificationStatus",
          "type": "uint8"
        },
        {
          "internalType": "bool",
          "name": "exists",
          "type": "bool"
        }
      ],
      "stateMutability": "view",
      "type": "function"
    },
    {
      "inputs": [
        {
          "internalType": "string",
          "name": "_name",
          "type": "string"
        },
        {
          "internalType": "string",
          "name": "_description",
          "type": "string"
        },
        {
          "internalType": "string",
          "name": "_website",
          "type": "string"
        },
        {
          "internalType": "string",
          "name": "_socialMedia",
          "type": "string"
        }
      ],
      "name": "registerOrganization",
      "outputs": [],
      "stateMutability": "nonpayable",
      "type": "function"
    },
    {
      "inputs": [
        {
          "internalType": "uint256",
          "name": "",
          "type": "uint256"
        }
      ],
      "name": "registeredOrgs",
      "outputs": [
        {
          "internalType": "address",
          "name": "",
          "type": "address"
        }
      ],
      "stateMutability": "view",
      "type": "function"
    },
    {
      "inputs": [
        {
          "internalType": "address",
          "name": "_orgAddress",
          "type": "address"
        },
        {
          "internalType": "enum EduCatalystOrganization.OrganizationStatus",
          "name": "_status",
          "type": "uint8"
        }
      ],
      "name": "updateOrganizationStatus",
      "outputs": [],
      "stateMutability": "nonpayable",
      "type": "function"
    }
  ],
  "bytecode": "0x6080604052348015600f57600080fd5b506040516110f13803806110f1833981016040819052602c916050565b600080546001600160a01b0319166001600160a01b0392909216919091179055607e565b600060208284031215606157600080fd5b81516001600160a01b0381168114607757600080fd5b9392505050565b6110648061008d6000396000f3fe608060405234801561001057600080fd5b50600436106100885760003560e01c806361ba81d81161005b57806361ba81d814610111578063b1ce8eab14610136578063d25199041461017a578063f2f4eb261461018d57600080fd5b8063086ed9381461008d57806323707bc6146100ab578063575f9df0146100d65780635a1f7406146100eb575b600080fd5b6100956101a0565b6040516100a29190610aef565b60405180910390f35b6100be6100b9366004610b3b565b610202565b6040516001600160a01b0390911681526020016100a2565b6100e96100e4366004610b6c565b61022c565b005b6100fe6100f9366004610ba9565b610405565b6040516100a29796959493929190610c4b565b61012461011f366004610ba9565b610671565b6040516100a296959493929190610ccd565b61016a610144366004610ba9565b6001600160a01b0316600090815260016020526040902060050154610100900460ff1690565b60405190151581526020016100a2565b6100e9610188366004610de2565b610905565b6000546100be906001600160a01b031681565b606060028054806020026020016040519081016040528092919081815260200182805480156101f857602002820191906000526020600020905b81546001600160a01b031681526001909101906020018083116101da575b5050505050905090565b6002818154811061021257600080fd5b6000918252602090912001546001600160a01b0316905081565b60008054906101000a90046001600160a01b03166001600160a01b0316638da5cb5b6040518163ffffffff1660e01b8152600401602060405180830381865afa15801561027d573d6000803e3d6000fd5b505050506040513d601f19601f820116820180604052508101906102a19190610ea2565b6001600160a01b0316336001600160a01b0316146103105760405162461bcd60e51b815260206004820152602160248201527f4f6e6c79206f776e65722063616e2063616c6c20746869732066756e6374696f6044820152603760f91b60648201526084015b60405180910390fd5b6001600160a01b038216600090815260016020526040902060050154610100900460ff166103805760405162461bcd60e51b815260206004820152601b60248201527f4f7267616e697a6174696f6e20646f6573206e6f7420657869737400000000006044820152606401610307565b6001600160a01b03821660009081526001602081905260409091206005018054839260ff19909116908360028111156103bb576103bb610c13565b0217905550816001600160a01b03167f9071f59203b36b863cb1a67a26002404be3e8cf68aa85b8b1f5fce694a87c8b2826040516103f99190610ebf565b60405180910390a25050565b6001602081905260009182526040909120805491810180546001600160a01b039093169261043290610ed3565b80601f016020809104026020016040519081016040528092919081815260200182805461045e90610ed3565b80156104ab5780601f10610480576101008083540402835291602001916104ab565b820191906000526020600020905b81548152906001019060200180831161048e57829003601f168201915b5050505050908060020180546104c090610ed3565b80601f01602080910402602001604051908101604052809291908181526020018280546104ec90610ed3565b80156105395780601f1061050e57610100808354040283529160200191610539565b820191906000526020600020905b81548152906001019060200180831161051c57829003601f168201915b50505050509080600301805461054e90610ed3565b80601f016020809104026020016040519081016040528092919081815260200182805461057a90610ed3565b80156105c75780601f1061059c576101008083540402835291602001916105c7565b820191906000526020600020905b8154815290600101906020018083116105aa57829003601f168201915b5050505050908060040180546105dc90610ed3565b80601f016020809104026020016040519081016040528092919081815260200182805461060890610ed3565b80156106555780601f1061062a57610100808354040283529160200191610655565b820191906000526020600020905b81548152906001019060200180831161063857829003601f168201915b5050506005909301549192505060ff8082169161010090041687565b6001600160a01b038116600090815260016020819052604082206005810154918101805460609485948594859492938493919260028401916003850191600486019160ff808316926101009004169086906106cb90610ed3565b80601f01602080910402602001604051908101604052809291908181526020018280546106f790610ed3565b80156107445780601f1061071957610100808354040283529160200191610744565b820191906000526020600020905b81548152906001019060200180831161072757829003601f168201915b5050505050955084805461075790610ed3565b80601f016020809104026020016040519081016040528092919081815260200182805461078390610ed3565b80156107d05780601f106107a5576101008083540402835291602001916107d0565b820191906000526020600020905b8154815290600101906020018083116107b357829003601f168201915b505050505094508380546107e390610ed3565b80601f016020809104026020016040519081016040528092919081815260200182805461080f90610ed3565b801561085c5780601f106108315761010080835404028352916020019161085c565b820191906000526020600020905b81548152906001019060200180831161083f57829003601f168201915b5050505050935082805461086f90610ed3565b80601f016020809104026020016040519081016040528092919081815260200182805461089b90610ed3565b80156108e85780601f106108bd576101008083540402835291602001916108e8565b820191906000526020600020905b8154815290600101906020018083116108cb57829003601f168201915b505050505092509650965096509650965096505091939550919395565b33600090815260016020526040902060050154610100900460ff161561096d5760405162461bcd60e51b815260206004820152601f60248201527f4f7267616e697a6174696f6e20616c72656164792072656769737465726564006044820152606401610307565b6040805160e08101825233815260208101869052908101849052606081018390526080810182905260a08101600081526001602091820181905233600090815281835260409020835181546001600160a01b0319166001600160a01b0390911617815591830151908201906109e29082610f5c565b50604082015160028201906109f79082610f5c565b5060608201516003820190610a0c9082610f5c565b5060808201516004820190610a219082610f5c565b5060a082015160058201805460ff19166001836002811115610a4557610a45610c13565b021790555060c09190910151600590910180549115156101000261ff0019909216919091179055600280546001810182556000919091527f405787fa12a823e0f2b7631cc41b3ba8828b3321ca811111fa75cd3aa3bb5ace0180546001600160a01b031916339081179091556040517f783e607e94efcb9adce3489c806008ddc378d784ae22a1f801458720054325a290610ae190879061101b565b60405180910390a250505050565b602080825282518282018190526000918401906040840190835b81811015610b305783516001600160a01b0316835260209384019390920191600101610b09565b509095945050505050565b600060208284031215610b4d57600080fd5b5035919050565b6001600160a01b0381168114610b6957600080fd5b50565b60008060408385031215610b7f57600080fd5b8235610b8a81610b54565b9150602083013560038110610b9e57600080fd5b809150509250929050565b600060208284031215610bbb57600080fd5b8135610bc681610b54565b9392505050565b6000815180845260005b81811015610bf357602081850181015186830182015201610bd7565b506000602082860101526020601f19601f83011685010191505092915050565b634e487b7160e01b600052602160045260246000fd5b60038110610c4757634e487b7160e01b600052602160045260246000fd5b9052565b6001600160a01b038816815260e060208201819052600090610c6f90830189610bcd565b8281036040840152610c818189610bcd565b90508281036060840152610c958188610bcd565b90508281036080840152610ca98187610bcd565b915050610cb960a0830185610c29565b82151560c083015298975050505050505050565b60c081526000610ce060c0830189610bcd565b8281036020840152610cf28189610bcd565b90508281036040840152610d068188610bcd565b90508281036060840152610d1a8187610bcd565b915050610d2a6080830185610c29565b82151560a0830152979650505050505050565b634e487b7160e01b600052604160045260246000fd5b600082601f830112610d6457600080fd5b813567ffffffffffffffff811115610d7e57610d7e610d3d565b604051601f8201601f19908116603f0116810167ffffffffffffffff81118282101715610dad57610dad610d3d565b604052818152838201602001851015610dc557600080fd5b816020850160208301376000918101602001919091529392505050565b60008060008060808587031215610df857600080fd5b843567ffffffffffffffff811115610e0f57600080fd5b610e1b87828801610d53565b945050602085013567ffffffffffffffff811115610e3857600080fd5b610e4487828801610d53565b935050604085013567ffffffffffffffff811115610e6157600080fd5b610e6d87828801610d53565b925050606085013567ffffffffffffffff811115610e8a57600080fd5b610e9687828801610d53565b91505092959194509250565b600060208284031215610eb457600080fd5b8151610bc681610b54565b60208101610ecd8284610c29565b92915050565b600181811c90821680610ee757607f821691505b602082108103610f0757634e487b7160e01b600052602260045260246000fd5b50919050565b601f821115610f5757806000526020600020601f840160051c81016020851015610f345750805b601f840160051c820191505b81811015610f545760008155600101610f40565b50505b505050565b815167ffffffffffffffff811115610f7657610f76610d3d565b610f8a81610f848454610ed3565b84610f0d565b6020601f821160018114610fbe5760008315610fa65750848201515b600019600385901b1c1916600184901b178455610f54565b600084815260208120601f198516915b82811015610fee5787850151825560209485019460019092019101610fce565b508482101561100c5786840151600019600387901b60f8161c191681555b50505050600190811b01905550565b602081526000610bc66020830184610bcd56fea26469706673582212208705d881e13ce0d9d9883ce97bec655d7aaa4b0faaa1ec280e81b0506ecd27ad64736f6c634300081c0033",
  "linkReferences": {},
  "deployedLinkReferences": {}
}